:100000000C9472000C948F000C948F000C948F0051
:100010000C948F000C948F000C948F000C948F0024
:100020000C948F000C948F000C948F000C948F0014
:100030000C948F000C948F000C948F000C948F0004
:100040000C948F000C948F000C948F000C948F00F4
:100050000C948F000C948F000C948F000C948F00E4
:100060000C948F000C948F000C948F000C948F00D4
:100070000C948F000C948F000C948F000C948F00C4
:100080000C948F000C948F000C948F000C948F00B4
:100090000C948F000C948F000C948F000C948F00A4
:1000A0000C948F000C948F000C948F000C948F0094
:1000B0000C948F000C948F000C948F000C948F0084
:1000C0000C948F000C948F000C948F000C948F0074
:1000D0000C948F000C948F000C948F000C948F0064
:1000E0000C948F0011241FBECFEFD1E2DEBFCDBF35
:1000F00012E0A0E0B2E0E8EAFBE002C005900D9259
:10010000AA30B107D9F712E0AAE0B2E001C01D920F
:10011000A131B107E1F70E9435030C94D2050C948C
:1001200000000AC020E030E000002F5F3F4F4CE0AD
:100130002C3C3407C9F701970097A1F70895709AEE
:1001400086EA8A95F1F770980895DF93CF930F921E
:10015000CDB7DEB78983FE013196898187FF02C062
:10016000779A01C07798808186FF02C0769A01C095
:100170007698808181FF02C0719A01C07198808158
:1001800082FF02C0729A01C07298808180FF02C013
:10019000709A01C070980F90CF91DF910895EF92FF
:1001A000FF920F931F93082FA5987098E82EFF24B5
:1001B000807C0E94A50006950695069510E00670C5
:1001C00010708EB1802B0E94A50001E0802F8A95CF
:1001D000F1F7709A16EA812F8A95F1F77098A59A2F
:1001E000A5987098C70124E0880F991F2A95E1F718
:1001F000807C0E94A500EE0CFF1C86E0E822FF2414
:100200008EB18E290E94A5000A95F1F7709A1A9571
:10021000F1F77098709871987298769877988AE04C
:1002200090E00E9491001F910F91FF90EF90089530
:100230008DB1876C8DB99D9A8FE090E00E949100FE
:10024000A5987098719872987698779880E20E9435
:10025000CF0081E090E00E94910080E20E94CF00F8
:1002600081E090E00E94910080E20E94CF0081E056
:1002700090E00E94910088E20E94CF0081E090E02F
:100280000E9491008EE00E94CF0081E090E00E94E9
:10029000910081E00E94CF0081E090E00E949100F7
:1002A00086E00E94CF0081E090E00E9491000895D6
:1002B000EF92FF920F931F93082F8FE090E00E9420
:1002C0009100A59A7098E02EFF24802F807C0E94D8
:1002D000A50006950695069510E0067010708EB183
:1002E000802B0E94A50001E0802F8A95F1F7709A7B
:1002F00016EA812F8A95F1F77098A5987098A59ABB
:10030000C70144E0880F991F4A95E1F7807C0E945D
:10031000A500EE0CFF1C86E0E822FF248EB18E299A
:100320000E94A5000A95F1F7709A1A95F1F7709856
:100330001F910F91FF90EF900895CF92DF92EF926F
:10034000FF920F931F93CF93DF936C01A59A709840
:10035000FF24E6EAEE2E3EC080E1F81619F480ECA8
:100360000E94CF00A59A7098088110E0802F807CB1
:100370000E94A50073E0159507957A95E1F7067040
:1003800010708EB1802B0E94A500709A8E2D8A95D8
:10039000F1F77098A598A59A7098088110E0C801A7
:1003A00064E0880F991F6A95E1F7807C0E94A500A0
:1003B000000F111F067010708EB1802B0E94A500D7
:1003C000709A8E2D8A95F1F77098F39481E090E001
:1003D0000E949100E601CF0DD11D8881882309F08C
:1003E000BBCFDF91CF911F910F91FF90EF90DF90E6
:1003F000CF9008958F929F92AF92BF92CF92DF924B
:10040000EF92FF921F93CF93DF936B017C0197FFD5
:100410000BC08DE20E945801F094E094D094C094F7
:10042000C11CD11CE11CF11CC701B60120EA36E851
:1004300041E050E00E94B705611571058105910505
:1004400019F4C5E0D0E041C0C701B60120E137E2B0
:1004500040E050E00E94B7056115710581059105E6
:1004600019F4C4E0D0E031C0C701B60128EE33E092
:1004700040E050E00E94B7056115710581059105C6
:1004800019F4C3E0D0E021C0C701B60124E630E092
:1004900040E050E00E94B7056115710581059105A6
:1004A00019F4C2E0D0E011C0C0E0D0E0C701B6014D
:1004B0002AE030E040E050E00E94B7056115710588
:1004C0008105910511F4C1E0D0E0882499245401FC
:1004D00023C0C701B6012AE030E040E050E00E94AE
:1004E000B705162FC701B6012AE030E040E050E022
:1004F0000E94B705C901DA016C017D01C501B40193
:100500002AE030E040E050E00E9462054B015C01CF
:10051000810E911CA11CB11CC114D104E104F10491
:10052000C1F619C0C501B4012AE030E040E050E056
:100530000E949505162FC501B4012AE030E040E085
:1005400050E00E949505C901DA014C015D01812F3F
:10055000805D0E94580181149104A104B10411F737
:1005600004C080E30E94580121972097D1F7DF91C2
:10057000CF911F91FF90EF90DF90CF90BF90AF9001
:100580009F908F90089580580E94CF0008958054C6
:100590000E94CF000895EF92FF920F931F938C015A
:1005A00064E670E00E948105462F262F30E08CE93A
:1005B0009FEF289F7001299FF00C389FF00C1124A9
:1005C000C701800F911F6AE070E00E948105162F1D
:1005D000842F805D0E945801812F805D0E94580108
:1005E000005D0E0D86EF9FEF189F602D1124862F62
:1005F000800F0E9458011F910F91FF90EF90089576
:10060000E1E0F1E080818260808380818E7F808361
:10061000E2E0F1E080818260808380818E7F808350
:10062000E1EDF0E0808188618083E2EDF0E080819F
:1006300086608083E0EDF0E08081826080838FEBD4
:1006400090E09093D5008093D4000895982F8091E6
:10065000D00085FFFCCF9093D60008958091D00004
:1006600087FFFCCF8091D60008950E9418010E9458
:1006700000038FEF84B985B95AE091E04EE132E38F
:1006800026E48091D00085FFFCCF5093D600809166
:10069000D00087FFFCCF8091D60085B1892785B92E
:1006A0008091D00085FFFCCF4093D6008091D00090
:1006B00087FFFCCF8091D60085B1892785B98091CD
:1006C000D00085FFFCCF3093D6008091D00087FF0B
:1006D000FCCF8091D60085B1892785B98091D00063
:1006E00085FFFCCF2093D6008091D00087FFFCCF00
:1006F0008091D60085B1892785B9C3CFEF92FF924B
:100700000F931F93DF93CF9300D000D0CDB7DEB708
:100710007B018C0120E030E040E050E00E94C20309
:1007200088233CF48DE20E94580117FB109517F9BD
:100730001095C801B7010E94C6030E94FA01C801C2
:10074000B701AE014F5F5F4F0E943F047B018C01F8
:100750008EE20E945801C801B70120E030E543EC69
:1007600057E40E9472040E94C6030E94FA010F908F
:100770000F900F900F90CF91DF911F910F91FF90ED
:10078000EF9008952FD008F481E0089557D088F0B5
:100790009F5790F0B92F9927B751A0F0D1F0660F6D
:1007A000771F881F991F1AF0BA95C9F712C0B13088
:1007B00081F05ED0B1E008955BC0672F782F882765
:1007C000B85F39F0B93FCCF3869577956795B395C7
:1007D000D9F73EF490958095709561957F4F8F4F36
:1007E0009F4F0895990F0008550FAA0BE0E8FEEF00
:1007F00016161706E807F907C0F012161306E407E5
:10080000F50798F0621B730B840B950B39F40A26DD
:1008100061F0232B242B252B21F408950A2609F4BB
:10082000A140A6958FEF811D811D089557FD905819
:10083000440F551F59F05F3F71F04795880F97FBA4
:10084000991F61F09F3F79F087950895121613065E
:100850001406551FF2CF4695F1DF08C0161617068D
:100860001806991FF1CF86957105610508940895C2
:10087000E894BB2766277727CB0197F90895FA01FB
:10088000DC01AA0FBB1F9B01AC01BF5728F4222734
:100890003327442750781FC0B75188F4AB2F00246A
:1008A000469537952795011CA395D2F3002069F052
:1008B000220F331F441FB395DAF30DD076C0613099
:1008C0007105A0E88A07B94630F49B01AC016627A0
:1008D000772788279078309621F0208331834283D0
:1008E000538308950BD0DDC0CED028F0D3D018F0BC
:1008F000952309F0BFC0C4C01124BBCF97DFA0F37C
:10090000959FD1F3950F50E0551F629FF001729FA4
:10091000BB27F00DB11D639FAA27F00DB11DAA1FC3
:10092000649F6627B00DA11D661F829F2227B00D10
:10093000A11D621F739FB00DA11D621F839FA00D9B
:10094000611D221F749F3327A00D611D231F849FEB
:10095000600D211D822F762F6A2F11249F57504042
:100960008AF0E1F088234AF0EE0FFF1FBB1F661FDD
:10097000771F881F91505040A9F79E3F510570F096
:1009800079C077CF5F3FECF3983EDCF3869577959F
:100990006795B795F795E7959F5FC1F7FE2B880F91
:1009A000911D9695879597F908955058BB27AA27CA
:1009B0000ED077C068D030F06DD020F031F49F3F7A
:1009C00011F41EF45DC00EF4E095E7FB53C0E92F6F
:1009D0002DDF80F3BA17620773078407950718F0B5
:1009E00071F49EF545CF0EF4E0950B2EBA2FA02D95
:1009F0000B01B90190010C01CA01A0011124FF27CC
:100A0000591B99F0593F50F4503E68F11A16F040C6
:100A1000A22F232F342F4427585FF3CF46953795C5
:100A20002795A795F0405395C9F77EF41F16BA0B8A
:100A3000620B730B840BBAF09150A1F0FF0FBB1F38
:100A4000661F771F881FC2F70EC0BA0F621F731F81
:100A5000841F48F4879577956795B795F7959E3FDE
:100A600008F0B3CF9395880F08F09927EE0F97956C
:100A70008795089597F99F6780E870E060E0089592
:100A80009FEF80EC089500240A94161617061806A6
:100A90000906089500240A94121613061406050682
:100AA0000895092E0394000C11F4882352F0BB0F13
:100AB00040F4BF2B11F460FF04C06F5F7F4F8F4F76
:100AC0009F4F0895629FD001739FF001829FE00DB8
:100AD000F11D649FE00DF11D929FF00D839FF00DBD
:100AE000749FF00D659FF00D9927729FB00DE11D69
:100AF000F91F639FB00DE11DF91FBD01CF01112446
:100B00000895AA1BBB1B51E107C0AA1FBB1FA61754
:100B1000B70710F0A61BB70B881F991F5A95A9F7A6
:100B200080959095BC01CD010895A1E21A2EAA1BD3
:100B3000BB1BFD010DC0AA1FBB1FEE1FFF1FA2178D
:100B4000B307E407F50720F0A21BB30BE40BF50B8A
:100B5000661F771F881F991F1A9469F76095709513
:100B6000809590959B01AC01BD01CF01089597FB45
:100B7000092E05260ED057FD04D0D7DF0AD0001C61
:100B800038F450954095309521953F4F4F4F5F4F2A
:100B90000895F6F790958095709561957F4F8F4FEA
:080BA0009F4F0895F894FFCF68
:0A0BA8003031323334353637383936
:00000001FF
