:1000000012C02CC02BC02AC029C028C027C026C0BF
:1000100025C024C023C022C021C020C01FC01EC0D4
:100020001DC01CC01BC011241FBECFE5D4E0DEBF25
:10003000CDBF10E0A0E6B0E0E8E6F2E002C0059037
:100040000D92AA36B107D9F710E0AAE6B0E001C0D8
:100050001D92A637B107E1F7C6D004C1D1CFC29A2D
:1000600088EC80936A0081E080936B00C2980895C9
:10007000AC0130916A0020E002C02F5F38EC822F83
:1000800090E084179507C8F330936A0020936B00C3
:10009000089520916A0090E002C09F5F28EC9230A2
:1000A000E0F320936A0090936B00C19882BBD7DF86
:1000B00008958FEF87BB81BB90916A0080E002C0FA
:1000C0008F5F98EC8F30E0F390936A0080936B0021
:1000D000C19888E3DEDF8EE0DCDF81E0DADF86E0F6
:1000E000D8DF80E8D6DF089598EC90936A0091E01D
:1000F00090936B00C19A82BBB2DF0895EF92FF929A
:100100001F93CF93DF937C01C19A10E00EC088EC5F
:1001100080936A0081E080936B00103111F480ECD1
:10012000B8DF888182BB9BDF1F5FE701C10FD11D54
:100130008881882361F7DF91CF911F91FF90EF9025
:100140000895EF92FF920F931F938C0164E670E085
:1001500075D0462F262F30E08CE99FEF289F700145
:10016000299FF00C389FF00C1124C701800F911FBC
:100170006AE070E063D0162F842F805DB5DF812F99
:10018000805DB2DF005D0E0D86EF9FEF189F602D42
:100190001124862F800FA8DF1F910F91FF90EF9001
:1001A0000895805876DF0895805473DF089586B1EE
:1001B000876886B9389A0895369A349BFECF84B101
:1001C00090E0909373008093720045B1342F20E04B
:1001D000282B392B30937500209374008DE08A957D
:1001E000F1F7C9010895FF920F931F93CF93DF9307
:1001F00014BA8FEF87BB81BB5CDF86B1876886B995
:10020000389A8DE0F82E369A349BFECF84B190E078
:10021000909373008093720025B1D22FC0E08E01BD
:10022000082B192B10937500009374008F2D8A955D
:10023000F1F780E0B6DFC80184DFE5CFAA1BBB1B66
:1002400051E107C0AA1FBB1FA617B70710F0A61BD6
:10025000B70B881F991F5A95A9F780959095BC01F7
:08026000CD010895F894FFCFD1
:0A026800303132333435363738397F
:00000001FF
