:100000000C942A000C9447000C9447000C94470071
:100010000C9447000C9447000C9447000C94470044
:100020000C9447000C9447000C9447000C94470034
:100030000C9447000C9447000C9447000C94470024
:100040000C9447000C9447000C9447000C94470014
:100050000C94470011241FBECFE5D8E0DEBFCDBF12
:1000600010E0A0E6B0E0E8EDF3E002C005900D92EC
:10007000AA36B107D9F710E0AAE6B0E001C01D9298
:10008000A237B107E1F70E9460010C94EA010C94D9
:10009000000083E084BB86E087BB11BA08952091FD
:1000A0006A0090E002C09F5F2AE09817E0F3209377
:1000B0006A0090936B0008950F931F93CF93DF9383
:1000C0008C010BC0C0E0D0E080E10E944F0021967F
:1000D000C436D105C9F7015010400115110591F73B
:1000E000DF91CF911F910F910895AF9A81E090E039
:1000F0000E945C00AF9808951F93182F81E090E054
:100100000E945C00AE9A18BB0E9475001F91089572
:10011000EF92FF920F931F93182F64E60E94B7018E
:10012000482F282F30E08CE99FEF289F7001299FEE
:10013000F00C389FF00C1124C701810F911D6AE06B
:1001400070E00E94C301062F842F805D0E947C0016
:10015000802F805D0E947C00105D1E0D86EF9FEF5A
:10016000089F002D1124802F810F0E947C001F9179
:100170000F91FF90EF9008951F93182F82E090E069
:100180000E945C00AE9818BB0E9475001F910895F4
:1001900080540E94BC00089580580E94BC000895BD
:1001A000EF92FF921F93CF93DF937C01AE9A10E002
:1001B0000EC081E090E00E945C00103119F480ECE8
:1001C0000E94BC00888188BB0E9475001F5FE70108
:1001D000C10FD11D8881882361F7DF91CF911F91D5
:1001E000FF90EF9008958FEF84BB87BB8FE090E086
:1001F0000E945C00AE9888E30E94BC008EE00E94E2
:10020000BC0080E80E94BC000895939A929820EC6C
:100210003DE50DC08AB59BB501969BBD8ABD88B5ED
:1002200099B5019699BD88BDC9010197F1F78AB5C5
:100230009BB5439778F308959398929A20EC3DE507
:100240000DC08AB59BB501969BBD8ABD88B599B591
:10025000019699BD88BDC9010197F1F78AB59BB593
:100260004A9778F30895939A929820E335E70AC065
:100270008AB59BB501969BBD8ABD19BC18BCC90146
:100280000197F1F78AB59BB5459790F30895939A36
:10029000929820E335E70AC01BBC1ABC88B599B513
:1002A000019699BD88BDC9010197F1F788B599B547
:1002B000459790F308951BBC1ABC19BC18BC08954F
:1002C000CF93DF931ABA89E886B980E287B9DB9ABF
:1002D000D49ADC988FEF81BB969A979880EA8FBD6D
:1002E00081E18EBD82E390E097BD86BDC8ECD0E091
:1002F000369A349BFECF85B1282F30E087B18F5FCF
:1003000087B9369A349BFECF85B187B18F5F87B9A5
:10031000369A349BFECF95B187B1815087B987B1AA
:10032000815087B92C3331051CF40E941C01E0CFA9
:10033000253631051CF00E940501DACF892F90E0A7
:100340008436910544F4CB9903C00E944701D0CF75
:100350000E943301CDCF1BBC1ABC19BC18BC8CED5C
:1003600095E0FE013197F1F70197D9F7C1CF991BBD
:1003700079E004C0991F961708F0961B881F7A959C
:10038000C9F78095089597FB092E07260AD077FDB7
:1003900004D00CD006D000201AF4709561957F4FE0
:1003A0000895F6F7909581959F4F0895AA1BBB1B62
:1003B00051E107C0AA1FBB1FA617B70710F0A61B65
:1003C000B70B881F991F5A95A9F780959095BC0186
:0803D000CD010895F894FFCF60
:0A03D800303132333435363738390E
:00000001FF
