S01A000041424220706172616D65746572204175746F2E73726563AB
S113000065C0000080C000007EC000007CC000000D
S11300107AC0000078C0000076C0000074C0000000
S113002072C0000070C000006EC000006CC0000010
S11300306AC0000068C0000066C0000064C0000020
S113004062C0000060C000005EC000005CC0000030
S11300505AC0000058C0000056C0000054C0000040
S113006052C0000050C000004EC000004CC0000050
S11300704AC0000048C0000046C0000044C0000060
S113008042C0000040C000003EC00000001F00004D
S113009000001F00001F101010101F00001F181870
S11300A018181F00001F1C1C1C1C1F00001F1E1EF4
S11300B01E1E1F00001F1F1F1F1F1F0003070F1FEF
S11300C00F070300181C1E1F1E1C180011241FBE3E
S11300D0CFEFD0E4DEBFCDBF11E0A0E0B1E0E0E8B7
S11300E0F7E000E00BBF02C007900D92A439B107FE
S11300F0D9F721E0A4E9B1E001C01D92AC39B207FF
S1130100E1F7C8D03BC37CCF6623E1F0782FE82F1A
S1130110F92F2FEF3FEF48E050E081912827CA01E3
S113012020FF07C036952795A1E02A27A0EA3A27A1
S113013002C036952795019799F78E2F871B86174E
S113014060F302C02FEF3FEF822F932F08952F9279
S11301503F924F925F926F927F928F929F92AF9253
S1130160BF92CF92DF92EF92FF920F931F93CF93A0
S1130170DF9300D000D0CDB7DEB78C017C836B83D6
S1130180542E66E0C1DF282E392E0F2EF9E04F2EB3
S1130190F02D0F2EFBE9AF2EF1E0BF2EF02D0F2E28
S11301A0FAE96F2EF1E07F2EF02D0F2EF6EC8F2E54
S11301B0912CF02DD8018C91C9D2F8018181C6D23D
S11301C0D80112968C91C2D2F8018381BFD2D80192
S11301D014968C91BBD2F8018581B8D2822DB6D207
S11301E0832DB4D2552001F184E991E0FC01A0EC07
S11301F0B0E02C912223DCF7D4012C9121932E2FF3
S1130200281B2515A0F3B8E05B120EC0F501F081A0
S1130210FA831982D3018C91C980DA80C82A66E0F6
S113022084E991E071DF0BC0F501F080E12CD3018A
S11302308C916701C82A66E084E991E065DF8C153A
S11302409D0519F04A9409F0B5CFB8E05B120BC0D4
S1130250209199019091980180E0820F911DEB818A
S1130260FC81918380830F900F900F900F90DF910A
S1130270CF911F910F91FF90EF90DF90CF90BF909F
S1130280AF909F908F907F906F905F904F903F9032
S11302902F900895CF93DF93CDB7DEB7CC55D10916
S11302A00FB6F894DEBF0FBECDBF2FEF80E792E00C
S11302B0215080409040E1F700C000008AE08AB9F4
S11302C08FEF8BB980937E0031D248D2BFD12CD22C
S11302D071D18FE99FE00197F1F700C0000060E061
S11302E080E083D16CE08AE591E066D18FE99FE0FC
S11302F00197F1F700C0000061E080E076D160E191
S113030087E691E059D19FEF23ED80E3915020409F
S11303108040E1F700C0000086E0E0E0F1E0DE01AB
S1130320139601900D928A95E1F786E0E6E0F1E0FC
S1130330DE01199601900D928A95E1F786E0ECE0D2
S1130340F1E0DE011F9601900D928A95E1F786E0B7
S1130350E2E1F1E0DE01559601900D928A95E1F714
S113036086E0E8E1F1E0DE015B9601900D928A956A
S1130370E1F786E0EEE1F1E0DE01919601900D9265
S11303808A95E1F786E0E4E2F1E0DE0197960190D8
S11303900D928A95E1F786E0EAE2F1E0DE019D96AE
S11303A001900D928A95E1F786E0E0E3F1E0DE0149
S11303B0D39601900D928A95E1F786E0E6E3F1E0A9
S11303C0DE01D99601900D928A95E1F786E0ECE37F
S11303D0F1E0DE01DF9601900D928A95E1F786E067
S11303E0E2E4F1E0DE01AB5BBF4F01900D928A9530
S11303F0E1F786E0E8E4F1E0DE01A55BBF4F0190A0
S11304000D928A95E1F786E0EEE4F1E0DE01AF5A61
S1130410BF4F01900D928A95E1F786E0E4E5F1E0A3
S1130420DE01A95ABF4F01900D928A95E1F78FE33F
S11304309CE90197F1F700C0000048E0BE016F5F3E
S11304407F4FCE01039683DE48E0BE016F5F7F4F8E
S1130450CE0109967CDE48E0BE016F5F7F4FCE017E
S11304600F9675DE48E0BE016F5F7F4FCE01459663
S11304706EDE48E0BE016F5F7F4FCE014B9667DEB4
S113048048E0BE016F5F7F4FCE01819660DE48E099
S1130490BE016F5F7F4FCE01879659DE48E0BE01F3
S11304A06F5F7F4FCE018D9652DE48E0BE016F5FD5
S11304B07F4FCE01C3964BDE48E0BE016F5F7F4F96
S11304C0CE01C99644DE48E0BE016F5F7F4FCE0186
S11304D0CF963DDE48E0BE016F5F7F4FCE018B5B60
S11304E09F4F35DE48E0BE016F5F7F4FCE01855BD5
S11304F09F4F2DDE48E0BE016F5F7F4FCE018F5AC4
S11305009F4F25DE48E0BE016F5F7F4FCE01895AC1
S11305109F4F1DDE8FE39CE90197F1F700C00000B7
S113052095D046D047D060E080E05FD06CE088E7AB
S113053091E042D061E080E058D06EE085E891E03F
S11305403BD09FEF23E284EF915020408040E1F7BD
S113055000C0000080E090E0C45ADF4F0FB6F8946A
S1130560DEBF0FBECDBFDF91CF91089588B95F9AEA
S11305705D9A89EF90E00197F1F700C000005D9863
S11305805F9889EF90E00197F1F700C000000895AB
S113059088B95D9A89EF90E00197F1F700C00000F7
S11305A05D9889EF90E00197F1F700C0000008958D
S11305B081E0EECF82E0ECCF0F931F93CF93DF93D4
S11305C0009771F0662361F0EC018C010F5F1F4FFF
S11305D06150060F111D8991C9DFC017D107D9F7E2
S11305E0DF91CF911F910F910895623031F0633004
S11305F031F0613029F4805C03C08C5E01C08C5AF8
S11306008068C6CFEF92FF920F931F93CF93DF932F
S11306108C01660F660F660F6894EE24E6F8E62AEE
S1130620C0E0D0E0F801EC0FFD1FF4908C2F8E0D8C
S1130630AFDF8F2D9BDF2196C830D10599F7DF916D
S1130640CF911F910F91FF90EF9008951F93CF9337
S1130650DF9385EA9EE00197F1F700C0000018B827
S11306601BB887B18FEF87B98AB1806E8AB980E3EE
S113067088B95D9AE9EFF0E03197F1F700C0000026
S11306805D98E9EFF0E03197F1F700C0000088B918
S11306905D9AE9EFF0E03197F1F700C000005D9852
S11306A0E9EFF0E03197F1F700C0000088B95D9AF6
S11306B089EF90E00197F1F700C000005D98E9EF41
S11306C0F0E03197F1F700C0000088E388B95D9A43
S11306D089EF90E00197F1F700C000005D98E9EF21
S11306E0F0E03197F1F700C000008CE088B95D9A22
S11306F089EF90E00197F1F700C000005D98E1EE0A
S1130700F4E03197F1F700C00000CCE8D0E060E0FD
S1130710162F1F5FCE0176DF2896612F1830C1F7A0
S1130720DF91CF911F9108958CE032CF1092C500D4
S113073083E38093C4001092C000E1ECF0E01082E7
S113074086E88093C20088E180830895E0ECF0E0BD
S1130750908195FFFDCF8093C60008951092CD003F
S113076083E38093CC001092C800E9ECF0E010829F
S113077086E88093CA0088E180830895F894FFCFC7
S1130780010606400007010606430008010607D2D9
S113079000E101060898000001060899000A010614
S11307A0089A00000106089B000001061774032044
S11307B0010626B000E6010626B10069010626B34B
S11307C00AF0010626B4001701060A2C00010106EE
S11307D006420166010606410000202020496E738E
S11307E0657274696E670020202020506172616D0B
S11307F065746572732E2E002020506172616D65E0
S113080074657273002020557064617465642E2EC3
S10708102E2E2E0056
S9030000FC
