:100000000C9472000C948F000C948F000C948F0051
:100010000C948F000C948F000C948F000C948F0024
:100020000C948F000C948F000C948F000C948F0014
:100030000C948F000C948F000C948F000C948F0004
:100040000C948F000C948F000C948F000C948F00F4
:100050000C948F000C948F000C948F000C948F00E4
:100060000C948F000C948F000C948F000C948F00D4
:100070000C948F000C948F000C948F000C948F00C4
:100080000C948F000C948F000C948F000C948F00B4
:100090000C948F000C948F000C948F000C948F00A4
:1000A0000C948F000C948F000C948F000C948F0094
:1000B0000C948F000C948F000C948F000C948F0084
:1000C0000C948F000C948F000C948F000C948F0074
:1000D0000C948F000C948F000C948F000C948F0064
:1000E0000C948F0011241FBECFEFD1E2DEBFCDBF35
:1000F00012E0A0E0B2E0E6E8FCE002C005900D925C
:10010000AA30B107D9F712E0AAE0B2E001C01D920F
:10011000A132B107E1F70E94FE030C9441060C9452
:100120000000709A83E397E00197F1F770980895C3
:1001300020910A0290E002C09F5F2AE09817E0F346
:1001400020930A0290930B02089580910C0282B9C9
:1001500008950AC020E030E000002F5F3F4F4CE0E0
:100160002C3C3407C9F701970097A1F708951F9316
:10017000182F8FE090E00E94A900A59A7098212F77
:1001800030E0C901807C90708EB98EB116951695BD
:1001900016951670812B8EB968E1862F8A95F1F736
:1001A000709A43E357E0CA010197F1F77098A59858
:1001B0007098A59AC90174E0880F991F7A95E1F7A4
:1001C000807C90708EB98EB1220F331F26703070F4
:1001D000822B8EB96A95F1F7709ACA010197F1F7EF
:1001E00070981F910895EF92FF920F931F938C01C7
:1001F00064E670E00E940B06462F262F30E08CE963
:100200009FEF289F7001299FF00C389FF00C11245C
:10021000C701800F911F6AE070E00E940B06162F45
:10022000842F805D0E94B700812F805D0E94B700FF
:10023000005D0E0D86EF9FEF189F602D1124862F15
:10024000800F0E94B7001F910F91FF90EF900895CB
:100250008F929F92AF92BF92CF92DF92EF92FF92D6
:100260001F93CF93DF934B015C0120EA36E841E016
:1002700050E00E941F06611571058105910519F472
:10028000C5E0D0E041C0C501B40120E137E240E063
:1002900050E00E941F06611571058105910519F452
:1002A000C4E0D0E031C0C501B40128EE33E040E045
:1002B00050E00E941F06611571058105910519F432
:1002C000C3E0D0E021C0C501B40124E630E040E045
:1002D00050E00E941F06611571058105910519F412
:1002E000C2E0D0E011C0C0E0D0E0C501B4012AE016
:1002F00030E040E050E00E941F0661157105810565
:10030000910511F4C1E0D0E0CC24DD24760123C0B6
:10031000C501B4012AE030E040E050E00E941F0631
:10032000162FC501B4012AE030E040E050E00E9401
:100330001F06C901DA014C015D01C701B6012AE0BF
:1003400030E040E050E00E94EC056B017C01C10E02
:10035000D11CE11CF11C81149104A104B104C1F66B
:1003600019C0C701B6012AE030E040E050E00E9429
:100370001F06162FC701B6012AE030E040E050E02A
:100380000E941F06C901DA016C017D01812F805D89
:100390000E94B700C114D104E104F10411F704C0B4
:1003A00080E30E94B70021972097D1F7DF91CF918A
:1003B0001F91FF90EF90DF90CF90BF90AF909F90F4
:1003C0008F900895A5987098482F50E09A01207C4E
:1003D00030702EB99EB18695869586958670982B3D
:1003E0009EB968E1862F8A95F1F7709A23E337E08A
:1003F000C9010197F1F77098A59AA5987098CA015C
:10040000F4E0880F991FFA95E1F7807C90708EB91F
:100410008EB1440F551F46705070842B8EB96A956B
:10042000F1F7709AC9010197F1F770981EB88AE048
:1004300090E00E94A900089580540E94E20108956E
:1004400080580E94E2010895CF92DF92EF92FF92CE
:100450001F93CF93DF937C0181E082B9A59A7098B6
:1004600010E063E3C62E67E0D62E3AC0103119F4CF
:1004700080EC0E94E201A59A7098288130E0C901C1
:10048000807C90708EB94EB1C90153E095958795E7
:100490005A95E1F786709070482B4EB9709AC60154
:1004A0000197F1F77098A598A59A7098C901B4E0E2
:1004B000880F991FBA95E1F7807C90708EB98EB144
:1004C000220F331F26703070822B8EB9709AC601AE
:1004D0000197F1F770981F5F81E090E00E94A900FA
:1004E000E701C10FD11D8881882309F0BFCFDF91BB
:1004F000CF911F91FF90EF90DF90CF9008958FEFF5
:100500008DB983BB8FE090E00E94A900A5987098F8
:100510001EB880E20E94E20181E090E00E94A90002
:1005200080E20E94E20181E090E00E94A90080E266
:100530000E94E20181E090E00E94A90088E20E940E
:10054000E20181E090E00E94A9008EE00E94E201B9
:1005500081E090E00E94A90081E00E94E20181E038
:1005600090E00E94A90086E00E94E20181E090E014
:100570000E94A9000895BC0184E08A95F1F720E06B
:1005800030E040E050E0A4E0E1E0F0E0CB01022EFA
:1005900002C0959587950A94E2F780FF02C05B9AA6
:1005A00001C05B9858988A2F8A95F1F7499B09C03A
:1005B000CF01022E02C0880F991F0A94E2F7482B40
:1005C000592B589A2F5F3F4F28303105F9F65B9A27
:1005D00082E68A95F1F7CA010895EF92FF920F9390
:1005E0001F935B9A589A5C9881E090E00E94BB024E
:1005F00083E490E00E94BB0280E090E00E94BB0296
:1006000081E090E00E94BB0280E090E00E94BB028B
:100610005B9A76E6E72E7EE0F72EC7010197F1F7A9
:100620005C9A00E010E9C8010197F1F75B9A589ACB
:100630005C9881E090E00E94BB0284E490E00E941C
:10064000BB0280E090E00E94BB0281E090E00E944B
:10065000BB0283E090E00E94BB0280E090E00E9439
:10066000BB0280E090E00E94BB0280E090E00E942C
:10067000BB0280E090E00E94BB025B9AC701019739
:10068000F1F75C9AC8010197F1F75B9A589A5C9868
:1006900081E090E00E94BB0283E490E00E94BB02F4
:1006A00080E090E00E94BB0280E090E00E94BB02EC
:1006B0008AE590E00E94BB028AE590E00E94BB02BE
:1006C0008AE590E00E94BB028AE590E00E94BB02AE
:1006D0008AE590E00E94BB025B9AC7010197F1F79F
:1006E0005C9AC8010197F1F75B9A589A5C9881E08F
:1006F00090E00E94BB0282E490E00E94BB028093E3
:10070000120280E090E00E94BB0280E090E00E9434
:10071000BB0280E090E00E94BB0280E090E00E947B
:10072000BB0280E090E00E94BB0280E090E00E946B
:10073000BB0280E090E00E94BB025B9AC701019778
:10074000F1F75C9AC8010197F1F71F910F91FF90A3
:10075000EF900895509A5198599A52985A9A539AEC
:10076000549A08955B9A589A5C9881E090E00E94B0
:10077000BB0282E490E00E94BB029093200280932F
:100780001F0280E090E00E94BB0280E090E00E94A7
:10079000BB02909314028093130280E090E00E94C9
:1007A000BB02909316028093150280E090E00E94B5
:1007B000BB02909318028093170280E090E00E94A1
:1007C000BB0290931A028093190280E090E00E948D
:1007D000BB0290931C0280931B0280E090E00E9479
:1007E000BB0290931E0280931D0284E0982F9A957D
:1007F000F1F75B9A8A95F1F75C9A08950E947F025F
:100800000E94AA030E94ED020E94ED020E94ED02E6
:100810000E94B20380E00E941C028091130290911A
:1008200014020E94F30088E00E941C0280911502CD
:10083000909116020E94F30080E00E9420028091B5
:100840001702909118020E94F30084E00E94200297
:100850008091190290911A020E94F30089E00E948F
:10086000200280911B0290911C020E94F3008DE0F7
:100870000E94200280911D0290911E020E94F300AE
:10088000C7CFEF92FF920F931F93DF93CF9300D0C8
:1008900000D0CDB7DEB77B018C010E9474040E94AA
:1008A0002801C801B701AE014F5F5F4F0E94C90424
:1008B0007B018C018EE20E94B700C801B70120E0E5
:1008C00030E543EC57E40E94FC040E9474040E944B
:1008D00028010F900F900F900F90CF91DF911F91F3
:1008E0000F91FF90EF90089533D088F09F5790F0CC
:1008F000B92F9927B751A0F0D1F0660F771F881F45
:10090000991F1AF0BA95C9F712C0B13081F03AD0E8
:10091000B1E0089537C0672F782F8827B85F39F086
:10092000B93FCCF3869577956795B395D9F73EF4A3
:1009300090958095709561957F4F8F4F9F4F08954B
:1009400057FD9058440F551F59F05F3F71F0479580
:10095000880F97FB991F61F09F3F79F08795089565
:10096000121613061406551FF2CF4695F1DF08C084
:10097000161617061806991FF1CF869571056105A1
:1009800008940895E894BB2766277727CB0197F949
:100990000895FA01DC01AA0FBB1F9B01AC01BF57F0
:1009A00028F422273327442750781FC0B75188F4F2
:1009B000AB2F0024469537952795011CA395D2F3BC
:1009C000002069F0220F331F441FB395DAF30DD0D6
:1009D00076C061307105A0E88A07B94630F49B0102
:1009E000AC016627772788279078309621F02083FE
:1009F00031834283538308950BD0DDC0CED028F0DD
:100A0000D3D018F0952309F0BFC0C4C01124BBCFC8
:100A100097DFA0F3959FD1F3950F50E0551F629F8C
:100A2000F001729FBB27F00DB11D639FAA27F00D47
:100A3000B11DAA1F649F6627B00DA11D661F829F6E
:100A40002227B00DA11D621F739FB00DA11D621F53
:100A5000839FA00D611D221F749F3327A00D611D70
:100A6000231F849F600D211D822F762F6A2F112452
:100A70009F5750408AF0E1F088234AF0EE0FFF1FA5
:100A8000BB1F661F771F881F91505040A9F79E3FDC
:100A9000510570F079C077CF5F3FECF3983EDCF3FF
:100AA000869577956795B795F795E7959F5FC1F719
:100AB000FE2B880F911D9695879597F908955058AC
:100AC000BB27AA270ED077C068D030F06DD020F0B9
:100AD00031F49F3F11F41EF45DC00EF4E095E7FB86
:100AE00053C0E92F2DDF80F3BA176207730784071D
:100AF000950718F071F49EF545CF0EF4E0950B2E96
:100B0000BA2FA02D0B01B90190010C01CA01A0015F
:100B10001124FF27591B99F0593F50F4503E68F1BA
:100B20001A16F040A22F232F342F4427585FF3CFFB
:100B3000469537952795A795F0405395C9F77EF4CC
:100B40001F16BA0B620B730B840BBAF09150A1F015
:100B5000FF0FBB1F661F771F881FC2F70EC0BA0F9B
:100B6000621F731F841F48F4879577956795B79523
:100B7000F7959E3F08F0B3CF9395880F08F099271B
:100B8000EE0F97958795089597F99F6780E870E035
:100B900060E008959FEF80EC089500240A941616F3
:100BA000170618060906089500240A94121613065B
:100BB000140605060895092E0394000C11F48823E9
:100BC00052F0BB0F40F4BF2B11F460FF04C06F5F05
:100BD0007F4F8F4F9F4F0895629FD001739FF00109
:100BE000829FE00DF11D649FE00DF11D929FF00DBD
:100BF000839FF00D749FF00D659FF00D9927729FF4
:100C0000B00DE11DF91F639FB00DE11DF91FBD017E
:100C1000CF0111240895AA1BBB1B51E107C0AA1FD5
:100C2000BB1FA617B70710F0A61BB70B881F991F8D
:100C30005A95A9F780959095BC01CD010895A1E240
:100C40001A2EAA1BBB1BFD010DC0AA1FBB1FEE1F46
:100C5000FF1FA217B307E407F50720F0A21BB30B91
:100C6000E40BF50B661F771F881F991F1A9469F70D
:100C700060957095809590959B01AC01BD01CF0169
:060C80000895F894FFCF77
:0A0C86003031323334353637383957
:00000001FF
