:100000000C948E000C94AB000C94AB000C94AB00E1
:100010000C94AB000C94AB000C94AB000C94AB00B4
:100020000C94AB000C94AB000C94AB000C94AB00A4
:100030000C94AB000C94AB000C94AB000C94AB0094
:100040000C94AB000C94AB000C94AB000C94AB0084
:100050000C94AB000C94AB000C94AB000C94AB0074
:100060000C94AB000C94AB000C94AB000C94AB0064
:100070000C94AB000C94AB000C94AB000C94AB0054
:100080000C94AB000C94AB000C94AB000C94AB0044
:100090000C94AB000C94AB000C94AB000C94AB0034
:1000A0000C94AB000C94AB000C94AB000C94AB0024
:1000B0000C94AB000C94AB000C94AB000C94AB0014
:1000C0000C94AB000C94AB000C94AB000C94AB0004
:1000D0000C94AB000C94AB000C94AB000C94AB00F4
:1000E0000C94AB00BD00BF00C100C300C500C70039
:1000F000C900CB00CD00D800DA00DC00DE00E00053
:10010000E200E400E600E800ED10F710FA10FD1040
:1001100000110B1115111F1129112C1111241FBED3
:10012000CFEFD1E2DEBFCDBF22E0A4E0B2E001C05C
:100130001D92A630B207E1F712E0A0E0B2E0EEE5D2
:10014000F4E202C005900D92A430B107D9F70E94E5
:10015000CF100C942D120C9400008FEF8AB987B940
:100160008BB982E088B90895019789309105B0F480
:100170008E589F4FFC010C9452115F9A0895419A3A
:1001800008955E9A0895589A08955A9A08955C9A27
:1001900008955D9A08955B9A0895599A0895019774
:1001A00089309105B0F485589F4FFC010C94521191
:1001B0005F980895419808955E9808955898089515
:1001C0005A9808955C9808955D9808955B980895ED
:1001D000599808958130910551F08230910561F070
:1001E000892B71F44098CB010E94B4000895429885
:1001F000CB010E94B40008954498CB010E94B40042
:1002000008950F931F93CF93DF93EC018B018130FF
:10021000910561F08230910581F00097A1F4409A38
:1002200042984498CB010E94CF000DC04098429A5A
:100230004498CB010E94CF0006C040984298449A4F
:10024000CB010E94CF0085E89BE00197F1F7B80150
:10025000CE010E94EA00DF91CF911F910F91089586
:100260000F931F93CF93DF938C01C1E0D0E0BE01C9
:10027000C8010E9401012196CA30D105C1F7DF9162
:10028000CF911F910F910895AF92BF92CF92DF92BD
:10029000EF92FF920F931F93CF93DF93E12CF12CFA
:1002A000AA24A394B12C0F2EF6E9CF2EF02DD12C39
:1002B00016C0B801C7010E94010121972097C9F714
:1002C0000F5F1F4F0A30110519F0CC2DDD2DF1CF36
:1002D0008FEFE81AF80A83E0E816F10419F00A2D06
:1002E0001B2DF3CFDF91CF911F910F91FF90EF90D6
:1002F000DF90CF90BF90AF900895CF93DF93CFE082
:10030000D0E081E090E00E94300121972097C9F76A
:10031000CFE0D0E061E070E080E090E00E94010179
:1003200062E070E080E090E00E94010163E070E034
:1003300080E090E00E94010164E070E081E090E0E4
:100340000E94010165E070E081E090E00E940101FF
:1003500066E070E081E090E00E94010167E070E0FB
:1003600082E090E00E94010168E070E082E090E0AD
:100370000E94010169E070E082E090E00E940101CA
:100380002197209739F6CFE0D0E064E070E080E07C
:1003900090E00E94010165E070E080E090E00E9442
:1003A000010166E070E080E090E00E94010164E0FD
:1003B00070E081E090E00E94010165E070E081E082
:1003C00090E00E94010166E070E081E090E00E9410
:1003D000010164E070E082E090E00E94010165E0CC
:1003E00070E082E090E00E94010166E070E082E04F
:1003F00090E00E9401012197209739F6CFE0D0E0EC
:1004000067E070E080E090E00E94010168E070E049
:1004100080E090E00E94010169E070E080E090E0FF
:100420000E94010164E070E081E090E00E9401011F
:1004300065E070E081E090E00E94010166E070E01C
:1004400081E090E00E94010161E070E082E090E0D4
:100450000E94010162E070E082E090E00E940101F0
:1004600063E070E082E090E00E9401012197209714
:1004700039F6DF91CF9108950F931F93CF93DF93B8
:10048000109205021092040280E090E00E94300178
:100490008091040290910502019690930502809349
:1004A00004020F978CF3109205021092040281E06F
:1004B00090E00E9430018091040290910502019623
:1004C00090930502809304020F978CF3109205021B
:1004D00010920402C4E6D0E082E090E00E94300175
:1004E00021972097C9F780910402909105020F97F8
:1004F0000CF022C400E010E069E070E081E090E0E0
:100500000E940101C02FD12FBE0182E090E00E9425
:1005100001012196C930D105B9F78091040290916B
:100520000502019690930502809304020F9724F32D
:10053000109205021092040203C4BE0182E090E012
:100540000E9401012196C930D105B9F769E070E038
:10055000802F912F0E940101209104023091050209
:100560002F5F3F4F30930502209304022F30310557
:100570001CF4C02FD12FE1CF10920502109204027B
:1005800069E070E080E090E00E94010168E070E0C6
:1005900081E090E00E940101C0E0D0E0BE0182E075
:1005A00090E00E9401012196C830D105B9F78091F1
:1005B0000402909105020196909305028093040233
:1005C0000F97F4F2109205021092040200E010E07E
:1005D00022C0BE0182E090E00E9401012196C83055
:1005E000D105B9F769E070E0802F912F0E940101D9
:1005F00068E070E0802F912F0E9401012091040299
:10060000309105022F5F3F4F309305022093040283
:100610002F3031051CF4C02FD12FDBCF10920502F3
:100620001092040267E070E081E090E00E94010116
:1006300069E070E080E090E00E94010168E070E015
:1006400080E090E00E940101C0E0D0E0BE0182E0C5
:1006500090E00E9401012196C730D105B9F7809141
:100660000402909105020196909305028093040282
:100670000F97C4F2109205021092040200E010E0FD
:1006800028C0BE0182E090E00E9401012196C7309F
:10069000D105B9F769E070E0802F912F0E94010128
:1006A00068E070E0802F912F0E94010167E070E008
:1006B000802F912F0E9401012091040230910502A8
:1006C0002F5F3F4F30930502209304022F303105F6
:1006D0001CF4C02FD12FD5CF109205021092040226
:1006E00066E070E081E090E00E94010169E070E066
:1006F00080E090E00E94010168E070E080E090E01E
:100700000E94010167E070E080E090E00E9401013A
:10071000C0E0D0E0BE0182E090E00E94010121969D
:10072000C630D105B9F78091040290910502019677
:1007300090930502809304020F9794F210920502A1
:100740001092040200E010E02EC0BE0182E090E0B2
:100750000E9401012196C630D105B9F769E070E029
:10076000802F912F0E94010168E070E0802F912F6F
:100770000E94010167E070E0802F912F0E9401012B
:1007800066E070E0802F912F0E9401012091040209
:10079000309105022F5F3F4F3093050220930402F2
:1007A0002F3031051CF4C02FD12FCFCF109205026E
:1007B0001092040265E070E081E090E00E94010187
:1007C00069E070E080E090E00E94010168E070E084
:1007D00080E090E00E94010167E070E080E090E03E
:1007E0000E94010166E070E080E090E00E9401015B
:1007F000C0E0D0E0BE0182E090E00E9401012196BD
:10080000C530D105B9F78091040290910502019697
:1008100090930502809304020F9764F210920502F0
:100820001092040200E010E034C0BE0182E090E0CB
:100830000E9401012196C530D105B9F769E070E049
:10084000802F912F0E94010168E070E0802F912F8E
:100850000E94010167E070E0802F912F0E9401014A
:1008600066E070E0802F912F0E94010165E070E04A
:10087000802F912F0E9401012091040230910502E6
:100880002F5F3F4F30930502209304022F30310534
:100890001CF4C02FD12FC9CF109205021092040270
:1008A00064E070E081E090E00E94010169E070E0A6
:1008B00080E090E00E94010168E070E080E090E05C
:1008C0000E94010167E070E080E090E00E94010179
:1008D00066E070E080E090E00E94010165E070E079
:1008E00080E090E00E940101C0E0D0E0BE0182E023
:1008F00090E00E9401012196C430D105B9F78091A2
:1009000004029091050201969093050280930402DF
:100910000F9734F2109205021092040200E010E0EA
:100920003AC0BE0182E090E00E9401012196C430ED
:10093000D105B9F769E070E0802F912F0E94010185
:1009400068E070E0802F912F0E94010167E070E065
:10095000802F912F0E94010166E070E0802F912F7F
:100960000E94010165E070E0802F912F0E9401013B
:1009700064E070E0802F912F0E9401012091040219
:10098000309105022F5F3F4F309305022093040200
:100990002F3031051CF4C02FD12FC3CF1092050288
:1009A0001092040263E070E081E090E00E94010197
:1009B00069E070E080E090E00E94010168E070E092
:1009C00080E090E00E94010167E070E080E090E04C
:1009D0000E94010166E070E080E090E00E94010169
:1009E00065E070E080E090E00E94010164E070E06A
:1009F00080E090E00E94010160E070E082E090E021
:100A00000E94010161E070E082E090E00E9401013B
:100A100062E070E082E090E00E94010180910402B7
:100A200090910502019690930502809304020F971E
:100A30000CF4B8CF109205021092040260E070E04E
:100A400082E090E00E94010161E070E082E090E0CD
:100A50000E94010162E070E082E090E00E940101EA
:100A600069E070E080E090E00E94010168E070E0E1
:100A700080E090E00E94010167E070E080E090E09B
:100A80000E94010166E070E080E090E00E940101B8
:100A900065E070E080E090E00E94010164E070E0B9
:100AA00080E090E00E94010163E070E080E090E06F
:100AB0000E94010180910402909105020196909399
:100AC0000502809304020F970CF4B8CF1092050230
:100AD0001092040262E070E081E090E00E94010167
:100AE00069E070E080E090E00E94010168E070E061
:100AF00080E090E00E94010167E070E080E090E01B
:100B00000E94010166E070E080E090E00E94010137
:100B100065E070E080E090E00E94010164E070E038
:100B200080E090E00E94010163E070E080E090E0EE
:100B30000E94010160E070E082E090E00E9401010B
:100B400061E070E082E090E00E9401018091040287
:100B500090910502019690930502809304020F97ED
:100B60000CF4B8CF109205021092040260E070E01D
:100B700082E090E00E94010161E070E082E090E09C
:100B80000E94010169E070E080E090E00E940101B4
:100B900068E070E080E090E00E94010167E070E0B2
:100BA00080E090E00E94010166E070E080E090E06B
:100BB0000E94010165E070E080E090E00E94010188
:100BC00064E070E080E090E00E94010163E070E08A
:100BD00080E090E00E94010162E070E080E090E03F
:100BE0000E94010180910402909105020196909368
:100BF0000502809304020F970CF4B8CF10920502FF
:100C00001092040261E070E081E090E00E94010136
:100C100069E070E080E090E00E94010168E070E02F
:100C200080E090E00E94010167E070E080E090E0E9
:100C30000E94010166E070E080E090E00E94010106
:100C400065E070E080E090E00E94010164E070E007
:100C500080E090E00E94010163E070E080E090E0BD
:100C60000E94010162E070E080E090E00E940101DA
:100C700060E070E082E090E00E9401018091040257
:100C800090910502019690930502809304020F97BC
:100C90000CF4B8CF109205021092040260E070E0EC
:100CA00082E090E00E94010169E070E080E090E065
:100CB0000E94010168E070E080E090E00E94010184
:100CC00067E070E080E090E00E94010166E070E083
:100CD00080E090E00E94010165E070E080E090E03B
:100CE0000E94010164E070E080E090E00E94010158
:100CF00063E070E080E090E00E94010162E070E05B
:100D000080E090E00E94010161E070E080E090E00E
:100D10000E94010180910402909105020196909336
:100D2000050280930402863991050CF4B7CF109226
:100D300005021092040207C01092050210920402EC
:100D400000E010E016CCDF91CF911F910F91089534
:100D50008F929F92AF92BF92CF92DF92EF92FF92CB
:100D60000F931F93CF93DF9310920502109204020A
:100D700005E010E0E12CF12C44C0CE010E943001CE
:100D800020910402309105022F5F3F4F30930502FE
:100D9000209304022A30310584F3E0920402F09299
:100DA00005022196C330D10539F08091040290915B
:100DB00005020A9714F3F1CF81E090E00E94300120
:100DC0008091040290910502019690930502809310
:100DD00004020A978CF3E0920402F092050201509B
:100DE00011090115110569F40F2EF5E0EF2EF12C14
:100DF000F02D812C912CC82CD92CAA24A394B12C91
:100E00009DC0CE2DDF2DD1CFBE01C8010E940101B2
:100E10002196C530D105C1F70F5F1F4F0330110573
:100E200019F0CA2DDB2DF0CF8091040290910502BC
:100E3000019690930502809304020A971CF40C2DEE
:100E40001D2DEFCF80920402909205021EC064E037
:100E500070E0CE010E94010165E070E0CE010E94C9
:100E6000010166E070E0CE010E9401012196C330CD
:100E7000D10569F780910402909105020196909343
:100E80000502809304020A971CF4CC2DDD2DDFCFE0
:100E900080920402909205021EC067E070E0CE01CD
:100EA0000E94010168E070E0CE010E94010169E04A
:100EB00070E0CE010E9401012196C330D10569F78F
:100EC000809104029091050201969093050280930F
:100ED00004020A971CF4CC2DDD2DDFCF8092040292
:100EE000909205021EC064E070E0CE010E940101F4
:100EF00065E070E0CE010E94010166E070E0CE0185
:100F00000E9401012196C330D10569F78091040246
:100F100090910502019690930502809304020A972E
:100F20001CF4CC2DDD2DDFCF8092040290920502BF
:100F300081E0E81AF108E114F10461F08091040203
:100F4000909105020A970CF47ACF80920402909255
:100F500005029BCFDF91CF911F910F91FF90EF90F2
:100F6000DF90CF90BF90AF909F908F9008956F9239
:100F70007F928F929F92AF92BF92CF92DF92EF9229
:100F8000FF920F931F93CF93DF930F2EF7ECEF2E6B
:100F9000F12CF02D0F2EF3E0AF2EB12CF02D0F2EF3
:100FA000FAE0CF2ED12CF02D0F2EFEE16F2EF02D7A
:100FB000712C0E94BA11B5010E943E118C010E9451
:100FC000BA11B6010E943E11EC01862C972CBE018D
:100FD000C8010E94010181E0881A910881149104DE
:100FE000B1F781E0E81AF108E114F10411F7DF919B
:100FF000CF911F910F91FF90EF90DF90CF90BF9016
:10100000AF909F908F907F906F90089510920502FF
:101010001092040269E070E082E090E00E94010119
:1010200080910402909105020196909305028093AD
:1010300004028837910574F310920502109204029D
:1010400069E070E082E090E00E94010165E070E0FC
:1010500082E090E00E94010166E070E082E090E0B2
:101060000E94010168E070E082E090E00E940101CE
:1010700069E070E081E090E00E94010165E070E0CD
:1010800081E090E00E94010166E070E081E090E084
:101090000E94010168E070E081E090E00E9401019F
:1010A000809104029091050201969093050280932D
:1010B000040244972CF2109205021092040280E080
:1010C00090E00E94300181E090E00E94300182E0D7
:1010D00090E00E94300180910402909105020196F7
:1010E000909305028093040205974CF31092050239
:1010F0001092040261E070E080E090E00E94010143
:1011000065E070E080E090E00E94010162E070E044
:1011100080E090E00E94010164E070E080E090E0F7
:101120000E94010161E070E081E090E00E94010115
:1011300065E070E081E090E00E94010162E070E013
:1011400081E090E00E94010164E070E081E090E0C5
:101150000E940101809104029091050201969093F2
:1011600005028093040244972CF21092050210921B
:10117000040261E070E080E090E00E940101809153
:101180000402909105020196909305028093040257
:101190008837910574F3109205021092040261E001
:1011A00070E080E090E00E94010165E070E080E086
:1011B00090E00E94010162E070E080E090E00E9417
:1011C000010164E070E080E090E00E94010161E0D4
:1011D00070E081E090E00E94010165E070E081E054
:1011E00090E00E94010162E070E081E090E00E94E6
:1011F000010164E070E081E090E00E9401018091D3
:1012000004029091050201969093050280930402D6
:1012100044972CF2109205021092040280E090E0B4
:101220000E94300181E090E00E94300182E090E075
:101230000E943001809104029091050201969093E2
:1012400005028093040205974CF310920502109258
:10125000040269E070E082E090E00E94010165E034
:1012600070E082E090E00E94010166E070E082E0C0
:1012700090E00E94010168E070E082E090E00E944E
:10128000010169E070E081E090E00E94010165E009
:1012900070E081E090E00E94010166E070E081E092
:1012A00090E00E94010168E070E081E090E00E941F
:1012B000010180910402909105020196909305022C
:1012C0008093040244972CF208954F925F926F929C
:1012D0007F928F929F92AF92BF92CF92DF92EF92C6
:1012E000FF920F931F93CF93DF93CDB7DEB7C85C08
:1012F000D1090FB6F894DEBF0FBECDBF0E94BA1160
:1013000063E070E00E943E119A8389830E94BA11C3
:101310006AE070E00E943E119E012B593F4FF90197
:10132000819391936F014E01F3E08F0E911CA12CDC
:10133000B12C0F2EF3E06F2E712CF02D0F2EFAE052
:101340004F2E512CF02D2BC00E94BA11B3010E94D8
:101350003E11F401819391934F010E94BA11B201A1
:101360000E943E11F601918380831A141B04A4F499
:101370008E010B591F4F9E012F5F3F4F7901F801DE
:10138000619171918F01F701819191917F010E948B
:1013900001010C151D0599F7F2E0CF0ED11C2FEFBE
:1013A000A21AB20A3EE1A316B10471F6C853DF4F88
:1013B0000FB6F894DEBF0FBECDBFDF91CF911F9166
:1013C0000F91FF90EF90DF90CF90BF90AF909F90E4
:1013D0008F907F906F905F904F9008950F931F9321
:1013E000CF93DF930E94BA1169E070E00E943E1132
:1013F000EC01219602E010E0109205021092040226
:10140000BE01C8010E940101209104023091050231
:101410002F5F3F4F30930502209304022639310598
:101420007CF30150110940F710920502109204025A
:10143000BE0181E090E00E94010180910402909140
:101440000502019690930502809304028639910566
:101450007CF31092050210920402BE0182E090E03B
:101460000E940101809104029091050201969093DF
:10147000050280930402863991057CF3DF91CF91B8
:101480001F910F910895109205021092040264E0DA
:1014900070E082E090E00E94010165E070E082E08F
:1014A00090E00E94010166E070E082E090E00E941E
:1014B000010164E070E081E090E00E94010165E0DC
:1014C00070E081E090E00E94010166E070E081E060
:1014D00090E00E94010164E070E080E090E00E94F2
:1014E000010165E070E080E090E00E94010166E0AB
:1014F00070E080E090E00E940101809104029091F0
:101500000502019690930502809304020F970CF454
:10151000BECF109205021092040263E070E082E0F8
:1015200090E00E94010165E070E082E090E00E949E
:10153000010167E070E082E090E00E94010163E059
:1015400070E081E090E00E94010165E070E081E0E0
:1015500090E00E94010167E070E081E090E00E946D
:10156000010163E070E080E090E00E94010165E02D
:1015700070E080E090E00E94010167E070E080E0B0
:1015800090E00E9401018091040290910502019671
:1015900090930502809304020F970CF4BECF109233
:1015A00005021092040262E070E082E090E00E9486
:1015B000010165E070E082E090E00E94010168E0D6
:1015C00070E082E090E00E94010162E070E081E062
:1015D00090E00E94010165E070E081E090E00E94EF
:1015E000010168E070E081E090E00E94010162E0AA
:1015F00070E080E090E00E94010165E070E080E032
:1016000090E00E94010168E070E080E090E00E94BC
:1016100001018091040290910502019690930502C8
:10162000809304020F970CF4BECF10920502109223
:10163000040261E070E082E090E00E94010165E058
:1016400070E082E090E00E94010169E070E082E0D9
:1016500090E00E94010161E070E081E090E00E9472
:10166000010165E070E081E090E00E94010169E025
:1016700070E081E090E00E94010161E070E080E0B4
:1016800090E00E94010165E070E080E090E00E943F
:10169000010169E070E080E090E00E94010180912A
:1016A0000402909105020196909305028093040232
:1016B0000F970CF4BECF0895CF93DF93C3E0D0E033
:1016C000109205021092040267E070E082E090E060
:1016D0000E94010168E070E082E090E00E94010158
:1016E00069E070E082E090E00E94010167E070E054
:1016F00081E090E00E94010168E070E081E090E00C
:101700000E94010169E070E081E090E00E94010127
:1017100067E070E080E090E00E94010168E070E026
:1017200080E090E00E94010169E070E080E090E0DC
:101730000E9401018091040290910502019690930C
:101740000502809304024E970CF4BECF109205025E
:101750001092040267E070E082E090E00E940101D4
:1017600068E070E082E090E00E94010165E070E0D6
:1017700082E090E00E94010166E070E082E090E08B
:101780000E94010167E070E081E090E00E940101A9
:1017900068E070E081E090E00E94010165E070E0A7
:1017A00081E090E00E94010166E070E081E090E05D
:1017B0000E94010167E070E080E090E00E9401017A
:1017C00068E070E080E090E00E94010165E070E078
:1017D00080E090E00E94010166E070E080E090E02F
:1017E0000E9401018091040290910502019690935C
:1017F00005028093040205970CF4ACCF1092050209
:101800001092040267E070E082E090E00E94010123
:1018100065E070E082E090E00E94010163E070E02A
:1018200082E090E00E94010167E070E081E090E0DA
:101830000E94010165E070E081E090E00E940101FA
:1018400063E070E081E090E00E94010167E070E0F9
:1018500080E090E00E94010165E070E080E090E0AF
:101860000E94010163E070E080E090E00E940101CD
:101870008091040290910502019690930502809355
:10188000040205970CF4BECF1092050210920402D8
:1018900067E070E082E090E00E94010164E070E0A7
:1018A00082E090E00E94010165E070E082E090E05B
:1018B0000E94010162E070E082E090E00E9401017C
:1018C00067E070E081E090E00E94010164E070E078
:1018D00081E090E00E94010165E070E081E090E02D
:1018E0000E94010162E070E081E090E00E9401014D
:1018F00067E070E080E090E00E94010164E070E049
:1019000080E090E00E94010165E070E080E090E0FE
:101910000E94010162E070E080E090E00E9401011D
:1019200080910402909105020196909305028093A4
:10193000040205970CF4ACCF109205021092040239
:1019400067E070E082E090E00E94010164E070E0F6
:1019500082E090E00E94010161E070E082E090E0AE
:101960000E94010167E070E081E090E00E940101C7
:1019700064E070E081E090E00E94010161E070E0CD
:1019800081E090E00E94010167E070E080E090E07B
:101990000E94010164E070E080E090E00E9401019B
:1019A00061E070E080E090E00E940101809104021B
:1019B00090910502019690930502809304024E9740
:1019C0000CF4BECF109205021092040261E070E0A8
:1019D00082E090E00E94010164E070E082E090E02B
:1019E0000E94010165E070E082E090E00E94010148
:1019F00068E070E082E090E00E94010161E070E048
:101A000081E090E00E94010164E070E081E090E0FC
:101A10000E94010165E070E081E090E00E94010118
:101A200068E070E081E090E00E94010161E070E018
:101A300080E090E00E94010164E070E080E090E0CE
:101A40000E94010165E070E080E090E00E940101E9
:101A500068E070E080E090E00E9401018091040263
:101A600090910502019690930502809304020597D8
:101A70000CF4ACCF109205021092040261E070E009
:101A800082E090E00E94010165E070E082E090E079
:101A90000E94010169E070E082E090E00E94010193
:101AA00061E070E081E090E00E94010165E070E09B
:101AB00081E090E00E94010169E070E081E090E047
:101AC0000E94010161E070E080E090E00E9401016D
:101AD00065E070E080E090E00E94010169E070E064
:101AE00080E090E00E940101809104029091050243
:101AF0000196909305028093040205970CF4BECFE3
:101B0000109205021092040261E070E082E090E021
:101B10000E94010162E070E082E090E00E94010119
:101B200065E070E082E090E00E94010166E070E014
:101B300082E090E00E94010161E070E081E090E0CD
:101B40000E94010162E070E081E090E00E940101EA
:101B500065E070E081E090E00E94010166E070E0E5
:101B600081E090E00E94010161E070E080E090E09F
:101B70000E94010162E070E080E090E00E940101BB
:101B800065E070E080E090E00E94010166E070E0B6
:101B900080E090E00E940101809104029091050292
:101BA0000196909305028093040205970CF4ACCF44
:101BB000109205021092040261E070E082E090E071
:101BC0000E94010162E070E082E090E00E94010169
:101BD00063E070E082E090E00E94010161E070E06B
:101BE00081E090E00E94010162E070E081E090E01D
:101BF0000E94010163E070E081E090E00E94010139
:101C000061E070E080E090E00E94010162E070E03D
:101C100080E090E00E94010163E070E080E090E0ED
:101C20000E94010180910402909105020196909317
:101C30000502809304024E970CF4BECF1092050269
:101C40001092040262E070E082E090E00E940101E4
:101C500064E070E082E090E00E94010165E070E0E5
:101C600082E090E00E94010163E070E082E090E099
:101C70000E94010162E070E081E090E00E940101B9
:101C800064E070E081E090E00E94010165E070E0B6
:101C900081E090E00E94010163E070E081E090E06B
:101CA0000E94010162E070E080E090E00E9401018A
:101CB00064E070E080E090E00E94010165E070E087
:101CC00080E090E00E94010163E070E080E090E03D
:101CD0000E94010180910402909105020196909367
:101CE00005028093040205970CF4ACCF1092050214
:101CF0001092040267E070E082E090E00E9401012F
:101D000065E070E082E090E00E94010163E070E035
:101D100082E090E00E94010167E070E081E090E0E5
:101D20000E94010165E070E081E090E00E94010105
:101D300063E070E081E090E00E94010167E070E004
:101D400080E090E00E94010165E070E080E090E0BA
:101D50000E94010163E070E080E090E00E940101D8
:101D60008091040290910502019690930502809360
:101D7000040205970CF4BECF1092050210920402E3
:101D800063E070E082E090E00E94010168E070E0B2
:101D900082E090E00E94010165E070E082E090E066
:101DA0000E94010166E070E082E090E00E94010183
:101DB00063E070E081E090E00E94010168E070E083
:101DC00081E090E00E94010165E070E081E090E038
:101DD0000E94010166E070E081E090E00E94010154
:101DE00063E070E080E090E00E94010168E070E054
:101DF00080E090E00E94010165E070E080E090E00A
:101E00000E94010166E070E080E090E00E94010124
:101E100080910402909105020196909305028093AF
:101E2000040205970CF4ACCF109205021092040244
:101E300063E070E082E090E00E94010166E070E003
:101E400082E090E00E94010169E070E082E090E0B1
:101E50000E94010163E070E081E090E00E940101D6
:101E600066E070E081E090E00E94010169E070E0CE
:101E700081E090E00E94010163E070E080E090E08A
:101E80000E94010166E070E080E090E00E940101A4
:101E900069E070E080E090E00E940101809104021E
:101EA00090910502019690930502809304024E974B
:101EB0000CF4BECF109205021092040262E070E0B2
:101EC00082E090E00E94010169E070E082E090E031
:101ED0000E94010165E070E082E090E00E94010153
:101EE00066E070E082E090E00E94010162E070E054
:101EF00081E090E00E94010169E070E081E090E003
:101F00000E94010165E070E081E090E00E94010123
:101F100066E070E081E090E00E94010162E070E024
:101F200080E090E00E94010169E070E080E090E0D4
:101F30000E94010165E070E080E090E00E940101F4
:101F400066E070E080E090E00E9401018091040270
:101F500090910502019690930502809304020597E3
:101F60000CF4ACCF109205021092040261E070E014
:101F700082E090E00E94010165E070E082E090E084
:101F80000E94010169E070E082E090E00E9401019E
:101F900061E070E081E090E00E94010165E070E0A6
:101FA00081E090E00E94010169E070E081E090E052
:101FB0000E94010161E070E080E090E00E94010178
:101FC00065E070E080E090E00E94010169E070E06F
:101FD00080E090E00E94010180910402909105024E
:101FE0000196909305028093040205970CF4BECFEE
:101FF000109205021092040269E070E082E090E025
:102000000E94010168E070E082E090E00E9401011E
:1020100065E070E082E090E00E94010164E070E021
:1020200082E090E00E94010169E070E081E090E0D0
:102030000E94010168E070E081E090E00E940101EF
:1020400065E070E081E090E00E94010164E070E0F2
:1020500081E090E00E94010169E070E080E090E0A2
:102060000E94010168E070E080E090E00E940101C0
:1020700065E070E080E090E00E94010164E070E0C3
:1020800080E090E00E94010180910402909105029D
:102090000196909305028093040205970CF4ACCF4F
:1020A0002197209709F00CCB1092050210920402A0
:1020B00067E070E082E090E00E94010168E070E07B
:1020C00082E090E00E94010169E070E082E090E02F
:1020D0000E94010167E070E081E090E00E94010150
:1020E00068E070E081E090E00E94010169E070E04A
:1020F00081E090E00E94010167E070E080E090E004
:102100000E94010168E070E080E090E00E9401011F
:1021100069E070E080E090E00E940101809104029B
:1021200090910502019690930502809304024E97C8
:102130000CF4BECFDF91CF9108951092050210925A
:10214000040265E070E081E090E00E94010180916E
:102150000402909105020196909305028093040277
:10216000883C910574F3109205021092040280E0FD
:1021700090E00E94300181E090E00E94300182E016
:1021800090E00E9430018091040290910502019636
:1021900090930502809304020A974CF308950E94DD
:1021A000AD000E944401C0E0D0E0A12CB12C0F2E64
:1021B000FAE0CF2EF02DD12C0F2EF9E0EF2EF02DDE
:1021C000F12C02C0CA2DDB2DCA30D10508F04EC05B
:1021D000FE01EC57FF4F0C9452110E2D1F2D0E9443
:1021E0007D010150110901151105C9F745C00E9473
:1021F0003C0242C00E94A8063FC00E94B7073CC0F4
:102200000E9406080E9406080E9406080E9406080E
:102210000E94060831C00C2D1D2D0E946509015039
:10222000110901151105C9F727C00E2D1F2D0E9498
:10223000EE090150110901151105C9F71DC00E2D38
:102240001F2D0E94430A0150110901151105C9F7FC
:1022500013C00E945C0B10C00C2D1D2D0E949D1000
:102260000150110901151105C9F706C02196CB309F
:10227000D1050CF0A7CFA8CF2196A6CF97FB072EAC
:1022800016F4009407D077FD09D00E94581107FC7E
:1022900005D03EF4909581959F4F08957095619576
:1022A0007F4F0895EE0FFF1F0590F491E02D0994E4
:1022B000AA1BBB1B51E107C0AA1FBB1FA617B7076C
:1022C00010F0A61BB70B881F991F5A95A9F7809588
:1022D0009095BC01CD0108958F929F92AF92BF92CD
:1022E000CF92DF92EF92FF92CF93DF93EC01688160
:1022F00079818A819B81611571058105910521F4A0
:1023000064E279ED8BE597E02DE133EF41E050E0B9
:102310000E94CA1149015A019B01AC01A7EAB1E42C
:102320000E94E9116B017C01ACEEB4EFA5019401B0
:102330000E94F711C60ED71EE81EF91EF7FE06C052
:1023400081E0C81AD108E10880E8F80AC882D98279
:10235000EA82FB82C6019F77DF91CF91FF90EF90D9
:10236000DF90CF90BF90AF909F908F9008950E9484
:102370006C11089580E092E00E946C110895A0E035
:10238000B0E08093000290930102A0930202B09308
:1023900003020895052E97FB1EF400940E94E1119C
:1023A00057FD07D00E94FC1107FC03D04EF40C949B
:1023B000E11150954095309521953F4F4F4F5F4F1C
:1023C000089590958095709561957F4F8F4F9F4FA1
:1023D00008950E941E12A59F900DB49F900DA49F7A
:1023E000800D911D11240895B7FF0C94E9110E94EE
:1023F000E911821B930B0895A1E21A2EAA1BBB1BA5
:10240000FD010DC0AA1FBB1FEE1FFF1FA217B307C0
:10241000E407F50720F0A21BB30BE40BF50B661FD6
:10242000771F881F991F1A9469F76095709580959A
:1024300090959B01AC01BD01CF010895A29FB00111
:10244000B39FC001A39F700D811D1124911DB29FE8
:0E245000700D811D1124911D0895F894FFCF89
:04245E000100000079
:00000001FF
