:100000000C9472000C948F000C948F000C948F0051
:100010000C948F000C948F000C948F000C948F0024
:100020000C948F000C948F000C948F000C948F0014
:100030000C948F000C948F000C948F000C948F0004
:100040000C948F000C948F000C948F000C948F00F4
:100050000C948F000C948F000C948F000C948F00E4
:100060000C948F000C948F000C948F000C948F00D4
:100070000C948F000C948F000C948F000C948F00C4
:100080000C948F000C948F000C948F000C948F00B4
:100090000C948F000C948F000C948F000C948F00A4
:1000A0000C948F000C948F000C948F000C948F0094
:1000B0000C948F000C948F000C948F000C948F0084
:1000C0000C948F000C948F000C948F000C948F0074
:1000D0000C948F000C948F000C948F000C948F0064
:1000E0000C948F0011241FBECFEFD1E2DEBFCDBF35
:1000F00012E0A0E0B2E0E4EAF0E102C005900D9267
:10010000A630B107D9F712E0A6E0B2E001C01D9217
:10011000AC32B107E1F70E94F1020C9450080C9444
:100120000000BC0184E08A95F1F720E030E040E077
:1001300050E0A4E0E1E0F0E0CB01022E02C0959592
:1001400087950A94E2F780FF02C05B9A01C05B9832
:1001500058988A2F8A95F1F7499B09C0CF01022E42
:1001600002C0880F991F0A94E2F7482B592B589A1E
:100170002F5F3F4F28303105F9F65B9A82E68A956A
:10018000F1F7CA010895EF92FF920F931F935B9AC4
:10019000589A5C9881E090E00E94910083E490E09E
:1001A0000E94910080E090E00E94910081E090E048
:1001B0000E94910080E090E00E9491005B9A86E6A8
:1001C000E82E8EE0F82EC7010197F1F75C9A00E067
:1001D00010E9C8010197F1F75B9A589A5C9881E0A1
:1001E00090E00E94910084E490E00E94910080E001
:1001F00090E00E94910081E090E00E94910083E0F5
:1002000090E00E94910080E090E00E94910080E0E8
:1002100090E00E94910080E090E00E94910080E0D8
:1002200090E00E9491005B9AC7010197F1F75C9AF8
:10023000C8010197F1F75B9A589A5C9881E090E0C9
:100240000E94910083E490E00E94910080E090E0A1
:100250000E94910080E090E00E9491008AE590E089
:100260000E9491008AE590E00E9491008AE590E06A
:100270000E9491008AE590E00E9491008AE590E05A
:100280000E9491005B9AC7010197F1F75C9AC8013F
:100290000197F1F75B9A589A5C9881E090E00E9490
:1002A000910082E490E00E9491008093060280E039
:1002B00090E00E94910080E090E00E94910080E038
:1002C00090E00E94910080E090E00E94910080E028
:1002D00090E00E94910080E090E00E94910080E018
:1002E00090E00E9491005B9AC7010197F1F75C9A38
:1002F000C8010197F1F71F910F91FF90EF900895BA
:10030000509A5198599A52985A9A539A549A0895D1
:100310005B9A589A5C9881E090E00E94910082E498
:1003200090E00E949100909314028093130280E069
:1003300090E00E94910080E090E00E9491009093F4
:1003400008028093070280E090E00E949100909361
:100350000A028093090280E090E00E94910090934D
:100360000C0280930B0280E090E00E949100909339
:100370000E0280930D0280E090E00E949100909325
:10038000100280930F0280E090E00E949100909311
:1003900012028093110284E0982F9A95F1F75B9AEC
:1003A0008A95F1F75C9A08958DB188618DB9E1E085
:1003B000F1E0808188618083E4E0F1E080818F60FA
:1003C000808383B3886183BBEAE0F1E0808185604C
:1003D000808381B18F6381B9259A82B1807C82B993
:1003E00017B88FEF88B9089598EA9093800081E15B
:1003F0008093810090939000809391009093A0004F
:100400008093A10081EE92E09093970080939600F4
:100410009093A7008093A600909387008093860016
:1004200008959093990080939800E5E0F1E0808131
:100430008260808380818E7F80830895909399006D
:1004400080939800E5E0F1E0808181608083808185
:100450008D7F8083089590939B0080939A00E5E0C0
:10046000F1E08081846080838081877F808308952C
:1004700090939B0080939A00E5E0F1E08081886092
:10048000808380818B7F8083089584E690E09093C1
:1004900099008093980090939B0080939A00089510
:1004A0008F929F92AF92BF92CF92DF92EF92FF9284
:1004B0000F931F93369B02C085E003C0359B04C099
:1004C00084E0809316020EC0329B02C083E0F9CF15
:1004D000339B02C082E0F5CF349B02C081E0F1CFB4
:1004E000109216028090160280911902E82CE81AE8
:1004F000E092180290901702682D70E0882777FD2F
:100500008095982F0E941F072091000230910102D0
:1005100040910202509103020E94ED075B016C01C1
:10052000692D70E0882777FD8095982F0E941F071E
:1005300020911A0230911B0240911C0250911D0221
:100540000E94ED079B01AC01C601B5010E94750632
:100550005B016C01FF240027F7FC0095102FC801F8
:10056000B7010E941F0720911E0230911F02409187
:100570002002509121020E94ED079B01AC01C601AF
:10058000B5010E9475069B01AC01209322023093B5
:1005900023024093240250932502980C9092170254
:1005A000809219020E94D9060E94EC0666507F4F85
:1005B00070939900609398006A5F70402EE531E077
:1005C000261B370B30939B0020939A001F910F91AD
:1005D000FF90EF90DF90CF90BF90AF909F908F9063
:1005E00008952F923F924F925F926F927F928F92D7
:1005F0009F92AF92BF92CF92DF92EF92FF920F93B2
:100600001F93DF93CF9300D000D000D0CDB7DEB7DB
:100610000E94D40198EA9093800081E18093810048
:1006200090939000809391009093A0008093A100FC
:1006300081EE92E090939700809396009093A700AC
:100640008093A60090938700809386000E9480018B
:100650000E94C3000E94C3000E94C3001092A90020
:100660001092A8001092AB001092AA0010929D0068
:1006700010929C0084E690E09093990080939800FB
:1006800090939B0080939A00222433244424552481
:100690001C821B821A82198266247724CC24DD24D2
:1006A00000E010E01E821D8288249924AA24BB2425
:1006B000ECEBEE2EE2E0FE2E08C000E010E01E8221
:1006C0001D8288249924AA24BB240E948801209199
:1006D0000702309108022838310519F02830310519
:1006E00019F580E991E090939900809398008091AA
:1006F0000501826080930501809105018E7F8093C2
:100700000501E0E9F1E0F0939B00E0939A0080910D
:10071000050184608093050180910501877F8093A6
:10072000050186E690E025C02833310569F580E9AA
:1007300091E09093990080939800809105018160E9
:1007400080930501809105018D7F80930501E0E98B
:10075000F1E0F0939B00E0939A008091050188609E
:1007600080930501809105018B7F8093050182E7CD
:1007700090E09093050280930402E1E0F0E0F093B2
:100780002B02E0932A02B7C02831310509F050C08E
:10079000809104029091050286369105F9F482EC6D
:1007A00091E090939B0080939A0080910501846072
:1007B0008093050180910501877F80930501EAEA16
:1007C000F0E0F0939900E093980080910501826039
:1007D00080930501809105018E7F21C082379105AC
:1007E00001F582EC91E090939B0080939A008091B8
:1007F0000501886080930501809105018B7F8093BE
:100800000501EAEAF0E0F0939900E0939800809106
:100810000501816080930501809105018D7F8093A2
:10082000050181E090E090932B0280932A0263C03F
:100830002837310509F04BC08091040290910502E0
:1008400086369105F9F4E2ECF1E0F0939900E0933B
:1008500098008091050182608093050180910501D7
:100860008E7F8093050180EA90E090939B008093B7
:100870009A008091050184608093050180910501B3
:10088000877F22C08237910509F077CFE2ECF1E053
:10089000F0939900E0939800809105018160809326
:1008A0000501809105018D7F8093050180EA90E02C
:1008B00090939B0080939A008091050188608093BB
:1008C0000501809105018B7F8093050156CF8091B2
:1008D0002A0290912B02019771F484E690E09093A4
:1008E00099008093980090939B0080939A001092B7
:1008F0002B0210922A028091090290910A028F31F4
:100900009105F1F4283F3105D9F4E6E6F0E0F093E3
:100910000502E09304028091050186608093050141
:10092000809105018E7F8093050180910501877F6D
:10093000809305010E94500271E0672E712C16C051
:100940008F3F910599F4283F310581F4F1E06F164E
:10095000710451F484E690E090939900809398009C
:1009600090939B0080939A0066247724209109023B
:1009700030910A02213F310519F0213E310551F431
:10098000A498F092A900E092A800E1E0F0E0FC83D6
:10099000EB8323C0203F310519F0283F310551F486
:1009A000A49AF092A900E092A80081E090E09A83D6
:1009B000898313C02F3F310581F4EB81FC8131978E
:1009C00021F089819A81019701F51092A900109276
:1009D000A8001C821B821A821982273C310541F42F
:1009E000F0928900E092880080910B018B7F0AC011
:1009F000233E310571F4F0928900E09288008091E5
:100A00000B01846080930B0128C01C821B821A8218
:100A1000198210928900109288002F38310569F4EC
:100A2000F092AB00E092AA0080910B01816080936C
:100A30000B0161E0262E312C27C02F33310569F4DC
:100A4000F092AB00E092AA0080910B018E7F809320
:100A50000B0151E0452E512C17C091E029163104AD
:100A600021F0E1E04E16510459F480910B018160B0
:100A700080930B0188E290E09093AB008093AA00F2
:100A800022243324442455246091070270910802E3
:100A9000603F710509F52F3F3105F1F4139A159A5E
:100AA00040E050E0119A80E197E2E0E7F1E0319711
:100AB000F1F70197D1F7119880E197E2E0E7F1E0D3
:100AC0003197F1F70197D1F74F5F5F4F43305105F1
:100AD00049F71398159840C01198139815982F3717
:100AE000310569F482B191E0892782B982B1E4E0ED
:100AF0008E2782B982B1F0E18F2782B930C02130D0
:100B0000310519F02131310539F5683F710521F5BD
:100B100086E690E09093050280930402809105019F
:100B2000866080930501809105018E7F8093050189
:100B300080910501877F809305010E945002F09209
:100B4000A900E092A800A49841E0C42ED12CE1E0D5
:100B5000F0E0FE83ED834AC02031310519F02831E1
:100B6000310529F5683F710511F586E690E090930F
:100B7000050280930402809105018660809305013F
:100B8000809105018E7F8093050180910501877F0B
:100B9000809305010E945002F092A900E092A80003
:100BA000A49A31E0C32ED12C01E010E01FC091E0E7
:100BB000C916D10451F4E4E6F0E0F0939900E09313
:100BC0009800F0939B00E0939A000130110521F00A
:100BD0008D819E81019721F41092A9001092A800A6
:100BE000CC24DD2400E010E01E821D8280910702EB
:100BF00090910802883F910509F056C08091090242
:100C000090910A0281389105A9F4E8E5F2E0F093A9
:100C1000A900E093A800A498F092AB00E092AA008B
:100C200080910B01816080930B0181E090E09E83B5
:100C30008D8327C08132910519F081339105A9F484
:100C4000E8E5F2E0F093A900E093A800A498F09200
:100C5000AB00E092AA0080910B018E7F80930B0184
:100C600081E090E09E838D831BC08038910569F4FC
:100C7000F092AB00E092AA0080910B01816080931A
:100C80000B0121E0822E912C20CDC09769F4F092C7
:100C9000AB00E092AA0080910B018E7F80930B0144
:100CA00091E0A92EB12C11CD91E08916910421F08B
:100CB000E1E0AE16B10459F480910B01816080939C
:100CC0000B0188E290E09093AB008093AA00ED8145
:100CD000FE81319721F00130110509F0EECC109220
:100CE000A9001092A800E9CC5058BB27AA270ED023
:100CF00023C114D130F019D120F031F49F3F11F409
:100D00001EF409C10EF4E095E7FBD4C0E92F25D10C
:100D100080F3BA17620773078407950718F071F418
:100D20009EF554C10EF4E0950B2EBA2FA02D0B01A9
:100D3000B90190010C01CA01A0011124FF27591B20
:100D400099F0593F50F4503E68F11A16F040A22F26
:100D5000232F342F4427585FF3CF46953795279597
:100D6000A795F0405395C9F77EF41F16BA0B620B96
:100D7000730B840BBAF09150A1F0FF0FBB1F661FDD
:100D8000771F881FC2F70EC0BA0F621F731F841F20
:100D900048F4879577956795B795F7959E3F08F046
:100DA000B3CF9395880F08F09927EE0F9795879505
:100DB0000895F5D080F09F3740F491110EF407C1EB
:100DC00060E070E080E89FE3089526F01B16611D47
:100DD000711D811D75C08FC004D06894B111F7C01A
:100DE0000895C3D088F09F5790F0B92F9927B75135
:100DF000A0F0D1F0660F771F881F991F1AF0BA95DF
:100E0000C9F712C0B13081F0E1D0B1E00895DEC081
:100E1000672F782F8827B85F39F0B93FCCF38695D4
:100E200077956795B395D9F73EF490958095709531
:100E300061957F4F8F4F9F4F0895E89409C097FBAE
:100E40003EF490958095709561957F4F8F4F9F4FA1
:100E50009923A9F0F92F96E9BB279395F6958795E5
:100E600077956795B795F111F8CFFAF4BB0F11F4A8
:100E700060FF1BC06F5F7F4F8F4F9F4F16C088234F
:100E800011F096E911C0772321F09EE8872F762F85
:100E900005C0662371F096E8862F70E060E02AF0C6
:100EA0009A95660F771F881FDAF7880F96958795B2
:100EB00097F9089597F99F6780E870E060E00895DA
:100EC000882371F4772321F09850872B762F07C061
:100ED000662311F499270DC09051862B70E060E0D5
:100EE0002AF09A95660F771F881FDAF7880F969574
:100EF000879597F908959F3F49F0915028F486957A
:100F000077956795B7959F5F80389F4F880F969527
:100F1000879597F908959FEF80EC089500240A942F
:100F20001616170618060906089500240A941216C4
:100F30001306140605060895092E0394000C11F4F7
:100F4000882352F0BB0F40F4BF2B11F460FF04C0A4
:100F50006F5F7F4F8F4F9F4F089557FD9058440FFD
:100F6000551F59F05F3F71F04795880F97FB991F08
:100F700061F09F3F79F087950895121613061406C5
:100F8000551FF2CF4695F1DF08C016161706180652
:100F9000991FF1CF86957105610508940895E5DFE5
:100FA000A0F0BEE7B91788F4BB279F3860F4161687
:100FB000B11D672F782F8827985FF7CF8695779593
:100FC0006795B11D93959639C8F30895E894BB27AA
:100FD00066277727CB0197F908950BD0ADCF9EDF19
:100FE00028F0A3DF18F0952309F064CF94CF1124E3
:100FF000EECFB3DFA0F3959FD1F3950F50E0551FCF
:10100000629FF001729FBB27F00DB11D639FAA275D
:10101000F00DB11DAA1F649F6627B00DA11D661FAC
:10102000829F2227B00DA11D621F739FB00DA11DCD
:10103000621F839FA00D611D221F749F3327A00D87
:10104000611D231F849F600D211D822F762F6A2F23
:1010500011249F5750408AF0E1F088234AF0EE0FA8
:10106000FF1FBB1F661F771F881F91505040A9F7B5
:101070009E3F510570F01ECFAACF5F3FECF3983E24
:10108000DCF3869577956795B795F795E7959F5F1C
:10109000C1F7FE2B880F911D9695879597F90895B6
:0410A000F894FFCFF2
:0610A4000000A0416600FF
:00000001FF
