:100000000C9472000C948F000C948F000C948F0051
:100010000C948F000C948F000C948F000C948F0024
:100020000C948F000C948F000C948F000C948F0014
:100030000C948F000C948F000C948F000C948F0004
:100040000C948F000C948F000C948F000C948F00F4
:100050000C948F000C948F000C948F000C948F00E4
:100060000C948F000C948F000C948F000C948F00D4
:100070000C948F000C948F000C948F000C948F00C4
:100080000C948F000C948F000C948F000C948F00B4
:100090000C948F000C948F000C948F000C948F00A4
:1000A0000C948F000C948F000C948F000C948F0094
:1000B0000C948F000C948F000C948F000C948F0084
:1000C0000C948F000C948F000C948F000C948F0074
:1000D0000C948F000C948F000C948F000C948F0064
:1000E0000C948F0011241FBECFEFD1E2DEBFCDBF35
:1000F00012E0A0E0B2E0E0EBFDE002C005900D925E
:10010000AA32B107D9F712E0AAE2B2E001C01D920B
:10011000AD35B107E1F70E9497040C94D6060C9414
:1001200000006F927F929F92AF92BF92CF92DF9228
:10013000EF92FF920F931F93CF93DF93E0913402DE
:10014000F091350221E030E0A9010090440202C0A4
:10015000440F551F0A94E2F7142FA42EA094A091E7
:100160003602B0913702A9010090450202C0440F47
:10017000551F0A94E2F7042FB42EB094E0903A028F
:10018000F0903B0239010090470202C0660C771CD8
:100190000A94E2F720E060E070E0482F50E091E33D
:1001A000992E81E0C82ED12C80818A218083362F20
:1001B000CA01062E02C0959587950A94E2F780FF42
:1001C00003C08C91802B02C08C918B218C93892D44
:1001D0008A95F1F78081812B8083E701888190E007
:1001E00086219721892B39F0C60102C0880F991FFB
:1001F0003A95E2F7282B892D8A95F1F76F5F7F4FAB
:100200006830710589F68081182B1083822FDF9169
:10021000CF911F910F91FF90EF90DF90CF90BF9003
:10022000AF909F907F906F900895DF92EF92FF9232
:100230000F931F93CF93DF93D62EE0903802F09068
:100240003902F701408161E070E09B0100904602B5
:1002500002C0220F331F0A94E2F7022F20952423B5
:100260002083E0913602F091370240819B0100909B
:10027000450202C0220F331F0A94E2F7422B40834B
:10028000E0913402F091350220810090440202C0D6
:10029000660F771F0A94E2F7262B2083EC0110E00B
:1002A00005C088810E94910089931F5F1D15C8F3C6
:1002B000F7018081082B0083DF91CF911F910F916F
:1002C000FF90EF90DF90089581E08093480282E4F0
:1002D00080934902EAE4F2E0119282E0ED35F807FA
:1002E000D9F7CF01459765E10E94150108952F9236
:1002F0003F924F925F926F927F928F929F92AF92B6
:10030000BF92CF92DF92EF92FF920F931F93DF93F2
:10031000CF93CDB7DEB767970FB6F894DEBF0FBEA9
:10032000CDBFFC013A012801D6019093330280939E
:1003300032025093350240933402109337020093F7
:100340003602D0923902C09238024C0108948108DA
:10035000910890923D0280923C028A010150104027
:1003600010933F0200933E0262010894C108D10835
:10037000D0924102C09240021D0108942108310828
:1003800030924302209242023297F0933B02E09374
:100390003A02329620934402E0924502A09246022D
:1003A00060934702D8018C9141E050E0DA0102C02D
:1003B000AA0FBB1F2A95E2F79D018A2BD8018C93C7
:1003C000D1018C91DA0102C0AA0FBB1FAA94E2F7F7
:1003D0008A2BD1018C93D6018C91DA0102C0AA0F2D
:1003E000BB1FEA94E2F77D018A2BD6018C93D401DE
:1003F0009C9102C0440F551F6A95E2F7842F8095A7
:1004000089238C938081482B4083F3018081282BA2
:100410002083D2018C91E82AEC920E946401DE01D3
:100420001196E4E2F2E085E001900D928150E1F74F
:10043000CE01019665E00E941501DE011696EBE102
:10044000F2E089E001900D928150E1F7CE0106962D
:1004500069E00E941501DE011F96E2E1F2E089E009
:1004600001900D928150E1F7CE010F9669E00E9454
:10047000150167960FB6F894DEBF0FBECDBFCF91C2
:10048000DF911F910F91FF90EF90DF90CF90BF9081
:10049000AF909F908F907F906F905F904F903F9024
:1004A0002F90089520914B0230914C022095309569
:1004B000C901089540E020914B0230914C022095F3
:1004C000309528233923232B09F041E0842F089508
:1004D000FC01E85BFD4F80810895709A83E397E00B
:1004E0000197F1F77098089520912A0290E002C0D8
:1004F0009F5F2AE09817E0F320932A0290932B0243
:10050000089580912C0282B908950AC020E030E05D
:1005100000002F5F3F4F4CE02C3C3407C9F7019798
:100520000097A1F708951F93182F8FE090E00E9485
:100530008502A59A7098212F30E0C901807C9070C7
:100540008EB98EB11695169516951670812B8EB9AB
:1005500068E1862F8A95F1F7709A43E357E0CA0164
:100560000197F1F77098A5987098A59AC901E4E0F1
:10057000880F991FEA95E1F7807C90708EB98EB153
:10058000220F331F26703070822B8EB96A95F1F7D7
:10059000709ACA010197F1F770981F910895EF9230
:1005A000FF920F931F938C0164E670E00E94A006F7
:1005B000462F262F30E08CE99FEF289F7001299F5E
:1005C000F00C389FF00C1124C701800F911F6AE0D6
:1005D00070E00E94A006162F842F805D0E94930277
:1005E000812F805D0E949302005D0E0D86EF9FEFCC
:1005F000189F602D1124862F800F0E9493021F9157
:100600000F91FF90EF9008958F929F92AF92BF92BB
:10061000CF92DF92EF92FF921F93CF93DF934B0124
:100620005C0120EA36E841E050E00E94B406611522
:1006300071058105910519F4C5E0D0E041C0C501FF
:10064000B40120E137E240E050E00E94B4066115B9
:1006500071058105910519F4C4E0D0E031C0C501F0
:10066000B40128EE33E040E050E00E94B40661158A
:1006700071058105910519F4C3E0D0E021C0C501E1
:10068000B40124E630E040E050E00E94B406611579
:1006900071058105910519F4C2E0D0E011C0C0E0F8
:1006A000D0E0C501B4012AE030E040E050E00E9413
:1006B000B406611571058105910511F4C1E0D0E022
:1006C000CC24DD24760123C0C501B4012AE030E04A
:1006D00040E050E00E94B406162FC501B4012AE0A4
:1006E00030E040E050E00E94B406C901DA014C015C
:1006F0005D01C701B6012AE030E040E050E00E9411
:1007000081066B017C01C10ED11CE11CF11C81141E
:100710009104A104B104C1F619C0C701B6012AE0D1
:1007200030E040E050E00E94B406162FC701B60149
:100730002AE030E040E050E00E94B406C901DA014E
:100740006C017D01812F805D0E949302C114D10450
:10075000E104F10411F704C080E30E9493022197A1
:100760002097D1F7DF91CF911F91FF90EF90DF900D
:10077000CF90BF90AF909F908F900895A59870985C
:10078000482F50E09A01207C30702EB99EB186959A
:10079000869586958670982B9EB968E1862F8A95F6
:1007A000F1F7709A23E337E0C9010197F1F77098E8
:1007B000A59AA5987098CA01A4E0880F991FAA95D8
:1007C000E1F7807C90708EB98EB1440F551F467052
:1007D0005070842B8EB96A95F1F7709AC901019710
:1007E000F1F770981EB88AE090E00E9485020895A3
:1007F00080540E94BE03089580580E94BE0308954D
:10080000CF92DF92EF92FF921F93CF93DF937C0101
:1008100081E082B9A59A709810E063E3C62E67E084
:10082000D62E3AC0103119F480EC0E94BE03A59A6E
:100830007098288130E0C901807C90708EB94EB1EB
:10084000C90153E0959587955A95E1F786709070A8
:10085000482B4EB9709AC6010197F1F77098A59888
:10086000A59A7098C90144E0880F991F4A95E1F74D
:10087000807C90708EB98EB1220F331F267030703D
:10088000822B8EB9709AC6010197F1F770981F5F9D
:1008900081E090E00E948502E701C10FD11D8881AF
:1008A000882309F0BFCFDF91CF911F91FF90EF9088
:1008B000DF90CF9008958FEF8DB983BB8FE090E0EC
:1008C0000E948502A59870981EB880E20E94BE031F
:1008D00081E090E00E94850280E20E94BE0381E0F8
:1008E00090E00E94850280E20E94BE0381E090E0D9
:1008F0000E94850288E20E94BE0381E090E00E948F
:1009000085028EE00E94BE0381E090E00E94850295
:1009100081E00E94BE0381E090E00E94850286E0B3
:100920000E94BE0381E090E00E9485020895AF928C
:10093000CF92DF92EF920F931F930E945B048BE2A2
:1009400090E061E04BE250E020E00BE210E0F3E0E9
:10095000EF2EEBE2CE2ED12C74E0A72E0E94770171
:100960000E94640180E00E94FC0360914F0270E0ED
:1009700080E090E00E94040380E092E00E94000486
:1009800088E00E94FC0384E092E00E9400048BE077
:100990000E94FC036091500270E080E090E00E94B1
:1009A000040380E092E00E940004DACFEF92FF920D
:1009B0000F931F93DF93CF9300D000D0CDB7DEB756
:1009C0007B018C010E9409050E940403C801B70144
:1009D000AE014F5F5F4F0E945E057B018C018EE28E
:1009E0000E949302C801B70120E030E543EC57E4D0
:1009F0000E9491050E9409050E9404030F900F9028
:100A00000F900F90CF91DF911F910F91FF90EF907A
:100A1000089533D088F09F5790F0B92F9927B75198
:100A2000A0F0D1F0660F771F881F991F1AF0BA95B2
:100A3000C9F712C0B13081F03AD0B1E0089537C0A3
:100A4000672F782F8827B85F39F0B93FCCF38695A8
:100A500077956795B395D9F73EF490958095709505
:100A600061957F4F8F4F9F4F089557FD9058440FCA
:100A7000551F59F05F3F71F04795880F97FB991FFD
:100A800061F09F3F79F087950895121613061406BA
:100A9000551FF2CF4695F1DF08C016161706180647
:100AA000991FF1CF86957105610508940895E89422
:100AB000BB2766277727CB0197F90895FA01DC0158
:100AC000AA0FBB1F9B01AC01BF5728F42227332775
:100AD000442750781FC0B75188F4AB2F00244695A7
:100AE00037952795011CA395D2F3002069F0220FBA
:100AF000331F441FB395DAF30DD076C06130710512
:100B0000A0E88A07B94630F49B01AC016627772735
:100B100088279078309621F0208331834283538355
:100B200008950BD0DDC0CED028F0D3D018F0952397
:100B300009F0BFC0C4C01124BBCF97DFA0F3959FBD
:100B4000D1F3950F50E0551F629FF001729FBB27B4
:100B5000F00DB11D639FAA27F00DB11DAA1F649F60
:100B60006627B00DA11D661F829F2227B00DA11D13
:100B7000621F739FB00DA11D621F839FA00D611D99
:100B8000221F749F3327A00D611D231F849F600DBA
:100B9000211D822F762F6A2F11249F5750408AF0F3
:100BA000E1F088234AF0EE0FFF1FBB1F661F771F7F
:100BB000881F91505040A9F79E3F510570F079C0B1
:100BC00077CF5F3FECF3983EDCF38695779567959A
:100BD000B795F795E7959F5FC1F7FE2B880F911D9D
:100BE0009695879597F908955058BB27AA270ED058
:100BF00077C068D030F06DD020F031F49F3F11F411
:100C00001EF45DC00EF4E095E7FB53C0E92F2DDF25
:100C100080F3BA17620773078407950718F071F419
:100C20009EF545CF0EF4E0950B2EBA2FA02D0B01AB
:100C3000B90190010C01CA01A0011124FF27591B21
:100C400099F0593F50F4503E68F11A16F040A22F27
:100C5000232F342F4427585FF3CF46953795279598
:100C6000A795F0405395C9F77EF41F16BA0B620B97
:100C7000730B840BBAF09150A1F0FF0FBB1F661FDE
:100C8000771F881FC2F70EC0BA0F621F731F841F21
:100C900048F4879577956795B795F7959E3F08F047
:100CA000B3CF9395880F08F09927EE0F9795879506
:100CB000089597F99F6780E870E060E008959FEFDE
:100CC00080EC089500240A941616170618060906E3
:100CD000089500240A9412161306140605060895B2
:100CE000092E0394000C11F4882352F0BB0F40F43A
:100CF000BF2B11F460FF04C06F5F7F4F8F4F9F4F7A
:100D00000895629FD001739FF001829FE00DF11D55
:100D1000649FE00DF11D929FF00D839FF00D749F75
:100D2000F00D659FF00D9927729FB00DE11DF91F21
:100D3000639FB00DE11DF91FBD01CF01112408957E
:100D4000AA1BBB1B51E107C0AA1FBB1FA617B707F1
:100D500010F0A61BB70B881F991F5A95A9F780950D
:100D60009095BC01CD010895A1E21A2EAA1BBB1BD0
:100D7000FD010DC0AA1FBB1FEE1FFF1FA217B30767
:100D8000E407F50720F0A21BB30BE40BF50B661F7D
:100D9000771F881F991F1A9469F760957095809541
:100DA00090959B01AC01BD01CF010895F894FFCF50
:100DB000202020004C593A00303132333435363758
:100DC0003839014300005A5A5A5A5A014400010363
:0A0DD00000000000014300010000D4
:00000001FF
