:100000000C9446000C9463000C9463000C94630001
:100010000C9463000C9463000C9463000C946300D4
:100020000C9463000C9463000C9463000C946300C4
:100030000C9463000C9463000C9463000C946300B4
:100040000C9463000C9463000C9463000C946300A4
:100050000C9463000C9463000C9463000C94630094
:100060000C9463000C9463000C9463000C94630084
:100070000C9463000C9463000C9463000C94630074
:100080000C9463000C9463000C94630011241FBE55
:10009000CFEFD0E1DEBFCDBF11E0A0E0B1E0E2E202
:1000A000F3E000E00BBF02C007900D92AA31B10748
:1000B000D9F711E0AAE1B1E001C01D92A832B10761
:1000C000E1F70C9434010C94000001972FEF8F3F5F
:1000D000920741F02BEC3CE000002150304037FF0C
:1000E000FBCFF3CF0895AF9A81E090E00E946500C6
:1000F000AF9808951F93182F82E090E00E9465004A
:10010000809165008B7F809365001BBB0E9473000C
:100110001F9108958FEF8ABB84BB809364008FE0AA
:1001200090E00E946500809165008B7F8093650060
:1001300088E30E947A008EE00E947A0081E00E94AB
:100140007A0086E00E947A0080E80E947A00089592
:100150001092200190E0981778F4392F29E021506F
:1001600027FFFDCF2AE0932F9F5F392F9817B0F319
:10017000909320012093210108951F93182F81E06F
:1001800090E00E9465008091650084608093650026
:100190001BBB0E9473001F9108951F93CF93DF93A1
:1001A000EC0110E080916500846080936500888197
:1001B0008823B9F081E090E00E946500103119F4C5
:1001C00080EC0E947A00FE01E10FF11D80818BBB63
:1001D0000E9473001F5FFE01E10FF11D80818823E3
:1001E00049F7DF91CF911F9108950F931F939C01C1
:1001F00064E670E00E947D01462F84E6689FF0016E
:100200001124C9018E1B9F0B6AE070E00E947D01E2
:10021000062F122F1E1B8AE0689FC0011124181B95
:10022000842F805D0E94BD00802F805D0E94BD00F4
:10023000812F805D0E94BD001F910F91089580580D
:100240000E947A00089580540E947A00089580E404
:1002500087B987E886B90895369A349BFECF84B172
:1002600095B1349A99270895CFEFD0E1DEBFCDBF85
:100270000E948A000E9427010E942C017C0100E05C
:1002800018EDC8010197F1F787B18F5F87B90E9418
:100290002C01EC01C8010197F1F787B1815087B9B2
:1002A00080E00E941F01CE018E5990400397B0F468
:1002B000C7018E599040039718F48AE091E01AC064
:1002C00082EAE816F1041CF08DE091E013C089E4A5
:1002D000E816F1048CF680E191E00CC0C13AD1053A
:1002E0001CF083E191E006C0C534D1050CF0C4CF09
:1002F00086E191E00E94CD00BFCFAA1BBB1B51E15C
:1003000007C0AA1FBB1FA617B70710F0A61BB70B85
:10031000881F991F5A95A9F780959095BC01CD012A
:0203200008953E
:1003220030313233343536373839432000532000E8
:0A0332004E20004520005720000077
:00000001FF
