:100000000C942A000C9447000C9447000C94470071
:100010000C9447000C9447000C9447000C94470044
:100020000C9447000C9447000C9447000C94470034
:100030000C9447000C9447000C9447000C94470024
:100040000C9447000C9447000C9447000C94470014
:100050000C94470011241FBECFE5D4E0DEBFCDBF16
:1000600010E0A0E6B0E0E2E0F3E002C005900D92FF
:10007000A036B107D9F710E0A0E6B0E001C01D92AC
:10008000A436B107E1F70E9437010C947F010C946C
:1000900000008FEF84BB87BB81BB08958FEF8ABBC5
:1000A00087BB84BB11BA0895599A549A86E080BDE3
:1000B00087E689B910BC80E090E008955F9BFECF91
:1000C0008CB10895409160005091610020E030E0D3
:1000D00090E004C02F5F3F4F4AE050E028173907F7
:1000E000CCF3509361004093600030936300209301
:1000F00062000895682FAA9AAB98AC9AAD98409187
:1001000060005091610080E090E0262F30E003C055
:1001100001964AE050E082179307D4F3AA98AB986F
:10012000AC98AD9888EC861B20E030E090E004C0ED
:100130002F5F3F4F4AE050E028173907CCF3509328
:100140006100409360003093630020936200089543
:10015000682FAB9AAA98AD9AAC98409160005091E4
:10016000610080E090E0262F30E003C001964AE075
:1001700050E082179307D4F3AA98AB98AC98AD9847
:1001800088EC861B20E030E090E004C02F5F3F4FFA
:100190004AE050E028173907CCF3509361004093B0
:1001A000600030936300209362000895682FAA9A3C
:1001B000AB98AD98AC98409160005091610080E0A0
:1001C00090E0262F30E003C001964AE050E082170D
:1001D0009307D4F3AA98AB98AC98AD9888EC861B9B
:1001E00020E030E090E004C02F5F3F4F4AE050E055
:1001F00028173907CCF35093610040936000309387
:100200006300209362000895682FAA98AB98AC9A77
:10021000AD98409160005091610080E090E0262F01
:1002200030E003C001964AE050E082179307D4F310
:10023000AA98AB98AC98AD9888EC861B20E030E08B
:1002400090E004C02F5F3F4F4AE050E02817390785
:10025000CCF350936100409360003093630020938F
:1002600062000895AA98AB98AC98AD9808958FEF66
:100270008ABB87BB84BB11BA82BB85BB809906C091
:10028000819904C0829902C0839B34C080990BC0BD
:10029000819909C0829907C0839B05C086E990E0D7
:1002A0000E940401EBCF809B0BC0819909C0829909
:1002B00007C0839905C086E990E00E94A800DECFC0
:1002C00080990BC0819B09C0829907C0839905C0A2
:1002D00086E990E00E947A00D1CF80990BC0819985
:1002E00009C0829B07C0839905C086E990E00E94FF
:1002F000D600C4CFAA98AB98AC98AD98BFCFF8946D
:02030000FFCF2D
:00000001FF
