S013000041746D656C5F46696E616C2E73726563D5
S11300000C9472000C948F000C948F000C948F004D
S11300100C948F000C948F000C948F000C948F0020
S11300200C948F000C948F000C948F000C948F0010
S11300300C948F000C948F000C948F000C948F0000
S11300400C948F000C948F000C948F000C948F00F0
S11300500C948F000C948F000C948F000C948F00E0
S11300600C948F000C948F000C948F000C948F00D0
S11300700C948F000C948F000C948F000C948F00C0
S11300800C948F000C948F000C948F000C948F00B0
S11300900C948F000C948F000C948F000C948F00A0
S11300A00C948F000C948F000C948F000C948F0090
S11300B00C948F000C948F000C948F000C948F0080
S11300C00C948F000C948F000C948F000C948F0070
S11300D00C948F000C948F000C948F000C948F0060
S11300E00C948F0011241FBECFEFD1E2DEBFCDBF31
S11300F012E0A0E0B2E0E2E4F3E102C005900D9268
S1130100A630B107D9F722E0A6E0B2E001C01D9203
S1130110AA32B207E1F70E9442070C949F090C949B
S11301200000709A83E397E00197F1F770980895BF
S113013010922802882329F09AE090932902809350
S113014028020895A5987098982F907C9EB92EB196
S1130150982F9695969596959670922B9EB998E1C0
S11301609A95F1F700C0709AE3E3F7E03197F1F75D
S11301707098A59AA598709890E09C012295329564
S1130180307F3227207F3227207C33272EB92EB1AF
S1130190880F991F86709927282B2EB9F8E1FA95B4
S11301A0F1F700C0709A83E397E00197F1F7709834
S11301B01EB82AE030E08CEC9CE000000197E9F7DF
S11301C021503109C1F7089587EC8DB980E283BBD2
S11301D02FE030E08CEC9CE000000197E9F721501F
S11301E03109C1F7A59870981EB880E20E94A20058
S11301F08CEC9CE000000197E9F780E20E94A200E9
S11302008CEC9CE000000197E9F780E20E94A200D8
S11302108CEC9CE000000197E9F788E20E94A200C0
S11302208CEC9CE000000197E9F78EE00E94A200AC
S11302308CEC9CE000000197E9F781E00E94A200A9
S11302408CEC9CE000000197E9F786E00E94A20094
S11302508CEC9CE000000197E9F708954FE050E032
S11302602CEC3CE0000021503109E1F741505109E8
S1130270B9F7A59A7098982F907C9EB92EB1982FB3
S11302809695969596959670922B9EB998E19A9527
S1130290F1F700C0709AE3E3F7E03197F1F7709853
S11302A0A5987098A59A90E09C0122953295307F8C
S11302B03227207F3227207C33272EB92EB1880F96
S11302C0991F86709927282B2EB9F8E1FA95F1F732
S11302D000C0709A83E397E00197F1F7709808954E
S11302E0EF92FF920F931F93CF93DF931F92CDB79B
S11302F0DEB78C0181E082B9A59A709890E078010C
S1130300E90EF11CF7018081882309F447C090317C
S113031009F44CC0A59A7098F7012081822F807C43
S11303208EB98EB130E0359527953595279535955D
S1130330279526703327822B8EB9709AE3E3F7E072
S11303403197F1F77098A598A59A7098F7012081D4
S113035030E0A90142955295507F5427407F54279D
S1130360407C55274EB98EB1220F331F2670332798
S1130370822B8EB9709AE3E3F7E03197F1F7709826
S11303809F5F2CEC3CE0000021503109E1F778013B
S1130390E90EF11CF70180818111B9CF0F90DF9133
S11303A0CF911F910F91FF90EF90089580EC998366
S11303B00E94A2009981AECF4F925F926F927F927A
S11303C08F929F92AF92BF92CF92DF92EF92FF9261
S11303D00F931F93CF93DF934B015C0120EA36E820
S11303E041E050E00E947D09672B682B692B81F066
S11303F0C501B40120E137E240E050E00E947D09EC
S1130400672B682B692B09F06CC0C4E0D0E002C0F4
S1130410C5E0D0E081149104A104B10409F44EC0F4
S1130420C12CD12C76016AE0462E512C612C712C02
S1130430C501B401A30192010E947D0949015A0139
S113044097018601000F111F221F331F68017901D4
S1130450CC0CDD1CEE1CFF1CCC0CDD1CEE1CFF1CAC
S1130460C00ED11EE21EF31EC60ED71EE81EF91ED4
S113047081149104A104B104D9F6C114D104E10496
S1130480F104E1F0BAE08B2E912CA12CB12CC70120
S1130490B601A50194010E947D0969017A01862FA4
S11304A0805D0E942E01C114D104E104F10479F7A6
S11304B0209731F080E30E942E0121972097D1F7F5
S11304C0DF91CF911F910F91FF90EF90DF90CF902C
S11304D0BF90AF909F908F907F906F905F904F9060
S11304E00895C501B40128EE33E040E050E00E94D5
S11304F07D09672B682B692BF1F0C501B40124E653
S113050030E040E050E00E947D09672B682B692BA6
S1130510A9F0C501B4012AE030E040E050E00E94B7
S11305207D09C1E0D0E0672B682B692B09F472CFF9
S1130530C0E0D0E06FCFC3E0D0E06CCFC2E0D0E049
S113054069CFCF92DF92EF92FF92CF93DF9300D0E7
S113055000D0CDB7DEB76B017C010E942A080E944F
S1130560DC01AE014F5F5F4FC701B6010E94E7088F
S11305706B017C018EE20E942E0120E030E543EC09
S113058057E4C701B6010E941A090E942A080F9075
S11305900F900F900F90DF91CF91FF90EF90DF902D
S11305A0CF900C94DC0180580C94A20080540C94DD
S11305B0A2008091270282B90895019740F02CECA3
S11305C03CE0000021503109E1F70197C0F708959C
S11305D038EA3093A00021E12093A10081EE92E05B
S11305E09093A7008093A6003093200120932101CB
S11305F090932701809326010895E4E0F1E080813F
S11306008F6080836B9AEAE0F1E080818B61808364
S1130610E1E0F1E08081886780839C9A8FEF8AB95A
S113062081B917B888B98098889A0895E1E0F1E013
S113063080818260808380818E7F8083E2E0F1E02C
S113064080818260808380818E7F8083E1EDF0E011
S1130650808188618083E2EDF0E080818660808320
S1130660E0EDF0E08081826080838FEB90E09093F6
S1130670D5008093D40008959091D00095FFFCCFCD
S11306808093D60008958091D00087FFFCCF80919D
S1130690D6000895EAE7F0E0808180688083808155
S11306A087608083ACE7B0E08C9180628C9380811A
S11306B080648083089580917A00806480937A00B6
S11306C080917A0084FFFCCF8091790090E00895B6
S11306D0E5E0F1E080818160808380818D7F80838B
S11306E082EC91E090932901809328010895E5E03C
S11306F0F1E08081846080838081877F808387ECC0
S113070091E090932B0180932A010895E5E0F1E0B4
S113071080818860808380818B7F808382EC91E0FC
S113072090932B0180932A010895E5E0F1E0808104
S11307308260808380818E7F808387EC91E09093B8
S11307402901809328010895E5E0F1E0808198E093
S113075089278083808194E08927808389E690E0DB
S113076090932B0180932A010895E5E0F1E08081C4
S113077091E089278083808192E08927808389E6BC
S113078090E09093290180932801089581EE92E0EE
S11307909093AB008093AA00EBE0F1E080818E7F20
S11307A08083089581EE92E09093AB008093AA0039
S11307B0EBE0F1E080818160808308951092AB00CA
S11307C01092AA00089581EE92E09093A90080937C
S11307D0A8009093AB008093AA00A498EBE0F1E00A
S11307E080818E7F8083089581EE92E09093A900AA
S11307F08093A8009093AB008093AA00A49AEBE0A6
S1130800F1E080818160808308958091040290E00A
S11308109093A9008093A8009093AB008093AA00C2
S1130820A498EBE0F1E080818E7F808308958CEBC7
S113083092E09093990080939800E2E0F1E0808147
S11308408064808308958CEB92E090939900809368
S11308509800E2E0F1E080818F7B8083089588E254
S113086090E09093990080939800E2E0F1E0808119
S1130870806480830895129A6B9A739A83E090E05F
S1130880109A2FEF3FEF49E5215030404040E1F707
S113089000C0000010982FEF3FEF4CE22150304091
S11308A04040E1F700C00000019751F71298739897
S11308B008954F925F926F927F928F929F92AF9220
S11308C0BF92CF92DF92EF92FF920F931F93CF9339
S11308D0DF933399DDC0339915C03299F7C031994C
S11308E0E6C0309902C180E090E0A0E8B0EC8093CB
S11308F0060290930702A0930802B09309026C01C8
S11309007D010EC080E090E0A0E4B0E48093060294
S113091090930702A0930802B09309026C017D0131
S11309202091120230911302409114025091150249
S1130930C701B6010E94AD078B01D82FC92F9E01B4
S1130940862F912FA32FB22F80930A0290930B022C
S1130950A0930C02B0930D0280900E0290900F02AF
S1130960A0901002B0901102209100023091010277
S11309704091020250910302C701B6010E941A0974
S11309802B013C0120911E0230911F024091200254
S113099050912102C501B4010E941A099B01AC01C6
S11309A0C301B2010E94AE072B013C0120911A023F
S11309B030911B0240911C0250911D02DE01602FF8
S11309C0712F8B2F9A2F0E941A099B01AC01C3012E
S11309D0B2010E94AE072B013C0160931602709392
S11309E017028093180290931902A7019601C5017A
S11309F0B4010E94AE0760930E0270930F028093BD
S1130A00100290931102C0921202D0921302E0924B
S1130A101402F092150281E0809323028091050173
S1130A20816080930501809105018D7F809305018C
S1130A308091050184608093050180910501877F81
S1130A4080930501C301B2010E9412080E94250887
S1130A50CB01825F9E4F90932B0180932A0189E5FD
S1130A6091E0861B970B9093290180932801DF91D5
S1130A70CF911F910F91FF90EF90DF90CF90BF9097
S1130A80AF909F908F907F906F905F904F9008955C
S1130A9080E090E0A0E8B0E480930602909307021F
S1130AA0A0930802B09309026C017D0139CF80E064
S1130AB090E0A0E8BFE38093060290930702A0931E
S1130AC00802B09309026C017D012ACF80E090E016
S1130AD0A0E0B0E48093060290930702A09308027A
S1130AE0B09309026C017D011BCF10920602109293
S1130AF007021092080210920902C12CD12C76012F
S1130B000FCFE5E0F1E0808191E089278083808147
S1130B1092E08927808389E690E09093290180936D
S1130B202801208138E023272083208134E02327F3
S1130B30208390932B0180932A0110920A02109231
S1130B400B0210920C0210920D02109216021092D7
S1130B5017021092180210921902109212021092A7
S1130B601302109214021092150210920E021092A7
S1130B700F021092100210921102089580FF44C0D7
S1130B8081FD75C091E090932502909105019860D4
S1130B9090930501909105019B7F9093050122ECB0
S1130BA031E030932B0120932A0186FF44C087FD56
S1130BB078C091E090932602909105019260909301
S1130BC00501909105019E7F9093050127EC31E08A
S1130BD0309329012093280182FF44C083FF7AC007
S1130BE0109224028091040290E09093A9008093D3
S1130BF0A8009093AB008093AA00A49880910B0165
S1130C008E7F80930B01089581FFCFCF91E0909365
S1130C10250290910501946090930501909105013E
S1130C20977F9093050127EC31E030932B012093BB
S1130C302A0186FDBCCF87FFCFCF91E09093260297
S1130C4090910501916090930501909105019D7F1C
S1130C509093050122EC31E030932901209328017F
S1130C6082FDBCCF83FFCFCF81EE92E0BECF9091C7
S1130C702502913009F099CF109225029091050137
S1130C8028E09227909305019091050124E0922792
S1130C909093050129E630E030932B0120932A013B
S1130CA084CF90912602913009F096CF10922602BB
S1130CB0209105012927209305019091050122E047
S1130CC092279093050129E630E03093290120937F
S1130CD0280182CF81EE92E09093A9008093A8002E
S1130CE09093AB008093AA00A49A80910B01816039
S1130CF080930B010895CF93DF931F92CDB7DEB796
S1130D0085FF2EC086FD06C087FD2FC00F90DF91A2
S1130D10CF91089587FD12C081E0809322028CEB6D
S1130D2092E09093990080939800809102018F7BC8
S1130D30809302010F90DF91CF9108958091220258
S1130D40813021F71092220288E290E0909399007A
S1130D508093980080910201806480930201D6CF31
S1130D6089830E943B048981CDCF81E08093220254
S1130D708CEB92E09093990080939800809102010B
S1130D80806480930201C2CFCF93DF931F92CDB7CB
S1130D90DEB7898381FF36C0809123028130F1F16F
S1130DA0898183FD09C0898185FF06C0898182FF0D
S1130DB003C0898186FD37C0898183FF09C0898189
S1130DC085FD06C0898182FF03C0898186FD2EC00E
S1130DD0898183FF09C0898185FF06C0898182FDDD
S1130DE003C0898186FD25C0898183FF06C089816E
S1130DF085FF03C0898182FD0BC01BB80F90DF9172
S1130E00CF91089581E0809323020E945904C8CFB2
S1130E10898186FDF2CF88E08BB9F0CF109223024E
S1130E200E948105BDCF81E08BB9E8CF82E08BB908
S1130E30E5CF84E08BB9E2CF80FD12C0739A159898
S1130E40739A129A84FD12C0179A139A81FF11C0E3
S1130E50179882FF11C0139888E2809304020895C2
S1130E607398159A7398129884FFEECF1798139875
S1130E700895179A82FDEFCF139A88E280930402B3
S1130E80089508950E94E4000E9416030E94FD0242
S1130E9038EA3093A00021E12093A10081EE92E092
S1130EA09093A7008093A600309320012093210102
S1130EB0909327018093260180917A008068809323
S1130EC07A0080917A00876080937A0080917C0018
S1130ED0806280937C0080917A00806480937A00A1
S1130EE002E31CE3D6E4C0E58091D00085FFFCCF8B
S1130EF00093D6008091D00087FFFCCF8091D6006C
S1130F000E941C078091D00085FFFCCF1093D6006F
S1130F108091D00087FFFCCF8091D6000E94C40648
S1130F208091D00085FFFCCFD093D6008091D00073
S1130F3087FFFCCF8091D6000E94BE058091D0002F
S1130F4085FFFCCFC093D6008091D00087FFFCCFF3
S1130F508091D6000E947B06C7CF5058BB27AA2792
S1130F600ED0E4C0D5D030F0DAD020F031F49F3F79
S1130F7011F41EF4CAC00EF4E095E7FB97C0E92F04
S1130F80E6D080F3BA17620773078407950718F051
S1130F9071F49EF515C10EF4E0950B2EBA2FA02D19
S1130FA00B01B90190010C01CA01A0011124FF2712
S1130FB0591B99F0593F50F4503E68F11A16F0400D
S1130FC0A22F232F342F4427585FF3CF469537950C
S1130FD02795A795F0405395C9F77EF41F16BA0BD1
S1130FE0620B730B840BBAF09150A1F0FF0FBB1F7F
S1130FF0661F771F881FC2F70EC0BA0F621F731FC8
S1131000841F48F4879577956795B795F7959E3F24
S113101008F0B3CF9395880F08F09927EE0F9795B2
S113102087950895B6D080F09F3740F491110EF45F
S1131030C8C060E070E080E89FE3089526F01B16C6
S1131040611D711D811D38C052C004D06894B11156
S1131050B8C0089584D088F09F5790F0B92F99278D
S1131060B751A0F0D1F0660F771F881F991F1AF0AF
S1131070BA95C9F712C0B13081F0A2D0B1E0089599
S11310809FC0672F782F8827B85F39F0B93FCCF31A
S1131090869577956795B395D9F73EF490958095A5
S11310A0709561957F4F8F4F9F4F089597F99F6774
S11310B080E870E060E00895882371F4772321F0DC
S11310C09850872B762F07C0662311F499270DC0FB
S11310D09051862B70E060E02AF09A95660F771F96
S11310E0881FDAF7880F9695879597F908959F3F9B
S11310F031F0915020F4879577956795B795880FCF
S1131100911D9695879597F908959FEF80EC089522
S113111000240A94161617061806090608950024D2
S11311200A9412161306140605060895092E03944C
S1131130000C11F4882352F0BB0F40F4BF2B11F4C0
S113114060FF04C06F5F7F4F8F4F9F4F089557FD1F
S11311509058440F551F59F05F3F71F04795880F21
S113116097FB991F61F09F3F79F0879508951216B8
S113117013061406551FF2CF4695F1DF08C0161664
S113118017061806991FF1CF869571056105089415
S11311900895E5DFA0F0BEE7B91788F4BB279F38B0
S11311A060F41616B11D672F782F8827985FF7CF44
S11311B0869577956795B11D93959639C8F30895EB
S11311C0E894BB2766277727CB0197F90895FA019E
S11311D0DC01AA0FBB1F9B01AC01BF5728F42227D7
S11311E03327442750781FC0B75188F4AB2F00240D
S11311F0469537952795011CA395D2F3002069F0F5
S1131200220F331F441FB395DAF30DD0A6CE6130FD
S11312107105A0E88A07B94630F49B01AC01662742
S1131220772788279078309621F020833183428372
S1131230538308950BD07ACF6BDF28F070DF18F05A
S1131240952309F033CF61CF1124BBCF80DFA0F306
S1131250959FD1F3950F50E0551F629FF001729F47
S1131260BB27F00DB11D639FAA27F00DB11DAA1F66
S1131270649F6627B00DA11D661F829F2227B00DB3
S1131280A11D621F739FB00DA11D621F839FA00D3E
S1131290611D221F749F3327A00D611D231F849F8E
S11312A0600D211D822F762F6A2F11249F575040E5
S11312B08AF0E1F088234AF0EE0FFF1FBB1F661F80
S11312C0771F881F91505040A9F79E3F510570F039
S11312D0EDCE77CF5F3FECF3983EDCF386957795C0
S11312E06795B795F795E7959F5FC1F7FE2B880F34
S11312F0911D9695879597F90895A1E21A2EAA1B38
S1131300BB1BFD010DC0AA1FBB1FEE1FFF1FA217B1
S1131310B307E407F50720F0A21BB30BE40BF50BAE
S1131320661F771F881F991F1A9469F76095709537
S1131330809590959B01AC01BD01CF010895F8946F
S1051340FFCFD9
S10913420000C040280079
S9030000FC
