S012000044432053656E73696E672E7372656394
S11300000C942A000C9447000C9447000C9447006D
S11300100C9447000C9447000C9447000C94470040
S11300200C9447000C9447000C9447000C944A032A
S11300300C9447000C9447000C9447000C94470020
S11300400C9447000C9447000C9447000C94470010
S11300500C94470011241FBECFE5D4E0DEBFCDBF12
S113006010E0A0E6B0E0E2E0FBE002C005900D92F3
S1130070A236B107D9F720E0A2E6B0E001C01D9294
S1130080AE3CB207E1F70E94F7000C947F050C9494
S11300900000CF93DF9321E020937900C4E6D0E001
S11300A010927800E09179009E012E1B31091216FE
S11300B01306DCF520E030E0F901EE0FFF1FE80F36
S11300C0F91F408151812F5F3F4FD901AA0FBB1FF8
S11300D0A80FB91F2D913C91119742175307B0F007
S11300E050936300409362002D913C9131832083AF
S11300F02091620030916300E0917800F0E0319645
S1130100EE0FFF1FE80FF91F318320832091780041
S11301102F5F20937800E0917900622F70E0AE01A8
S11301204E1B51096417750734F2EF5FE0937900B1
S1130130E43608F4B5CFDC01A45ABF4FFC01E65AFB
S1130140FF4F4D915C9120813181240F351FFC01BB
S1130150E25AFF4F40815181240F351FFC01E05AC0
S1130160FF4F40815181240F351FFC01EE59FF4F91
S113017040815181240F351FFC01EC59FF4F408110
S11301805181240F351FFC01EA59FF4F40815181F1
S1130190240F351FFC01E859FF4F40815181240F82
S11301A0351FFC01E659FF4F40815181240F351F53
S11301B0FC01E459FF4F80819181280F391FADEC78
S11301C0BCEC0E94730596958795969587959695B0
S11301D08795BC0180E090E00E9442040E940304E1
S11301E00E941604862F972FDF91CF910895CF9305
S11301F0DF93CDB7DEB7C95CD1090FB6F894DEBF83
S11302000FBECDBF87E886B982E081BB12BA17BAA8
S11302100E9490032FEF80E792E0215080409040AD
S1130220E1F700C0000022242394312C2C0E3D1E43
S1130230422C732CF894E1E4E7B9109279008FE929
S11302409FE00197F1F700C00000369A349BFECF7F
S1130250349A2091790084B195B1E22FF0E0EE0F49
S1130260FF1FE20DF31D91838083822F8F5F8093A4
S11302707900843620F3842D972D0E9449004C0187
S113028092E497B910927900EFECF7E03197F1F727
S113029000C00000369A349BFECF349A2091790036
S11302A084B195B1E22FF0E0EE0FFF1FE20DF31DD4
S11302B091838083822F8F5F80937900843620F32B
S11302C0842D972D0E9449005C01F3E4F7B9109244
S11302D079008FEC97E00197F1F700C00000369A9F
S11302E0349BFECF349A2091790084B195B1E22FEA
S11302F0F0E0EE0FFF1FE20DF31D91838083822F48
S11303008F5F80937900843620F3842D972D0E948B
S113031049007C0196E497B910927900EFE9FFE077
S11303203197F1F700C00000369A349BFECF349A1F
S11303302091790084B195B1E22FF0E0EE0FFF1F18
S1130340E20DF31D91838083822F8F5F8093790068
S1130350843620F3842D972D0E9449006C01F7E424
S1130360F7B9109279008FE99FE00197F1F700C087
S11303700000369A349BFECF349A2091790084B1E0
S113038095B1E22FF0E0EE0FFF1FE20DF31D918314
S11303908083822F8F5F80937900843620F3842DAD
S11303A0972D0E9449008C01B09B05C00F2EFAE0E6
S11303B06F2EF02D01C0612CB19B05C00F2EFAE009
S11303C05F2EF02D01C0512CB29B07C09AE0C75399
S11303D0DF4F9883C95CD04005C0C753DF4F1882F4
S11303E0C95CD040B70180E090E00E94420424EA56
S11303F030E74DE35EE30E94100523E333EB48EB63
S113040052E40E949E0320E030E040E251E40E9466
S113041010050E9403040E9416047B01E4E6EE0E1C
S1130420F11CB40180E090E00E9442042EE836E022
S113043040EF5CE30E94100520E030E040E251E42C
S11304400E9410050E9403040E941604862E972E13
S1130450B50180E090E00E94420424EA30E74DE3D5
S11304605EE30E94100523E333EB48EB52E40E9461
S11304709E0320E030E040E251E40E9410050E9417
S113048003040E9416045B01F4E6AF0EB11CB8012C
S113049080E090E00E94420426E636E646E65FE30A
S11304A00E9410052AE939E140EA52E40E949E03C1
S11304B020E030E040E251E40E9410050E94030471
S11304C00E941604062F172FB60180E090E00E94C8
S11304D042042BE734E14EEA5DE30E94100520E07C
S11304E030E040E050E40E949F0320E030E040E22E
S11304F051E40E9410050E9403040E941604C62EB3
S1130500D72E81E00E949A0380E00E949A03802FF4
S11305100E949A03812F0E949A03882D0E949A03B5
S1130520892D0E949A038E2D0E949A038F2D0E947A
S11305309A038A2D0E949A038B2D0E949A038C2D74
S11305400E949A038D2D0E949A038FEF0E949A03B2
S11305508FEF0E949A038FEF0E949A038FEF0E94FD
S11305609A032FEF84E39CE0215080409040E1F710
S113057000C0000082E00E949A0380E00E949A0377
S1130580862D0E949A0380E00E949A03852D0E9482
S11305909A0380E00E949A03C753DF4F8881C95CA5
S11305A0D0400E949A0380E00E949A03E3E7F0E0BF
S11305B080810E949A03E4E7F0E080810E949A031C
S11305C0E1E7F0E080810E949A03E2E7F0E08081B5
S11305D00E949A03809175000E949A03809176008C
S11305E00E949A038FEF0E949A038FEF0E949A034E
S11305F0FFEF24E38CE0F15020408040E1F700C09D
S1130600000083E00E949A0380E00E949A03809194
S113061066000E949A03809167000E949A03809169
S11306206A000E949A0380916B000E949A03809151
S11306306E000E949A0380916F000E949A03809139
S113064070000E949A03E1E7F0E080810E949A031F
S1130650809168000E949A03809169000E949A0325
S113066080916C000E949A0380916D000E949A030D
S11306708FEF0E949A038FEF0E949A037894FFEF02
S11306802DE389E4F15020408040E1F700C00000F0
S1130690F894D0CD1F920F920FB60F9211242F937E
S11306A03F938F939F93AF93BF93EF93FF938CB13B
S11306B08093AF00ABE7B0E09C9190937A00ECE7B5
S11306C0F0E020812C93808330916400313051F428
S11306D030916000E32FF0E0EB59FF4F80833F5FE0
S11306E0309360009F3F49F42E3F39F48D3F29F445
S11306F081E0809360008093640080916000833186
S113070010F010926400FF91EF91BF91AF919F910F
S11307108F913F912F910F900FBE0F901F901895BE
S113072010BC83E389B91BB81AB886E880BD88E990
S11307308AB908955D9BFECF8CB908955058BB27A4
S1130740AA270ED01CC10DD130F012D120F031F403
S11307509F3F11F41EF402C10EF4E095E7FBCFC0F5
S1130760E92F1ED180F3BA17620773078407950730
S113077018F071F49EF54DC10EF4E0950B2EBA2FCE
S1130780A02D0B01B90190010C01CA01A001112493
S1130790FF27591B99F0593F50F4503E68F11A163F
S11307A0F040A22F232F342F4427585FF3CF4695D0
S11307B037952795A795F0405395C9F77EF41F16F2
S11307C0BA0B620B730B840BBAF09150A1F0FF0FBC
S11307D0BB1F661F771F881FC2F70EC0BA0F621FA8
S11307E0731F841F48F4879577956795B795F79598
S11307F09E3F08F0B3CF9395880F08F09927EE0F2A
S1130800979587950895EED080F09F3740F4911125
S11308100EF400C160E070E080E89FE3089526F0E4
S11308201B16611D711D811D70C08AC0C1D088F066
S11308309F5790F0B92F9927B751A0F0D1F0660FC8
S1130840771F881F991F1AF0BA95C9F712C0B130E3
S113085081F0DFD0B1E00895DCC0672F782F8827BE
S1130860B85F39F0B93FCCF3869577956795B39522
S1130870D9F73EF490958095709561957F4F8F4F91
S11308809F4F0895E89409C097FB3EF49095809596
S1130890709561957F4F8F4F9F4F9923A9F0F92F42
S11308A096E9BB279395F695879577956795B795C0
S11308B0F111F8CFFAF4BB0F11F460FF1BC06F5FA6
S11308C07F4F8F4F9F4F16C0882311F096E911C0B8
S11308D0772321F09EE8872F762F05C0662371F0D9
S11308E096E8862F70E060E02AF09A95660F771FED
S11308F0881FDAF7880F9695879597F9089597F9E1
S11309009F6780E870E060E00895882371F477239E
S113091021F09850872B762F07C0662311F499276E
S11309200DC09051862B70E060E02AF09A95660F16
S1130930771F881FDAF7880F9695879597F908959A
S11309409F3F31F0915020F4879577956795B7953F
S1130950880F911D9695879597F908959FEF80ECE0
S1130960089500240A941616170618060906089511
S113097000240A9412161306140605060895092E77
S11309800394000C11F4882352F0BB0F40F4BF2BE6
S113099011F460FF04C06F5F7F4F8F4F9F4F089526
S11309A057FD9058440F551F59F05F3F71F047951C
S11309B0880F97FB991F61F09F3F79F08795089501
S11309C0121613061406551FF2CF4695F1DF08C020
S11309D0161617061806991FF1CF8695710561053D
S11309E008940895E5DFA0F0BEE7B91788F4BB27A3
S11309F09F3860F41616B11D672F782F8827985FEB
S1130A00F7CF869577956795B11D93959639C8F379
S1130A100895E894BB2766277727CB0197F90895B3
S1130A200BD0ADCF9EDF28F0A3DF18F0952309F09B
S1130A3066CF94CF1124EECFB3DFA0F3959FD1F30B
S1130A40950F50E0551F629FF001729FBB27F00D78
S1130A50B11D639FAA27F00DB11DAA1F649F6627CD
S1130A60B00DA11D661F829F2227B00DA11D621F1C
S1130A70739FB00DA11D621F839FA00D611D221FD6
S1130A80749F3327A00D611D231F849F600D211DBA
S1130A90822F762F6A2F11249F5750408AF0E1F05D
S1130AA088234AF0EE0FFF1FBB1F661F771F881FA6
S1130AB091505040A9F79E3F510570F020CFAACF26
S1130AC05F3FECF3983EDCF3869577956795B79591
S1130AD0F795E7959F5FC1F7FE2B880F911D9695BB
S1130AE0879597F90895A29FB001B39FC001A39F72
S1130AF001D0B29F700D811D1124911D0895F894A9
S1050B00FFCF21
S1050B020100EC
S9030000FC
