:100000000C9472000C947C000C947C000C947C008A
:100010000C947C000C947C000C947C000C947C0070
:100020000C947C000C947C000C947C000C947C0060
:100030000C947C000C947C000C947C000C947C0050
:100040000C947C000C947C000C947C000C947C0040
:100050000C947C000C947C000C947C000C947C0030
:100060000C947C000C947C000C947C000C947C0020
:100070000C947C000C947C000C947C000C947C0010
:100080000C947C000C947C000C947C000C947C0000
:100090000C947C000C947C000C947C000C947C00F0
:1000A0000C947C000C947C000C947C000C947C00E0
:1000B0000C947C000C947C000C947C000C947C00D0
:1000C0000C947C000C947C000C947C000C947C00C0
:1000D0000C947C000C947C000C947C000C947C00B0
:1000E0000C947C0011241FBECFEFD1E2DEBFCDBF48
:1000F0000E94A8000C94E8020C940000FC016133FB
:1001000029F4809186009091870014C0633329F40C
:1001100080919600909197000DC0643329F48091EE
:10012000A6009091A70006C0653389F4809126014E
:100130009091270164E670E00E94AA02E69F900178
:10014000E79F300DF69F300D1124C90108950895E1
:100150006B9A80910101806480930101809102017A
:1001600080648093020188EA8093900081E180930B
:10017000910081EE92E090939700809396004CEB73
:1001800052E060E420E731E05093990040939800FA
:100190008091020186278093020180E593ECF901AA
:1001A0003197F1F70197D9F7EFCFBF92CF92DF9256
:1001B000EF92FF920F931F93CF93DF93B62E6A01B6
:1001C000E90190E00E94E002182F8B2D90E00E9440
:1001D000E002B82ECC0CDD1CEE24FF2460E070E0C1
:1001E00081EE90E0A70196010E94BE02113309F052
:1001F0006FC03093870020938600CE0161E30E9498
:100200007E009C0188EA8093800081E180938100D8
:1002100081E4B816F9F4259A309389002093880078
:1002200080910A01846080930A01002321F4809167
:100230000B018B7F05C0013031F480910B0184608C
:1002400080930B017DC1023009F07AC180910B01CE
:1002500094E01FC082E4B816F1F4269A30938B0024
:1002600020938A0080910A01806480930A01002310
:1002700021F480910B018F7BE3CF013021F4809139
:100280000B018064DDCF023009F05AC180910B016F
:1002900090E48927D5CF279A30938D0020938C0046
:1002A00080910A01806880930A01002321F48091E3
:1002B0000B018F77C5CF013021F480910B0180684D
:1002C000BFCF023009F03CC180910B018058B8CFFC
:1002D000133309F065C088EA8093900081E1809330
:1002E00091003093970020939600CE0163E30E9423
:1002F0007E0021E4B21601F56B9A909399008093E9
:10030000980080910101806480930101002321F411
:10031000809102018F7B05C0013031F48091020190
:100320008064809302010CC1023009F009C1809100
:10033000020190E48927F5CF22E4B216E9F46C9A21
:1003400090939B0080939A0080910A01806880932B
:100350000A01002321F4809102018F77E2CF01305E
:1003600021F4809102018068DCCF023009F0E8C0FE
:10037000809102018058D5CF6D9A90939D00809313
:100380009C009B9A002311F4A398DAC0013011F469
:10039000A39AD6C0023009F0D3C084B398E0CEC08F
:1003A000143309F06FC03093A7002093A600CE014C
:1003B00064E30E947E009C0188EA8093A00081E1B2
:1003C0008093A10081E4B816C1F480910101886096
:1003D000809301013093A9002093A8009C9A0023E8
:1003E00011F4A498ADC0013011F4A49AA9C0023050
:1003F00009F0A6C084B390E1A1C082E4B81609F563
:10040000809101018061809301013093AB002093C2
:10041000AA0080910A01816080930A01002321F4DF
:1004200080910B018E7F0CCF013021F480910B0164
:10043000816006CF023009F083C080910B0191E00A
:1004400028CF809101018062809301013093AD003B
:100450002093AC0080910A01826080930A010023FE
:1004600021F480910B018D7FEBCE013021F480913E
:100470000B018260E5CE023009F062C080910B0171
:100480008027DECE153309F05BC03093270120931F
:100490002601CE0165E30E947E009C0188EA8093DC
:1004A000200181E18093210181E4B816B9F48091A3
:1004B0000A01886080930A01309329012093280162
:1004C000989A002311F4A0983BC0013011F4A09A2F
:1004D00037C00230A9F584B391E030C082E4B81689
:1004E000B9F480910A01806180930A0130932B0155
:1004F00020932A01999A002311F4A19821C0013078
:1005000011F4A19A1DC00230D9F484B3802717C01A
:1005100080910A01806280930A0130932D0120931B
:100520002C019A9A002311F4A2980AC0013011F408
:10053000A29A06C0023021F484B394E0892784BBD8
:10054000DF91CF911F910F91FF90EF90DF90CF90AF
:10055000BF900895AA1BBB1B51E107C0AA1FBB1F78
:10056000A617B70710F0A61BB70B881F991F5A953F
:10057000A9F780959095BC01CD010895A1E21A2EAE
:10058000AA1BBB1BFD010DC0AA1FBB1FEE1FFF1F37
:10059000A217B307E407F50720F0A21BB30BE40B87
:1005A000F50B661F771F881F991F1A9469F76095CE
:1005B0007095809590959B01AC01BD01CF01089588
:1005C0009111089581568A5108F4805285580895F2
:0405D000F894FFCFCD
:00000001FF
