:100000000C9446000C9463000C9463000C94630001
:100010000C9463000C9463000C9463000C946300D4
:100020000C9463000C9463000C9463000C946300C4
:100030000C9463000C9463000C9463000C946300B4
:100040000C9463000C9463000C9463000C946300A4
:100050000C9463000C9463000C9463000C94630094
:100060000C9463000C9463000C9463000C94630084
:100070000C9463000C9463000C9463000C94630074
:100080000C9463000C9463000C94630011241FBE55
:10009000CFEFD0E1DEBFCDBF11E0A0E0B1E0E4E8FA
:1000A000F4E000E00BBF02C007900D92AE31B10743
:1000B000D9F711E0AEE1B1E001C01D92A632B1075F
:1000C000E1F70C940F020C940000CF93DF93CDB7AF
:1000D000DEB78FEF80933400109237008FEF80935C
:1000E0003A00DF91CF910895CF93DF93CDB7DEB77C
:1000F0008FEF80933A008FEF809334008FEF8093DF
:1001000064008FE090E00E94E201809165008B7FA7
:100110008093650088E30E94DF008EE00E94DF008C
:1001200081E00E94DF0086E00E94DF0080E80E94FC
:10013000DF00DF91CF910895CF93DF93CDB7DEB786
:100140008091350080688093350081E090E00E94C6
:10015000E2019FE780913500892380933500DF918C
:10016000CF910895CF93DF93CDB7DEB721970FB628
:10017000F894DEBF0FBECDBF898310921F0190910E
:100180001F018981981790F410921E0180911E0121
:100190008A3030F480911E018F5F80931E01F6CF6C
:1001A00080911F018F5F80931F01E9CF21960FB6C9
:1001B000F894DEBF0FBECDBFDF91CF910895CF93EE
:1001C000DF93CDB7DEB721970FB6F894DEBF0FBE31
:1001D000CDBF898382E090E00E94E20180916500BA
:1001E0008B7F80936500898180933B000E949C00F7
:1001F00021960FB6F894DEBF0FBECDBFDF91CF9131
:100200000895CF93DF93CDB7DEB721970FB6F8945B
:10021000DEBF0FBECDBF898381E090E00E94E20186
:1002200080916500846080936500898180933B00A4
:100230000E949C0021960FB6F894DEBF0FBECDBF82
:10024000DF91CF910895CF93DF93CDB7DEB723979A
:100250000FB6F894DEBF0FBECDBF9A8389831B8291
:10026000809165008460809365008B81282F3327FF
:1002700089819A81F901E80FF91F80818823D9F0DB
:1002800081E090E00E94E2018B81803119F480ECE2
:100290000E94DF008B81282F332789819A81F90101
:1002A000E80FF91F808180933B000E949C008B81A6
:1002B0008F5F8B83DACF23960FB6F894DEBF0FBE25
:1002C000CDBFDF91CF910895CF93DF93CDB7DEB748
:1002D00025970FB6F894DEBF0FBECDBF9A838983F2
:1002E0001B821C821D8289819A8124E630E0B9013B
:1002F0000E942D02CB018B839B8184E6989F900105
:10030000112489819A81821B930B2AE030E0B90184
:100310000E942D02CB018C839B8184E6989FC001B3
:1003200011242981281B9C818AE0989FC0011124F7
:10033000281B822F8D838B81805D0E9401018C811F
:10034000805D0E9401018D81805D0E9401012596E2
:100350000FB6F894DEBF0FBECDBFDF91CF910895E9
:10036000CF93DF93CDB7DEB721970FB6F894DEBFFA
:100370000FBECDBF898380E89981890F0E94DF007D
:1003800021960FB6F894DEBF0FBECDBFDF91CF919F
:100390000895CF93DF93CDB7DEB721970FB6F894CA
:1003A000DEBF0FBECDBF898380EC9981890F0E948B
:1003B000DF0021960FB6F894DEBF0FBECDBFDF91F0
:1003C000CF910895CF93DF93CDB7DEB724970FB6C3
:1003D000F894DEBF0FBECDBF9A83898389819A814D
:1003E00001979A8389832FEF8F3F920779F01C82C0
:1003F0001B828B819C812CE08C3C92077CF7000057
:100400008B819C8101969C838B83F3CF24960FB6BE
:10041000F894DEBF0FBECDBFDF91CF910895CFEF2F
:10042000D0E1DEBFCDBF8FEF809334008FEF80939C
:1004300064008FEF80933A000E9474008CE091E09A
:100440000E94230180EC0E94DF0089E191E00E947C
:10045000230180E090E00C944102AA1BBB1B51E1F8
:1004600007C0AA1FBB1FA617B70710F0A61BB70B24
:10047000881F991F5A95A9F780959095BC01CD01C9
:040480000895FFCF0D
:100484003031323334353637383978005445414DBC
:0E04940020524F424F434F4E00323031330062
:00000001FF
