:1000000012C02CC02BC02AC029C028C027C026C0BF
:1000100025C024C023C022C021C020C01FC01EC0D4
:100020001DC01CC01BC011241FBECFE5D4E0DEBF25
:10003000CDBF10E0A0E6B0E0E8E0F2E002C005903D
:100040000D92A036B107D9F710E0A0E6B0E001C0EC
:100050001D92A036B107E1F75BD0D4C0D1CFA09AF2
:10006000A19AA298A398A598A4988FEF87BB08950A
:1000700082E687B98BE886B90895369A349BFECF1D
:1000800085B190E008950895A89AA998C19AC29858
:10009000A898A998C198C2980895A99AA898C29AB0
:1000A000C198A898A998C198C2980895A89AA998A3
:1000B000C198C298A898A998C198C2980895A8987C
:1000C000A998C19AC298A898A998C198C298089569
:1000D000A898A99AC19AC29888E99AE329E130E0E0
:1000E000F9013197F1F70197D9F7A89AA998C19822
:1000F000C29A88E99AE329E130E0F9013197F1F7F2
:100100000197D9F70895A898A998C198C298089519
:10011000AF92BF92CF92DF92EF92FF920F931F9315
:10012000CF93DF939CDF82E687B98BE886B98FEFA8
:1001300087BB1DBC1CBC8AEA8FBD82E18EBD9D9A27
:100140009C9A989A999AB29AB19A24EAA22E26E099
:10015000B22E92E5C92E93E0D92E8EE9E82E87E0E3
:10016000F82E0FEC13E0CCEDD5E0AEEEB2E0E0EB14
:10017000F4E068E572E0369A349BFECF85B1482FF3
:1001800050E087B18F5F87B9369A349BFECF85B137
:1001900087B18F5F87B9369A349BFECF85B1282F00
:1001A00030E087B1815087B987B1815087B92B354D
:1001B00031052CF0F7BDE6BD7BBD6ABDDCCF263432
:1001C00031052CF4D7BDC6BDBBBDAABDD4CF4B35C0
:1001D00051052CF0F7BCE6BC1BBD0ABDCCCF4634A4
:1001E00051052CF4B7BCA6BCDBBCCABCC4CF9C9BDD
:1001F000C2CF9C9902C09D9BBECF17BC16BC1BBC36
:080200001ABCB9CFF894FFCF3E
:00000001FF
