:100000000C9472000C948D000C948D000C948D0057
:100010000C948D000C948D000C948D000C948D002C
:100020000C948D000C948D000C948D000C948D001C
:100030000C948D000C948D000C948D000C948D000C
:100040000C948D000C948D000C948D000C948D00FC
:100050000C948D000C948D000C948D000C948D00EC
:100060000C948D000C948D000C948D000C948D00DC
:100070000C948D000C948D000C948D000C948D00CC
:100080000C948D000C948D000C948D000C948D00BC
:100090000C948D000C948D000C948D000C948D00AC
:1000A0000C948D000C948D000C948D000C948D009C
:1000B0000C948D000C948D000C948D000C948D008C
:1000C0000C948D000C948D000C948D000C948D007C
:1000D0000C948D000C948D000C948D000C948D006C
:1000E0000C948D0011241FBECFEFD1E2DEBFCDBF37
:1000F00012E0A0E0B2E0E0E7F5E002C005900D926A
:10010000AA30B107D9F712E0AAE0B2E001C01D920F
:10011000A431B107E1F70C9493010C94000001970E
:100120002FEF8F3F920741F02BEC3CE00000215075
:10013000304037FFFBCFF3CF0895419A81E090E044
:100140000E948F00419808951F93182F82E090E03D
:100150000E948F00409815B90E949D001F9108953C
:100160008FEF84B987B981E090E00E948F004098BA
:1001700088E30E94A4008EE00E94A40081E00E9417
:10018000A40086E00E94A40080E80E94A4000895D4
:100190001092120290E0981778F4392F29E021503C
:1001A00027FFFDCF2AE0932F9F5F392F9817B0F3D9
:1001B000909312022093130208951F93182F81E049
:1001C00090E00E948F00409A15B90E949D001F91F7
:1001D00008951F93CF93DF93EC0110E0409A88813C
:1001E0008823B9F081E090E00E948F00103119F46B
:1001F00080EC0E94A400FE01E10FF11D808185B911
:100200000E949D001F5FFE01E10FF11D8081882388
:1002100049F7DF91CF911F9108950F931F939C0190
:1002200064E670E00E94A402462F84E6689FF00115
:100230001124C9018E1B9F0B6AE070E00E94A4028A
:10024000062F122F1E1B8AE0689FC0011124181B65
:10025000842F805D0E94DD00802F805D0E94DD0084
:10026000812F805D0E94DD001F910F9108958058BD
:100270000E94A400089580540E94A40008958091D3
:1002800081008160809381008FEF87B91092850093
:10029000109284000895AF92BF92CF92DF92EF92B6
:1002A000FF920F931F93CF93DF935B016C01C0917B
:1002B0000A02D0910B0280918400909185008155B3
:1002C000934CC8F321961092850010928400CE01C1
:1002D000AA2797FDA095BA2FBC01CD010E94C701A6
:1002E0007B018C0120E030E04AE753E4C601B50110
:1002F0000E943E02DC01CB019C01AD01C801B701A7
:100300000E94D4011816BCF610920B0210920A0239
:10031000DF91CF911F910F91FF90EF90DF90CF90E1
:10032000BF90AF900895CFEFD1E2DEBFCDBF0E9466
:100330003F018FEF88B985B982B98BB98EB981BB7E
:1003400084BB809302018093050180930801809310
:100350000B0160E070E080E89FE30E944B0118B859
:1003600015B812B81BB81EB811BA14BA109202010F
:10037000109205011092080110920B0160E070E0EC
:1003800080E89FE30E944B01D4CFE89403C097FB21
:100390000EF4CFD0B62F672F782F892F9EE9002437
:1003A00027C00ED05EF004C00BD026F001C008D0EC
:1003B00019F020F48FEF089580E0089581E008950A
:1003C00097FB092E052600F868942DD0E89407FCC9
:1003D00007C0621773078407950721F008F400949B
:1003E0000794989408959A95BB0F661F771F881FEE
:1003F00011249923A1F08823B2F79F3F59F0BB0F36
:1004000048F421F4002011F460FF04C06F5F7F4FB7
:100410008F4F9F4F881F9795879597F9089529C00B
:10042000052E092607FA440F551F5F3F79F0AA27CA
:10043000A51708F051E04795880F991F9F3F31F0AD
:10044000BB27B91708F091E0879508959F919F9178
:10045000112477C097FB880F991F9F3F31F0BB276E
:10046000B91708F091E0879508959F919F91112405
:1004700068C066277727882799270895D1DF01D09C
:10048000B7CF992339F0552329F09F575F57950F20
:1004900013F49AF1F1CF91589F3FE1F3629FA12DA0
:1004A0000F92BB27639FA00DB11DEE27729FA00D79
:1004B000B11DEE1FAF93AA27649FB00DE11D739F7E
:1004C000B00DE11DAA1F6627829FB00DE11DA61F7A
:1004D0005527749FE00DA11D551F839FE00DA11DA1
:1004E000561F849FA00D511D852F7A2F6E2F1F90B0
:1004F0000F9088231AF4939539F423C0000C111C33
:10050000BB1F661F771F881F0128089597FB94DF84
:100510009F3738F0FEE9F91B982F872F762F6B2F26
:1005200005C0A7CF9695879577956795F150D0F739
:100530003EF490958095709561957F4F8F4F9F4FBA
:1005400008959FEF80EC0895AA1BBB1B51E107C0E3
:10055000AA1FBB1FA617B70710F0A61BB70B881F53
:10056000991F5A95A9F780959095BC01CD010895E2
:0A0570003031323334353637383974
:00000001FF
