:100000000C942A000C9447000C9447000C94470071
:100010000C9447000C9447000C9447000C94470044
:100020000C9447000C9447000C9447000C94470034
:100030000C9447000C9447000C9447000C94470024
:100040000C9447000C9447000C9447000C94470014
:100050000C94470011241FBECFE5D8E0DEBFCDBF12
:1000600010E0A0E6B0E0E0E5F7E002C005900D92F8
:10007000AA36B107D9F710E0AAE6B0E001C01D9298
:10008000A237B107E1F70E949E010C94A6030C94DD
:10009000000020916A0090E002C09F5F2AE098175C
:1000A000E0F320936A0090936B0008950AC020E06B
:1000B00030E000002F5F3F4F4CE02C3C3407C9F785
:1000C00001970097A1F70895939A81E090E00E942C
:1000D0005600939808951F93182F81E090E00E9496
:1000E0005600939A949A15BB0E9464001F9108953C
:1000F000AF92BF92CF92DF92EF92FF921F93CF9376
:10010000DF936B017C0120E137E240E050E00E9488
:100110004803611571058105910521F474E0A72E4E
:10012000B12C34C0C701B60128EE33E040E050E006
:100130000E944803611571058105910521F463E072
:10014000A62EB12C23C0C701B60124E630E040E062
:1001500050E00E944803611571058105910521F465
:1001600052E0A52EB12C12C0AA24BB24C701B601AF
:100170002AE030E040E050E00E944803611571053C
:100180008105910519F441E0A42EB12CC0E0D0E026
:1001900021C0C701B6012AE030E040E050E00E94F3
:1001A0004803162FC701B6012AE030E040E050E0D6
:1001B0000E944803C901DA016C017D01CE0133E0E0
:1001C000880F991F3A95E1F7CC0FDD1FC80FD91F93
:1001D000C10FD11D1C141D041E041F04D4F210C035
:1001E000CE016AE070E00E943503482FCE016AE03C
:1001F00070E00E943503EB01842F805D0E946B004C
:10020000209771F706C080E30E946B000894A10854
:10021000B108A114B104B9F7DF91CF911F91FF90FC
:10022000EF90DF90CF90BF90AF900895AF92BF92C4
:10023000CF92DF92EF92FF920F931F935B016C01BD
:100240000E9413027B018C010027F7FC0095102F00
:10025000C801B7010E947800C801B7010E9444029A
:100260009B01AC01C601B5010E94AE017B018C016E
:100270008EE20E946B00C801B70120E030E44CE13F
:1002800056E40E94D2020E941302882777FD8095CF
:10029000982F0E9478001F910F91FF90EF90DF90B0
:1002A000CF90BF90AF9008951F93182F82E090E0F9
:1002B0000E945600949815BB0E9464001F910895F7
:1002C00080540E945401089580580E94540108955A
:1002D0008FEF84BB81BB0E946400949A88E30E94E4
:1002E000540181E00E9454018EE00E94540180E894
:1002F0000E9454010895EF92FF921F93CF93DF93D2
:100300007C01949A10E00EC081E090E00E945600BB
:10031000103119F480EC0E945401888185BB0E9441
:1003200064001F5FE701C10FD11D8881882361F739
:10033000DF91CF911F91FF90EF900895CF93DF93BE
:100340000E946801C0E0D0E0CE016C2F0E949903AA
:10035000219684E0C030D807B9F7FFCF5058BB27AB
:10036000AA270ED0E5C0D6D030F0DBD020F031F493
:100370009F3F11F41EF4CBC00EF4E095E7FBC1C023
:10038000E92FE7D080F3BA17620773078407950750
:1003900018F071F49EF5FFC00EF4E0950B2EBA2F05
:1003A000A02D0B01B90190010C01CA01A00111247B
:1003B000FF27591B99F0593F50F4503E68F11A1627
:1003C000F040A22F232F342F4427585FF3CF4695B8
:1003D00037952795A795F0405395C9F77EF41F16DA
:1003E000BA0B620B730B840BBAF09150A1F0FF0FA4
:1003F000BB1F661F771F881FC2F70EC0BA0F621F90
:10040000731F841F48F4879577956795B795F7957F
:100410009E3F08F0B3CF9395880F08F09927EE0F11
:1004200097958795089504D06894B111B5C0089543
:1004300098D088F09F5790F0B92F9927B751A0F026
:10044000D1F0660F771F881F991F1AF0BA95C9F768
:1004500012C0B13081F09FD0B1E008959CC0672FE9
:10046000782F8827B85F39F0B93FCCF38695779518
:100470006795B395D9F73EF4909580957095619501
:100480007F4F8F4F9F4F0895E89409C097FB3EF42C
:1004900090958095709561957F4F8F4F9F4F9923D1
:1004A000A9F0F92F96E9BB279395F695879577954F
:1004B0006795B795F111F8CFFAF4BB0F11F460FF0F
:1004C0001BC06F5F7F4F8F4F9F4F16C0882311F067
:1004D00096E911C0772321F09EE8872F762F05C07B
:1004E000662371F096E8862F70E060E02AF09A9516
:1004F000660F771F881FDAF7880F9695879597F90B
:10050000089597F99F6780E870E060E008959FEF95
:1005100080EC089500240A9416161706180609069A
:10052000089500240A941216130614060506089569
:10053000092E0394000C11F4882352F0BB0F40F4F1
:10054000BF2B11F460FF04C06F5F7F4F8F4F9F4F31
:10055000089557FD9058440F551F59F05F3F71F0B3
:100560004795880F97FB991F61F09F3F79F087951A
:100570000895121613061406551FF2CF4695F1DFA3
:1005800008C0161617061806991FF1CF8695710533
:10059000610508940895E894BB2766277727CB0167
:1005A00097F908950BD0C4CFB5DF28F0BADF18F063
:1005B000952309F0A6CFABCF1124EECFCADFA0F36D
:1005C000959FD1F3950F50E0551F629FF001729FE8
:1005D000BB27F00DB11D639FAA27F00DB11DAA1F07
:1005E000649F6627B00DA11D661F829F2227B00D54
:1005F000A11D621F739FB00DA11D621F839FA00DDF
:10060000611D221F749F3327A00D611D231F849F2E
:10061000600D211D822F762F6A2F11249F57504085
:100620008AF0E1F088234AF0EE0FFF1FBB1F661F20
:10063000771F881F91505040A9F79E3F510570F0D9
:1006400060CFAACF5F3FECF3983EDCF386957795B9
:100650006795B795F795E7959F5FC1F7FE2B880FD4
:10066000911D9695879597F9089597FB092E072672
:100670000AD077FD04D027D006D000201AF4709558
:1006800061957F4F0895F6F7909581959F4F089556
:1006900097FB092E05260ED057FD04D028D00AD08E
:1006A000001C38F450954095309521953F4F4F4FA1
:1006B0005F4F0895F6F790958095709561957F4FFF
:1006C0008F4F9F4F0895AA1BBB1B51E107C0AA1F64
:1006D000BB1FA617B70710F0A61BB70B881F991FE3
:1006E0005A95A9F780959095BC01CD010895A1E296
:1006F0001A2EAA1BBB1BFD010DC0AA1FBB1FEE1F9C
:10070000FF1FA217B307E407F50720F0A21BB30BE6
:10071000E40BF50B661F771F881F991F1A9469F762
:1007200060957095809590959B01AC01BD01CF01BE
:100730000895262FE199FECF9FBB8EBB2DBB0FB630
:10074000F894E29AE19A0FBE01960895F894FFCFCB
:0A0750003031323334353637383992
:00000001FF
