:100000000C9472000C948F000C948F000C948F0051
:100010000C948F000C948F000C948F000C948F0024
:100020000C948F000C948F000C948F000C948F0014
:100030000C948F000C948F000C948F000C948F0004
:100040000C948F000C948F000C948F000C948F00F4
:100050000C948F000C948F000C948F000C948F00E4
:100060000C948F000C948F000C948F000C948F00D4
:100070000C948F000C948F000C948F000C948F00C4
:100080000C948F000C948F000C948F000C948F00B4
:100090000C948F000C948F000C948F000C948F00A4
:1000A0000C948F000C948F000C948F000C948F0094
:1000B0000C948F000C948F000C948F000C948F0084
:1000C0000C948F000C948F000C948F000C948F0074
:1000D0000C948F000C948F000C948F000C948F0064
:1000E0000C948F0011241FBECFEFD1E2DEBFCDBF35
:1000F00012E0A0E0B2E0E8E0F6E102C005900D9267
:10010000A230B107D9F722E0A2E0B2E001C01D920F
:10011000AF30B207E1F70E94C6080C94020B0C94B2
:100120000000709A83E397E00197F1F770980895C3
:1001300010920D02882329F09AE090930E0280938A
:100140000D020895A5987098982F907C9EB92EB1B5
:10015000982F9695969596959670922B9EB998E1C4
:100160009A95F1F700C0709AE3E3F7E03197F1F761
:100170007098A59AA598709890E09C012295329568
:10018000307F3227207F3227207C33272EB92EB1B3
:10019000880F991F86709927282B2EB9F8E1FA95B8
:1001A000F1F700C0709A83E397E00197F1F7709838
:1001B0001EB82AE030E08CEC9CE000000197E9F7E3
:1001C00021503109C1F7089587EC8DB980E283BBD6
:1001D0002FE030E08CEC9CE000000197E9F7215023
:1001E0003109C1F7A59870981EB880E20E94A2005C
:1001F0008CEC9CE000000197E9F780E20E94A200ED
:100200008CEC9CE000000197E9F780E20E94A200DC
:100210008CEC9CE000000197E9F788E20E94A200C4
:100220008CEC9CE000000197E9F78EE00E94A200B0
:100230008CEC9CE000000197E9F781E00E94A200AD
:100240008CEC9CE000000197E9F786E00E94A20098
:100250008CEC9CE000000197E9F708954FE050E036
:100260002CEC3CE0000021503109E1F741505109EC
:10027000B9F7A59A7098982F907C9EB92EB1982FB7
:100280009695969596959670922B9EB998E19A952B
:10029000F1F700C0709AE3E3F7E03197F1F7709857
:1002A000A5987098A59A90E09C0122953295307F90
:1002B0003227207F3227207C33272EB92EB1880F9A
:1002C000991F86709927282B2EB9F8E1FA95F1F736
:1002D00000C0709A83E397E00197F1F77098089552
:1002E000EF92FF920F931F93CF93DF931F92CDB79F
:1002F000DEB78C0181E082B9A59A709890E0780110
:10030000E90EF11CF7018081882309F447C0903180
:1003100009F44CC0A59A7098F7012081822F807C47
:100320008EB98EB130E03595279535952795359561
:10033000279526703327822B8EB9709AE3E3F7E076
:100340003197F1F77098A598A59A7098F7012081D8
:1003500030E0A90142955295507F5427407F5427A1
:10036000407C55274EB98EB1220F331F267033279C
:10037000822B8EB9709AE3E3F7E03197F1F770982A
:100380009F5F2CEC3CE0000021503109E1F778013F
:10039000E90EF11CF70180818111B9CF0F90DF9137
:1003A000CF911F910F91FF90EF90089580EC99836A
:1003B0000E94A2009981AECF4F925F926F927F927E
:1003C0008F929F92AF92BF92CF92DF92EF92FF9265
:1003D0000F931F93CF93DF934B015C0120EA36E824
:1003E00041E050E00E94CC0A672B682B692B81F01A
:1003F000C501B40120E137E240E050E00E94CC0AA0
:10040000672B682B692B09F06CC0C4E0D0E002C0F8
:10041000C5E0D0E081149104A104B10409F44EC0F8
:10042000C12CD12C76016AE0462E512C612C712C06
:10043000C501B401A30192010E94CC0A49015A01ED
:1004400097018601000F111F221F331F68017901D8
:10045000CC0CDD1CEE1CFF1CCC0CDD1CEE1CFF1CB0
:10046000C00ED11EE21EF31EC60ED71EE81EF91ED8
:1004700081149104A104B104D9F6C114D104E1049A
:10048000F104E1F0BAE08B2E912CA12CB12CC70124
:10049000B601A50194010E94CC0A69017A01862F58
:1004A000805D0E942E01C114D104E104F10479F7AA
:1004B000209731F080E30E942E0121972097D1F7F9
:1004C000DF91CF911F910F91FF90EF90DF90CF9030
:1004D000BF90AF909F908F907F906F905F904F9064
:1004E0000895C501B40128EE33E040E050E00E94D9
:1004F000CC0A672B682B692BF1F0C501B40124E607
:1005000030E040E050E00E94CC0A672B682B692B5A
:10051000A9F0C501B4012AE030E040E050E00E94BB
:10052000CC0AC1E0D0E0672B682B692B09F472CFAD
:10053000C0E0D0E06FCFC3E0D0E06CCFC2E0D0E04D
:1005400069CFCF92DF92EF92FF92CF93DF9300D0EB
:1005500000D0CDB7DEB76B017C010E9454090E9428
:10056000DC01AE014F5F5F4FC701B6010E94A909D0
:100570006B017C018EE20E942E0120E030E543EC0D
:1005800057E4C701B6010E94DC090E9454090F908C
:100590000F900F900F90DF91CF91FF90EF90DF9031
:1005A000CF900C94DC0180580C94A20080540C94E1
:1005B000A20080910C0282B90895019740F02CECC2
:1005C0003CE0000021503109E1F70197C0F70895A0
:1005D000AC016133F1F0633309F1643321F1653328
:1005E00009F008952091260130912701369527952D
:1005F00036952795ABE7B4E10E94EE0A969587956C
:10060000489F9001499F300D589F300D1124C9011A
:1006100008952091860030918700E8CF20919600C0
:1006200030919700E3CF2091A6003091A700DECF54
:10063000AF92BF92CF92DF92FF920F931F93CF930F
:10064000DF931F92CDB7DEB76A01590190E069834D
:100650000E94FA0A182F6981862F90E00E94FA0AF8
:10066000F82E9601220F331F40E050E060E070E06A
:1006700081EE90E00E94CC0A113309F440C013339C
:1006800009F46CC0143309F493C0153359F00F907A
:10069000DF91CF911F910F91FF90DF90CF90BF908E
:1006A000AF900895309327012093260165E3C5019B
:1006B0000E94E80228EA2093200121E120932101F1
:1006C00021E4F21609F4A6C0E2E420910A01FE1624
:1006D00009F4C9C0206220930A0190932D018093F0
:1006E0002C019A9A002309F4BCC0013009F486C198
:1006F000023069F684B394E0892784BBC8CF309375
:1007000087002093860061E3C5010E94E80228EA81
:100710002093800021E12093810021E4F21609F466
:10072000D7C0E2E4FE1609F40BC1279A90938D001E
:1007300080938C0080910A01806880930A010023D5
:1007400009F487C0013009F45BC1023009F09FCF82
:1007500080910B01805880930B0199CF88EA809398
:10076000900081E180939100309397002093960050
:1007700063E3C5010E94E802F1E4FF1609F496C0A4
:1007800022E4F21609F4CAC06D9A90939D008093FA
:100790009C009B9A002309F45AC0013009F43CC123
:1007A000023009F074CF84B398E0892784BB6FCFFF
:1007B0003093A7002093A60064E3C5010E94E802DD
:1007C00028EA2093A00021E12093A100E1E4FE1695
:1007D00009F45EC0F2E420910101FF1609F48AC019
:1007E0002062209301019093AD008093AC00809132
:1007F0000A01826080930A01002319F1013009F493
:1008000005C1023009F043CF80910B01802780930E
:100810000B013DCF20910A01286020930A0190939B
:10082000290180932801989A0023C9F0013009F426
:10083000F5C0023009F02BCF84B391E0892784BB47
:1008400026CF80910B018D7F80930B0120CFA39841
:100850001ECF80910B018F7780930B0118CFA0984A
:1008600016CFA29814CF206120930A0190932B01F8
:1008700080932A01999A002309F499C0013009F460
:10088000DDC0023009F003CF84B3802784BBFFCEE4
:10089000209101012860209301019093A900809389
:1008A000A8009C9A01116BC0A498F1CE6B9A90930A
:1008B00099008093980080910101806480930101E8
:1008C000011168C0809102018F7B80930201DFCE0D
:1008D000259A909389008093880080910A01846012
:1008E00080930A0101113EC080910B018B7F8093A0
:1008F0000B01CDCE2061209301019093AB0080933A
:10090000AA0080910A01816080930A0101115EC0F2
:1009100080910B018E7F80930B01B9CE6C9A9093DE
:100920009B0080939A0080910A01806880930A015D
:10093000011159C0809102018F7780930201A7CEE7
:10094000269A90938B0080938A0080910A0180649C
:1009500080930A0101112DC080910B018F7B809340
:100960000B0195CE013009F461C0023009F08FCE41
:1009700080910B0194E0892780930B0188CE013090
:1009800009F45AC0023009F082CE84B390E189277D
:1009900084BB7DCE013009F443C0023009F077CE2C
:1009A0008091020190E489278093020170CEA19882
:1009B0006ECE013009F44AC0023009F068CE809151
:1009C0000B0190E4892780930B0161CE013009F47B
:1009D00043C0023009F05BCE80910B0191E0892782
:1009E00080930B0154CE013059F1023009F04FCE03
:1009F0008091020180588093020149CEA29A47CE8D
:100A000080910B01806880930B0141CE80910B0196
:100A1000826080930B013BCEA39A39CEA09A37CE49
:100A20008091020180648093020131CE80910B019C
:100A3000846080930B012BCEA49A29CEA19A27CE55
:100A40008091020180688093020121CE80910B0188
:100A5000806480930B011BCE80910B018160809399
:100A60000B0115CE87E080938100109285001092D3
:100A70008400089538EA3093200121E12093210178
:100A800081EE92E090932701809326013093A0009D
:100A90002093A1009093A7008093A6000895E4E01E
:100AA000F1E080818F6080836B9AEAE0F1E08081E1
:100AB0008B618083E1E0F1E08081886780839C9A8C
:100AC0001AB88FEF81B987B96B9A9B9A0895E1E0C4
:100AD000F1E080818260808380818E7F8083E2E08C
:100AE000F1E080818260808380818E7F8083E1ED70
:100AF000F0E0808188618083E2EDF0E080818660B3
:100B00008083E0EDF0E08081826080838FEB90E075
:100B10009093D5008093D40008959091D00095FFD4
:100B2000FCCF8093D60008958091D00087FFFCCF42
:100B30008091D6000895EAE7F0E0808180688083A4
:100B4000808187608083ACE7B0E08C9180628C9379
:100B5000808180648083089580917A00806480938E
:100B60007A0080917A0084FFFCCF8091790090E038
:100B70000895E5E0F1E080818160808380818D7F50
:100B800080838AE392E0909329018093280108955D
:100B9000E5E0F1E08081846080838081877F8083CD
:100BA0008AE392E090932B0180932A010895E5E077
:100BB000F1E080818860808380818B7F80838AE3FD
:100BC00092E090932B0180932A010895E5E0F1E0F3
:100BD00080818260808380818E7F80838AE392E03F
:100BE00090932901809328010895E5E0F1E0808148
:100BF00098E089278083808194E08927808380E53D
:100C000090E090932B0180932A010895E5E0F1E0B4
:100C1000808191E089278083808192E08927808389
:100C200080E590E09093290180932801089581EE5A
:100C300092E09093AB008093AA00EBE0F1E080811A
:100C40008E7F8083089581EE92E09093AB00809335
:100C5000AA00EBE0F1E0808181608083089510922A
:100C6000AB001092AA00089581EE92E09093A90043
:100C70008093A800A498A39A089581EE92E090939F
:100C8000A9008093A800A49AA39A08951092A9009D
:100C90001092A800A498A39808958CEB92E09093EA
:100CA000990080939800E2E0F1E080818064808385
:100CB00008958CEB92E09093990080939800E2E085
:100CC000F1E080818F7B8083089588E290E09093AB
:100CD000990080939800E2E0F1E080818064808355
:100CE0000895129A6B9A739A83E090E0109A2FEF0E
:100CF0003FEF49E5215030404040E1F700C000009F
:100D000010982FEF3FEF4CE2215030404040E1F788
:100D100000C00000019751F712987398089580FF62
:100D200041C081FD71C091E090930A02909105014C
:100D3000986090930501909105019B7F9093050128
:100D40002AE332E030932B0120932A0186FF41C031
:100D500087FD74C091E090930B0290910501926021
:100D600090930501909105019E7F909305012AE3E0
:100D700032E03093290120932801909108029111CB
:100D800042C09091070291113EC082FD70C083FF66
:100D90003AC081EE92E09093A9008093A800A498B5
:100DA000A39A089581FFD2CF91E090930A02909187
:100DB000050194609093050190910501977F9093B0
:100DC00005012AE332E030932B0120932A0186FDAE
:100DD000BFCF87FFD2CF91E090930B029091050196
:100DE000916090930501909105019D7F909305017D
:100DF0002AE332E0309329012093280190910802E0
:100E0000992309F4BECF089590910A02913009F018
:100E10009DCF10920A029091050128E092279093AD
:100E200005019091050124E092279093050120E5AA
:100E300030E030932B0120932A0188CF90910B0250
:100E4000913009F09ACF10920B02209105012927C9
:100E5000209305019091050122E0922790930501CE
:100E600020E530E0309329012093280186CF83FFCD
:100E700009C0109209021092A9001092A800A4982B
:100E8000A398089581EE92E09093A9008093A80022
:100E9000A49AA39A0895CF93DF931F92CDB7DEB79C
:100EA00085FF68C083FF32C090910502913071F1D7
:100EB00082FD65C081E080930402809307028091E7
:100EC0007A00806480937A0080917A0084FFFCCF5E
:100ED0008091790090E0873C91050CF45BC081EE35
:100EE00092E09093A9008093A800A498A39A80917F
:100EF0007A00806480937A0080917A0084FFFCCF2E
:100F0000809179000F90DF91CF91089581E08093D7
:100F100005028093070280917A00806480937A00B2
:100F200080917A0084FFFCCF8091790090E0863A2E
:100F3000910594F081EE92E09093A9008093A8002F
:100F4000A498A39A80917A00806480937A0080911B
:100F50007A0084FFFCCFD4CF1092A9001092A80091
:100F6000A498A39810920702109205020F90DF91A7
:100F7000CF91089589830E947106898193CF8091D2
:100F80000402813009F496CF109207020F90DF918E
:100F9000CF9108951092A9001092A800A498A39848
:100FA0001092070210920402ADCFCF93DF931F92ED
:100FB000CDB7DEB78983898183FD0CC0898185FF28
:100FC00009C0898182FF06C0898186FF03C081E054
:100FD00088B92AC0898183FF0FC0898185FD0CC033
:100FE000898182FF09C0898186FF06C082E088B9B5
:100FF00081E08093020218C0898183FF0CC089813F
:1010000085FF09C0898182FD06C0898186FF03C0F2
:1010100084E088B909C0898183FD63C018B88091D4
:101020000202813009F47CC0898181FF34C0909133
:101030000302913081F11092080280FD74C081E0BA
:10104000809308028093060280917A0080648093E6
:101050007A0080917A0084FFFCCF8091790090E043
:10106000893C91050CF468C081EE92E09093A90050
:101070008093A800A498A39A80917A0080648093BA
:101080007A0080917A0084FFFCCF809179000F90E4
:10109000DF91CF91089581E080930802809303024D
:1010A00080917A00806480937A0080917A0084FF36
:1010B000FCCF8091790090E0893C91051CF181EE94
:1010C00092E09093A9008093A800A498A39A80919D
:1010D0007A00806480937A0080917A0084FFFCCF4C
:1010E000D4CF898185FF9ACF898182FF97CF89816B
:1010F00086FD94CF88E088B9809100028C3351F14D
:10110000109A92CF1092A9001092A800A498A398C8
:1011100010920302109208020F90DF91CF91089570
:101120001092020281CF80910602813009F487CFAC
:101130000F90DF91CF9108951092A9001092A8000E
:10114000A498A39810920602109208020F90DF91C3
:10115000CF910895109868CF6B9A80FD0BC0149AB8
:1011600081FD0BC0179A82FF0BC013988CE380930C
:1011700000020895149881FFF5CF179882FDF5CFEE
:10118000139A88E780930002089508950E94E4006E
:101190000E9467050E944F0538EA3093200121E143
:1011A0002093210181EE92E0909327018093260104
:1011B0003093A0002093A1009093A7008093A600F5
:1011C00080917A00806880937A0080917A008760AD
:1011D00080937A0080917C00806280937C00809173
:1011E0007A00806480937A008091050191E08927DC
:1011F000809305018091050192E089278093050184
:1012000080E590E0909329018093280120910501C9
:1012100038E02327209305012091050134E023279E
:101220002093050190932B0180932A01109A02E3E9
:101230001CE3D6E4C0E58091D00085FFFCCF00938D
:10124000D6008091D00087FFFCCF8091D6000E940D
:10125000AC088091D00085FFFCCF1093D600809120
:10126000D00087FFFCCF8091D6000E94D5078091E7
:10127000D00085FFFCCFD093D6008091D00087FFAF
:10128000FCCF8091D6000E948F068091D00085FF10
:10129000FCCFC093D6008091D00087FFFCCF809117
:1012A000D6000E944B07C7CF33D088F09F5790F0ED
:1012B000B92F9927B751A0F0D1F0660F771F881F7B
:1012C000991F1AF0BA95C9F712C0B13081F03AD01F
:1012D000B1E0089537C0672F782F8827B85F39F0BD
:1012E000B93FCCF3869577956795B395D9F73EF4DA
:1012F00090958095709561957F4F8F4F9F4F089582
:1013000057FD9058440F551F59F05F3F71F04795B6
:10131000880F97FB991F61F09F3F79F0879508959B
:10132000121613061406551FF2CF4695F1DF08C0BA
:10133000161617061806991FF1CF869571056105D7
:1013400008940895E894BB2766277727CB0197F97F
:101350000895FA01DC01AA0FBB1F9B01AC01BF5726
:1013600028F422273327442750781FC0B75188F428
:10137000AB2F0024469537952795011CA395D2F3F2
:10138000002069F0220F331F441FB395DAF30DD00C
:1013900076C061307105A0E88A07B94630F49B0138
:1013A000AC016627772788279078309621F0208334
:1013B00031834283538308950BD0DDC0CED028F013
:1013C000D3D018F0952309F0BFC0C4C01124BBCFFF
:1013D00097DFA0F3959FD1F3950F50E0551F629FC3
:1013E000F001729FBB27F00DB11D639FAA27F00D7E
:1013F000B11DAA1F649F6627B00DA11D661F829FA5
:101400002227B00DA11D621F739FB00DA11D621F89
:10141000839FA00D611D221F749F3327A00D611DA6
:10142000231F849F600D211D822F762F6A2F112488
:101430009F5750408AF0E1F088234AF0EE0FFF1FDB
:10144000BB1F661F771F881F91505040A9F79E3F12
:10145000510570F079C077CF5F3FECF3983EDCF335
:10146000869577956795B795F795E7959F5FC1F74F
:10147000FE2B880F911D9695879597F908955058E2
:10148000BB27AA270ED077C068D030F06DD020F0EF
:1014900031F49F3F11F41EF45DC00EF4E095E7FBBC
:1014A00053C0E92F2DDF80F3BA1762077307840753
:1014B000950718F071F49EF545CF0EF4E0950B2ECC
:1014C000BA2FA02D0B01B90190010C01CA01A00196
:1014D0001124FF27591B99F0593F50F4503E68F1F1
:1014E0001A16F040A22F232F342F4427585FF3CF32
:1014F000469537952795A795F0405395C9F77EF403
:101500001F16BA0B620B730B840BBAF09150A1F04B
:10151000FF0FBB1F661F771F881FC2F70EC0BA0FD1
:10152000621F731F841F48F4879577956795B79559
:10153000F7959E3F08F0B3CF9395880F08F0992751
:10154000EE0F97958795089597F99F6780E870E06B
:1015500060E008959FEF80EC089500240A94161629
:10156000170618060906089500240A941216130691
:10157000140605060895092E0394000C11F488231F
:1015800052F0BB0F40F4BF2B11F460FF04C06F5F3B
:101590007F4F8F4F9F4F0895A1E21A2EAA1BBB1BAE
:1015A000FD010DC0AA1FBB1FEE1FFF1FA217B3072F
:1015B000E407F50720F0A21BB30BE40BF50B661F45
:1015C000771F881F991F1A9469F760957095809509
:1015D00090959B01AC01BD01CF010895A29FB00180
:1015E000B39FC001A39F01D0B29F700D811D112434
:1015F000911D08959111089581568A5108F48052E1
:1016000085580895F894FFCF2800FFFFFFFFFFFFE4
:00000001FF
