:100000000C9472000C948F000C948F000C948F0051
:100010000C948F000C948F000C948F000C948F0024
:100020000C948F000C948F000C948F000C948F0014
:100030000C948F000C948F000C948F000C948F0004
:100040000C948F000C948F000C948F000C948F00F4
:100050000C948F000C948F000C948F000C948F00E4
:100060000C948F000C948F000C948F000C948F00D4
:100070000C948F000C948F000C948F000C948F00C4
:100080000C948F000C948F000C948F000C948F00B4
:100090000C948F000C948F000C948F000C948F00A4
:1000A0000C948F000C948F000C948F000C948F0094
:1000B0000C948F000C948F000C948F000C948F0084
:1000C0000C948F000C948F000C948F000C948F0074
:1000D0000C948F000C948F000C948F000C948F0064
:1000E0000C948F0011241FBECFEFD1E2DEBFCDBF35
:1000F00012E0A0E0B2E0E0EFFCE002C005900D925B
:10010000A430B107D9F722E0A4E0B2E001C01D920B
:10011000A930B207E1F70E94FF050C9476060C9413
:100120000000709A83E397E00197F1F770980895C3
:1001300006C02CEC3CE0000021503109E1F70197AA
:10014000C0F70895CF93C82F8FE090E00E949800E9
:10015000A59A70988C2F807C8EB98EB19C2F969525
:10016000969596959670982B9EB988E18A95F1F7A9
:1001700000C00E949100A5987098A59A8C2F90E0DD
:100180009C0144E0220F331F4A95E1F7207C33277E
:100190002EB92EB1880F991F86709927282B2EB95A
:1001A00088E18A95F1F700C0CF910C9491004F92AD
:1001B0005F926F927F928F929F92AF92BF92CF92F7
:1001C000DF92EF92FF920F931F93CF93DF9300D0B4
:1001D00000D0CDB7DEB74B015C0120EA36E841E044
:1001E00050E00E943506672B682B692BA9F1C501E9
:1001F000B40120E137E240E050E00E943506672B71
:10020000682B692B61F1C501B40128EE33E040E0B1
:1002100050E00E943506672B682B692B19F1C50148
:10022000B40124E630E040E050E00E943506672B40
:10023000682B692BD1F0C501B4012AE030E040E021
:1002400050E00E94350601E010E0672B682B692B17
:1002500071F000E010E00BC005E010E008C004E021
:1002600010E005C003E010E002C002E010E0C12C85
:10027000D12C76017AE0472E512C612C712C1CC0B8
:10028000C501B401A30192010E94350649015A013A
:1002900069837A838B839C83AAE0B0E0A7019601EF
:1002A0000E9457066B017C0189819A81AB81BC81D8
:1002B000C80ED91EEA1EFB1E81149104A104B104CC
:1002C000F9F60DC0C701B601A50194010E943506DB
:1002D00069017A01862F805D0E94A20005C06AE054
:1002E000862E912CA12CB12CC114D104E104F1046F
:1002F00049F705C080E30E94A200015011090115D1
:100300001105C1F70F900F900F900F90DF91CF91D3
:100310001F910F91FF90EF90DF90CF90BF90AF9023
:100320009F908F907F906F905F904F900895CF93A4
:10033000DF931F92CDB7DEB7A5987098982F907C69
:100340009EB92EB1982F9695969596959670922B6C
:100350009EB998E19A95F1F700C089830E949100B7
:10036000A59AA5987098898190E09C01E4E0220FFD
:10037000331FEA95E1F7207C33272EB92EB1880F81
:10038000991F86709927282B2EB9E8E1EA95F1F795
:1003900000C00E9491001EB88AE090E00F90DF91AB
:1003A000CF910C949800FF920F931F93CF93DF93FC
:1003B0008C0181E082B9A59A7098F12C35C080E15A
:1003C000F81203C080EC0E949701A59A70982881CA
:1003D000822F807C8EB98EB130E0A3E035952795D1
:1003E000AA95E1F726703327822B8EB90E949100DF
:1003F000A598A59A7098288130E0A901B4E0440F2F
:10040000551FBA95E1F7407C55274EB98EB1220FA2
:10041000331F26703327822B8EB90E949100F394EC
:1004200081E090E00E949800E801CF0DD11D888105
:100430008111C5CFDF91CF911F910F91FF9008954A
:1004400087EC8DB980E283BB8FE090E00E9498003A
:10045000A59870981EB880E20E94970181E090E014
:100460000E94980080E20E94970181E090E00E9443
:10047000980080E20E94970181E090E00E9498003D
:1004800088E20E94970181E090E00E9498008EE04F
:100490000E94970181E090E00E94980081E00E9414
:1004A000970181E090E00E94980086E00E94970109
:1004B00081E090E00C949800FC01613329F4809174
:1004C00086009091870014C0633329F480919600D0
:1004D000909197000DC0643329F48091A60090910B
:1004E000A70006C0653381F4809126019091270111
:1004F00064E670E00E942106E69F9001E79F300DC0
:10050000F69F300D112401C00895C9010895AF92DE
:10051000BF92CF92DF92FF920F931F93CF93DF93FF
:100520001F92CDB7DEB76A01590190E069830E943E
:100530006E06F82E6981862F90E00E946E06182FB5
:100540009601220F331F40E050E060E070E081EE42
:1005500090E00E94350681E3F8126CC0309387006A
:100560002093860061E3C5010E945C0228EA209383
:10057000800021E1209381001134F9F4259A9093B1
:1005800089008093880080910A01846080930A0129
:10059000011104C080910B018B7F05C0013031F443
:1005A00080910B01846080930B016CC1023009F0D3
:1005B00069C180910B0194E01EC01234F1F4269AB7
:1005C00090938B0080938A0080910A0180648093CD
:1005D0000A01011104C080910B018F7BE4CF01302F
:1005E00021F480910B018064DECF023009F04AC112
:1005F00080910B0190E48927D6CF279A90938D00A4
:1006000080938C0080910A01806880930A01011117
:1006100004C080910B018F77C6CF013021F4809107
:100620000B018068C0CF023009F02CC180910B0112
:100630008058B9CFE3E3FE1263C088EA809390004C
:1006400081E180939100309397002093960063E3BB
:10065000C5010E945C02113401F56B9A90939900D8
:1006600080939800809101018064809301010111C1
:1006700004C0809102018F7B05C0013031F480916C
:100680000201806480930201FDC0023009F0FAC0CB
:100690008091020190E48927F5CF1234E9F46C9A35
:1006A00090939B0080939A0080910A0180688093C8
:1006B0000A01011104C0809102018F77E3CF01305C
:1006C00021F4809102018068DDCF023009F0DAC0A8
:1006D000809102018058D6CF6D9A90939D008093AF
:1006E0009C009B9A011102C0A398CCC0013011F468
:1006F000A39AC8C0023009F0C5C084B398E0C0C056
:10070000F4E3FF1268C03093A7002093A60064E3CF
:10071000C5010E945C0228EA2093A00021E12093F9
:10072000A100209101011134B1F42860209301014E
:100730009093A9008093A8009C9A011102C0A498EC
:10074000A1C0013011F4A49A9DC0023009F09AC0F2
:1007500084B390E195C01234F9F420612093010133
:100760009093AB008093AA0080910A0181608093EE
:100770000A01011104C080910B018E7F14CF01305A
:1007800021F480910B0181600ECF023009F07AC014
:1007900080910B0191E02FCF206220930101909373
:1007A000AD008093AC0080910A01826080930A01C1
:1007B000011104C080910B018D7FF5CE013021F431
:1007C00080910B018260EFCE023009F05BC0809116
:1007D0000B018027E8CE85E3F81254C0309327013F
:1007E0002093260165E3C5010E945C0228EA20935C
:1007F000200121E12093210120910A011134A9F463
:10080000286020930A019093290180932801989AE7
:10081000011102C0A09836C0013011F4A09A32C074
:10082000023081F584B391E02BC01234A9F4206129
:1008300020930A0190932B0180932A01999A011128
:1008400002C0A1981FC0013011F4A19A1BC0023050
:10085000C9F484B3802715C0206220930A019093C5
:100860002D0180932C019A9A011102C0A2980AC00E
:10087000013011F4A29A06C0023021F484B394E04E
:10088000892784BB0F90DF91CF911F910F91FF902B
:10089000DF90CF90BF90AF9008950F9302E020E0DB
:1008A00030E040E050E061E484E30E9487020F9171
:1008B00008950F9301E024E630E040E157E261E45F
:1008C00084E30E9487020F9108950F9300E024E6CD
:1008D00030E040E157E261E484E30E9487020F9137
:1008E00008950F93E5E0F1E02081216020832081CD
:1008F0002D7F208300E09C0140E157E261E483E327
:100900000E9487020F9108950F93E5E0F1E02081A6
:100910002260208320812E7F208300E09C0140E123
:1009200057E261E483E30E9487020F9108950F93D9
:10093000E5E0F1E080818260808380818E7F80832A
:1009400000E024E130E040E157E261E483E30E940B
:1009500087020F9108950F93E5E0F1E02081246074
:1009600020832081277F208300E09C0140E157E223
:1009700062E483E30E9487020F9108950F93E5E0FC
:10098000F1E020812860208320812B7F208300E0FC
:100990009C0140E157E262E483E30E9487020F91E9
:1009A00008950F93E5E0F1E0808188608083808185
:1009B0008B7F808300E024E130E040E157E262E495
:1009C00083E30E9487020F9108950F9302E020E0D5
:1009D00030E040E050E062E484E30E9487020F913F
:1009E00008950F9301E024E630E040E157E262E42D
:1009F00084E30E9487020F9108950F9300E024E69C
:100A000030E040E157E262E484E30E9487020F9104
:100A100008950F9302E020E030E040E050E061E410
:100A200081E30E9487020F9108950F9301E024E66D
:100A300030E040E157E261E481E30E9487020F91D8
:100A400008950F9300E024E630E040E157E261E4CE
:100A500081E30E9487020F910895CF93C82F80E809
:100A60000E9497016C2F70E080E090E00E94D70018
:100A700080E092E00E94D3019C2F9270C0FD0BC0D9
:100A80009923E9F080910402811119C08CE390E070
:100A90000E9471040AC08091040291110AC0811160
:100AA0000EC08CE390E00E94840481E080930402F5
:100AB00006C0813021F40E949704109204029C2FFA
:100AC0009870C2FD0BC09923E9F080910502811155
:100AD00019C08CE390E00E94AB040AC0809105022B
:100AE00091110AC081110EC08CE390E00E94BE04F7
:100AF00081E08093050206C0813021F40E94D10478
:100B0000109205028C2F8072C4FD08C08823B1F0BA
:100B100081E0809307020E94F10410C0811106C099
:100B200081E0809307020E94FD0408C080910702C3
:100B3000813021F4109207020E94E504C6FD08C02E
:100B4000C7FF16C081E080930602CF910C94150573
:100B5000C7FD06C081E080930602CF910C94210569
:100B600080910602813021F40E940905109206024C
:100B7000CF91089586FD07C087FF14C081E0809360
:100B800008020C94650487FD05C081E0809308028B
:100B90000C94590480910802813021F40E944D0484
:100BA0001092080208958091D00087FFFCCF8091B9
:100BB000D6000895E1E0F1E0808182608083808149
:100BC0008E7F8083E1EDF0E0808188618083E2EDBB
:100BD000F0E0808186608083E0EDF0E080818260DB
:100BE00080838FEB90E09093D5008093D40008959C
:100BF0009091D00095FFFCCF8093D60008950E947D
:100C000020020E94DA058FEF809304011092050103
:100C100082E30E94F8050E94D3050E94BA058CE386
:100C20000E94F8050E94D30586E40E94F8050E9400
:100C3000D3050E942D0580E50E94F8050E94D3058A
:100C4000E7CFAA1BBB1B51E107C0AA1FBB1FA617FA
:100C5000B70710F0A61BB70B881F991F5A95A9F765
:100C600080959095BC01CD010895A1E21A2EAA1B92
:100C7000BB1BFD010DC0AA1FBB1FEE1FFF1FA2174C
:100C8000B307E407F50720F0A21BB30BE40BF50B49
:100C9000661F771F881F991F1A9469F760957095D2
:100CA000809590959B01AC01BD01CF0108950E94F4
:100CB0006206A59F900DB49F900DA49F800D911D7D
:100CC00011240895A29FB001B39FC001A39F01D03A
:100CD000B29F700D811D1124911D089591110895E9
:100CE00081568A5108F4805285580895F894FFCFB0
:040CF00020200000C0
:00000001FF
