S02B00004D50505420437573746F6D20436861722077697468204C697472657320436F6E73747261696E742E78
S1130000C2C00000DEC00000DCC00000DAC0000096
S1130010D8C00000D6C00000D4C00000D2C0000088
S1130020D0C00000CEC00000CCC00000CAC0000098
S1130030C8C00000C6C00000C4C000000C94990BE6
S1130040C0C00000BEC00000BCC00000BAC00000B8
S1130050B8C00000B6C00000B4C00000B2C00000C8
S1130060B0C00000AEC00000ACC00000AAC00000D8
S11300702CC10000A6C00000A4C00000A2C0000063
S1130080A0C000009EC000009CC0000000407A1088
S1130090F35A00A0724E18090010A5D4E80000E835
S11300A07648170000E40B54020000CA9A3B000093
S11300B000E1F505000080969800000040420F0022
S11300C00000A08601000000102700000000E803E3
S11300D0000000006400000000000A0000000000AE
S11300E00100000000002C76D888DC674F0823DF6D
S11300F0C1DFAE59E1B1B796E5E3E453C63AE65140
S1130100997696E8E6C28426EB898C9B62ED407C66
S11301106FFCEFBC9C9F40F2BAA56FA5F490055A02
S11301202AF75C936B6CF9676DC11BFCE0E40D4727
S1130130FEF520E6B500D0ED902E0300943577054A
S11301400080841E080000204E0A000000C80C3302
S11301503333330F986E12831141EF8D2114893B91
S1130160E65516CFFEE6DB18D1844B381BF77C1D11
S1130170901DA4BBE424203284725E228100C9F164
S113018024ECA1E53D2711241FBECFEFD0E4DEBF50
S1130190CDBF13E0A0E0B1E0E0E7F0E200E00BBF88
S11301A002C007900D92AC31B107D9F723E0ACE15E
S11301B0B3E001C01D92AC34B207E1F76CD20C94E9
S11301C036101ECF5D9A8DEE92E00197F1F700C0D4
S11301D000005D9808955F9A88B9F4DF83EC99E094
S11301E00197F1F700C0000008955F9888B9EADF2D
S11301F083EC99E00197F1F700C0000008958FEFB8
S113020087B98AB1806A8AB988E3EFDF83EC99E021
S11302100197F1F700C0000081E0E7DF83EC99E08B
S11302200197F1F700C0000086E0DFDF83EC99E07E
S11302300197F1F700C000008CE0D7DF83EC99E070
S11302400197F1F700C0000080E8CFDF83EC99E06C
S11302500197F1F700C00000089581E0C6CF08952A
S113026082E0C3CF0895CF93DF93EC018881882384
S113027029F02196B0DF89918111FCCFDF91CF91D4
S11302800895623031F0633031F0613029F4805CDC
S113029003C08C5E01C08C5A8068A7CF08950F9369
S11302A01F93CF93DF9380E4A0DFC7E3D1E007E798
S11302B011E0899190DFC017D107D9F780E895DF65
S11302C0DF91CF911F910F9108951F920F920FB656
S11302D00F9211240BB60F928F939F93EF93FF937A
S11302E08091CE00809328038D3079F480911F0390
S11302F0813019F580931E0310921F03E0911C03B3
S1130300F0E0E75DFC4F108218C090911F0391301C
S113031059F490911C03E92FF0E0E75DFC4F8083D2
S11303209F5F90931C0309C08A3039F4911105C072
S113033081E080931F0310921C03FF91EF919F9122
S11303408F910F900BBE0F900FBE0F901F901895BA
S113035087E880937A0080E480937C000895AF92CC
S1130360BF92CF92DF92EF92FF920F931F93CF939E
S1130370DF93CDB7DEB7C85CD1090FB6F894DEBF02
S11303800FBECDBFBE016F5F7F4FAE0147535F4FBE
S1130390EAE7F0E028E730E085E88A95F1F7000025
S11303A0808180648083808184FFFDCF808180612F
S11303B08083D9018D919C91DB018D939D93BD0127
S11303C0A417B50749F763E670E0E12CF12CA12CE2
S11303D034C08E2D9F2DBA2CFC01EE0FFF1FCC24B0
S11303E0C394D12CCC0EDD1EEC0DFD1D00811181BA
S11303F09C012F5F3F4FF901EE0FFF1FEC0DFD1D18
S11304000190F081E02D0E171F0770F0880F991FDF
S11304108C0D9D1DDC01ED93FC93220F331FF6011F
S1130420E20FF31F11830083B3948B2D90E08417A4
S1130430950794F26150710929F0AB01161617065D
S113044044F2F8CFFE01E55AFF4F9E0123593F4F76
S113045060E070E081919191680F791FE217F307D2
S1130460C9F7072E000C880B990B0E94C20C20E0E0
S113047030E040E251E40E94580C20E030E845EEC0
S113048053E40E94F30B26EF38E244E951E40E945E
S1130490580CC853DF4F0FB6F894DEBF0FBECDBF64
S11304A0DF91CF911F910F91FF90EF90DF90CF904C
S11304B0BF90AF900895662319F1FC016150262F77
S11304C030E02F5F3F4FAC01420F531F8FEF9FEF80
S11304D078E060E021918227272F362F80FF07C024
S11304E096958795A1E08A27A0EA9A2702C0969557
S11304F087952150310991F7E417F50759F70895C5
S11305008FEF9FEF08952F923F924F925F926F92D9
S11305107F928F929F92AF92BF92CF92DF92EF928F
S1130520FF920F931F93CF93DF9300D000D0CDB7EA
S1130530DEB76C017C836B83242E66E0BCDF8A8388
S113054099830F2EF9E03F2EF02D0F2EF0E64F2E5B
S1130550FAEE5F2EF02D0F2EF1E86F2E712CF02D98
S11305600F2EF0E2AF2EF3E0BF2EF02D0FEF020DB1
S113057010E00F5D1C4F0F2EF6EC8F2E912CF02DFA
S1130580D6018C910E94C50BF60181810E94C50B96
S1130590D60112968C910E94C50BF60183810E94AC
S11305A0C50BD60114968C910E94C50BF60185816A
S11305B00E94C50B8A810E94C50B89810E94C50BCC
S11305C010921D03A4E8B0E011965C924E92F301E0
S11305D080818460808321100AC023C08AE18A95C7
S11305E0F1F700C080911D03813011F406C0F501BC
S11305F0A0ECB0E08C9188238CF7D4018C9181938A
S1130600E017F107A9F7B7E02B120BC0F501E6805C
S1130610F12CFE2CEE248581E82A65E0C5014BDF30
S11306200DC0D5011796EC901797F12CFE2CEE24F3
S113063016968C91E82A66E0C5013DDF8E159F056C
S113064019F03A9431109CCFB7E02B120DC0E0E2C0
S1130650F3E02481838190E0982F8827820F911DF5
S1130660EB81FC81918380830F900F900F900F900A
S1130670DF91CF911F910F91FF90EF90DF90CF907A
S1130680BF90AF909F908F907F906F905F904F90AE
S11306903F902F900895CF93DF93CDB7DEB7CC5C16
S11306A0D1090FB6F894DEBF0FBECDBF2FEF80E7A0
S11306B092E0215080409040E1F700C0000014B85F
S11306C08AE08AB98FEF8BB980937E0080EF81B97D
S11306D014980E94B50B0E94CD0B91DDE0DD38DE4D
S11306E0EFE1FEE43197F1F700C00000B9DD8FE1DE
S11306F09EE40197F1F700C0000060E080E0C1DDF6
S1130700EFE1FEE43197F1F700C0000060E187E714
S113071091E0A9DD8FE19EE40197F1F700C00000AC
S113072061E080E0AEDDEFE1FEE43197F1F700C077
S1130730000060E188E891E096DD8FE19EE4019796
S1130740F1F700C00000EFECF7E03197F1F700C0DB
S11307500000EFE6F0E08081816080838FEC97E019
S11307600197F1F700C0000020E390E3E8ECF0E02B
S1130770AEECB0E002C0292F982F80818823ECF7DB
S11307808C912D30C1F79A30B1F78A30A1F7E8EC9B
S1130790F0E080818823ECF78091CE0009E213E039
S11307A0F80180838AE290E00E94DD0B7894F801DE
S11307B0308081E3818380E38283FFEF21E18AE754
S11307C0F15020408040E1F700C0000018A21F8EC5
S11307D01AA219A21CA21BA21EA21DA218A61FA225
S11307E01AA619A61CA61BA61EA61DA686E0E1E055
S11307F0F1E0DE01A357BF4F01900D928A95E1F716
S113080086E0E7E0F1E0DE01AD56BF4F01900D92C6
S11308108A95E1F786E0EDE0F1E0DE01A756BF4FEF
S113082001900D928A95E1F786E0E3E1F1E0DE01C3
S1130830A156BF4F01900D928A95E1F786E0E9E158
S1130840F1E0DE01AB55BF4F01900D928A95E1F7BF
S113085086E0EFE1F1E0DE01A555BF4F01900D9276
S11308608A95E1F786E0E5E2F1E0DE01AF54BF4F9F
S113087001900D928A95E1F786E0EBE2F1E0DE016A
S1130880A954BF4F01900D928A95E1F786E0E1E308
S1130890F1E0DE01A354BF4F01900D928A95E1F778
S11308A048E0BE01635D7F4FCE0189549F4F2BDE2C
S11308B0C453DF4F1882CC5CD04022242394C85305
S11308C0DF4F1882C85CD040CD53DF4F1882C35C21
S11308D0D040C553DF4F1882CB5CD04091E3C65360
S11308E0DF4F9883CA5CD040E0E3C753DF4FE8830F
S11308F0C95CD040FFEF22E587E0F1502040804002
S1130900E1F700C0000047E0BE01655D7F4FCE0106
S11309108D569F4FF8DD47E0BE016D5D7F4FCE01E0
S11309208B559F4FF0DD47E0BE016F5D7F4FCE01D9
S113093087569F4FE8DD47E0BE016B5D7F4FCE01D8
S113094081569F4FE0DD47E0BE01695D7F4FCE01D8
S113095085559F4FD8DD47E0BE01675D7F4FCE01CF
S11309608F549F4FD0DD47E0BE01615E7F4FCE01C3
S113097083579F4FC8DDF3DCCC53DF4F6883798303
S11309808A839B83C45CD0406BA57CA580E090E007
S1130990F7D720E030E040E251E48AD72B013C0154
S11309A069A17AA180E090E0EBD720E030E040E25A
S11309B051E47ED74B015C016DA17EA180E090E003
S11309C0DFD720E030E040E251E472D76B017C01D4
S11309D04AE050E0BE01615D7F4F8F8D98A10E9477
S11309E0940D8E010B5C1F4F21E030E043E050E09A
S11309F0C301B2010E94750D045F1F4F22E030E075
S1130A0043E050E0C501B4010E94750D0A5F1F4F19
S1130A1021E030E043E050E0C701B6010E94750DCB
S1130A204AE050E0BE01655C7F4F8BA19CA10E940F
S1130A30940D42E050E0BE01635B7F4F8FA198A507
S1130A400E94940D42E050E0BE01635A7F4F89A595
S1130A509AA50E94940D0A5D1F4F22E030E043E006
S1130A6050E0CC53DF4F688179818A819B81C45CDB
S1130A70D0400E94750D085F1F4F23E030E046E030
S1130A8050E060E070E0CB010E94750D0A5F1F4FDB
S1130A9020E030E046E050E060E070E0CB010E94EE
S1130AA0750D0A5F1F4F23E030E046E050E060E040
S1130AB070E0CB010E94750D0A5F1F4F20E030E00B
S1130AC043E050E060E070E088EC92E40E94750D31
S1130AD0222009F4DEC2CD53DF4F9881C35CD0409D
S1130AE0911161C0BADBEFE1FEE43197F1F700C088
S1130AF00000B6DB8FE19EE40197F1F700C000002F
S1130B0060E080E0BEDBEFE1FEE43197F1F700C086
S1130B1000006CE089E991E0A6DB8FE19EE4019797
S1130B20F1F700C0000060E08CE0ABDBEFE1FEE435
S1130B303197F1F700C0000064E0CE01C59693DB65
S1130B408FE19EE40197F1F700C0000061E080E0CE
S1130B5098DBEFE1FEE43197F1F700C000006DE0AF
S1130B6086EA91E080DB8FE19EE40197F1F700C013
S1130B70000061E08DE085DBEFE1FEE43197F1F701
S1130B8000C0000063E0CE018F966DDB8FE19EE430
S1130B900197F1F700C0000091E0CD53DF4F988337
S1130BA0C35CD04076C2CD53DF4FE881C35CD040F4
S1130BB0E13069F560E08CE064DB8FE19EE401974D
S1130BC0F1F700C0000064E0CE01C5964CDBEFE114
S1130BD0FEE43197F1F700C0000061E08DE051DBE5
S1130BE08FE19EE40197F1F700C0000063E0CE01BD
S1130BF08F9639DBEFE1FEE43197F1F700C0000096
S1130C00F2E0CD53DF4FF883C35CD04042C2CD53F2
S1130C10DF4F2881C35CD040223009F063C01DDB64
S1130C208FE19EE40197F1F700C0000019DBEFE1CA
S1130C30FEE43197F1F700C0000060E080E021DBC2
S1130C408FE19EE40197F1F700C000006CE084EBB3
S1130C5091E009DBEFE1FEE43197F1F700C0000019
S1130C6060E08CE00EDB8FE19EE40197F1F700C0B9
S1130C70000064E0CE018F5B9F4FF5DAEFE1FEE404
S1130C803197F1F700C0000061E080E0FADA8FE10B
S1130C909EE40197F1F700C000006DE081EC91E063
S1130CA0E2DAEFE1FEE43197F1F700C0000061E021
S1130CB08DE0E7DA8FE19EE40197F1F700C00000D0
S1130CC063E0CE01895B9F4FCEDAEFE1FEE431971A
S1130CD0F1F700C00000F3E0CD53DF4FF883C35CAD
S1130CE0D040D7C1CD53DF4F2881C35CD0402330DF
S1130CF079F560E08CE0C5DA8FE19EE40197F1F7C5
S1130D0000C0000064E0CE018F5B9F4FACDAEFE1DE
S1130D10FEE43197F1F700C0000061E08DE0B1DA44
S1130D208FE19EE40197F1F700C0000063E0CE017B
S1130D30895B9F4F98DAEFE1FEE43197F1F700C049
S1130D400000F4E0CD53DF4FF883C35CD040A1C171
S1130D50CD53DF4F2881C35CD040243008F499C1BF
S1130D60C653DF4F8881CA5CD040813309F045C047
S1130D7074DAEFE1FEE43197F1F700C0000070DAB5
S1130D808FE19EE40197F1F700C0000060E080E08D
S1130D9078DAEFE1FEE43197F1F700C0000060E19A
S1130DA08FEC91E060DA8FE19EE40197F1F700C0E7
S1130DB0000061E080E065DAEFE1FEE43197F1F7ED
S1130DC000C0000060E180EE91E04DDA8FE19EE426
S1130DD00197F1F700C00000CD53DF4FE881C35CF9
S1130DE0D0408E2F90E0019665E070E057D6CD5349
S1130DF0DF4F8883C35CD0404CC1C753DF4FF881B9
S1130E00C95CD040F13309F447C018F4F03369F0F9
S1130E10FFC0C753DF4F2881C95CD040223309F497
S1130E207AC0233309F4B6C0F3C017DA8FE19EE425
S1130E300197F1F700C0000013DAEFE1FEE4319707
S1130E40F1F700C0000060E080E01BDA8FE19EE46F
S1130E500197F1F700C0000080E0BDD9EFE1FEE4A6
S1130E603197F1F700C0000060E084E00ADA8FE116
S1130E709EE40197F1F700C00000C453DF4F68817E
S1130E80CC5CD040CE010196EED9EFE1FEE431977F
S1130E90F1F700C00000BCC0E0D98FE19EE40197E7
S1130EA0F1F700C00000DCD9EFE1FEE43197F1F77F
S1130EB000C0000060E080E0E4D98FE19EE4019787
S1130EC0F1F700C0000080E086D9EFE1FEE431973D
S1130ED0F1F700C0000081E07ED98FE19EE4019724
S1130EE0F1F700C0000060E084E0CBD9EFE1FEE45C
S1130EF03197F1F700C00000C453DF4F6881CC5C28
S1130F00D040CE010196AFD98FE19EE40197F1F76D
S1130F1000C000007DC0A1D9EFE1FEE43197F1F7F4
S1130F2000C000009DD98FE19EE40197F1F700C055
S1130F30000060E080E0A5D9EFE1FEE43197F1F72D
S1130F4000C0000080E047D98FE19EE40197F1F7EB
S1130F5000C0000082E03FD9EFE1FEE43197F1F7F1
S1130F6000C0000060E084E08CD98FE19EE401972A
S1130F70F1F700C00000C453DF4F6881CC5CD0405F
S1130F80CE01019670D9EFE1FEE43197F1F700C08C
S1130F9000003EC062D98FE19EE40197F1F700C0E2
S1130FA000005ED9EFE1FEE43197F1F700C00000E4
S1130FB060E080E066D98FE19EE40197F1F700C01C
S1130FC0000080E008D9EFE1FEE43197F1F700C0BA
S1130FD0000083E000D98FE19EE40197F1F700C09F
S1130FE0000060E084E04DD9EFE1FEE43197F1F7D1
S1130FF000C00000C453DF4F6881CC5CD040CE01F8
S1131000019631D98FE19EE40197F1F700C0000009
S1131010C653DF4F9881CA5CD040923319F09333A2
S1131020A9F027C061E080E02CD9EFE1FEE431971C
S1131030F1F700C0000060E181EF91E014D98FE185
S11310409EE40197F1F700C0000013C061E080E066
S113105018D9EFE1FEE43197F1F700C0000060E138
S113106082E092E000D98FE19EE40197F1F700C09D
S11310700000CD53DF4FE881C35CD0408E2F90E059
S1131080019665E070E00AD5CD53DF4F8883C35CD9
S1131090D040E9E2F3E084E2838383E2848384E260
S11310A090E08BD383E192E090D3CE0183599F4F9C
S11310B08CD388E192E089D3CE018F9686D38EE1DA
S11310C092E083D3CE018F5B9F4F7FD384E292E083
S11310D07CD3CE01C59679D38AE292E076D3CE0151
S11310E0895B9F4F72D380E392E06FD38FA180FF1F
S11310F040C081E390E061D382D88FE19EE4019700
S1131100F1F700C00000A9D8EFE1FEE43197F1F750
S113111000C00000A5D88FE19EE40197F1F700C05C
S1131120000060E080E0ADD8EFE1FEE43197F1F734
S113113000C0000060E186E392E095D88FE19EE470
S11311400197F1F700C0000061E080E09AD8EFE178
S1131150FEE43197F1F700C0000060E187E492E01B
S113116082D88FE19EE40197F1F700C00000212CA2
S113117003C080E390E021D388E592E026D38FA1D9
S113118081FF40C081E390E018D339D8EFE1FEE459
S11311903197F1F700C0000060D88FE19EE4019719
S11311A0F1F700C000005CD8EFE1FEE43197F1F7FD
S11311B000C0000060E080E064D88FE19EE4019705
S11311C0F1F700C0000060E18EE592E04CD8EFE159
S11311D0FEE43197F1F700C0000061E080E051D8EF
S11311E08FE19EE40197F1F700C0000060E187E41D
S11311F092E039D8EFE1FEE43197F1F700C0000046
S1131200212C03C080E390E0D8D28FE692E0DDD2B7
S11312108FA183FF42C081E390E0CFD20E94FF0000
S11312208FE19EE40197F1F700C0000016D8EFE1CA
S1131230FEE43197F1F700C0000012D88FE19EE47C
S11312400197F1F700C0000060E080E01AD8EFE1F8
S1131250FEE43197F1F700C0000060E185E792E019
S113126002D88FE19EE40197F1F700C0000061E02D
S113127080E007D8EFE1FEE43197F1F700C0000009
S113128060E187E492E00E9433018FE19EE40197DC
S1131290F1F700C00000212C03C080E390E08DD260
S11312A086E892E092D28FA185FF47C081E390E067
S11312B084D20E94FF00EFE1FEE43197F1F700C011
S11312C000000E942D018FE19EE40197F1F700C018
S11312D000000E943001EFE1FEE43197F1F700C015
S11312E0000060E080E00E9441018FE19EE40197EC
S11312F0F1F700C0000060E18CE892E00E94330145
S1131300EFE1FEE43197F1F700C0000061E080E016
S11313100E9441018FE19EE40197F1F700C00000B3
S113132060E187E492E00E943301EFE1FEE431974B
S1131330F1F700C00000212C03C080E390E03DD20F
S11313408DE992E042D289A585FF04C081E390E053
S113135034D203C080E390E030D283EA92E035D205
S113136089A59AA596FF47C081E390E026D20E9402
S1131370FF008FE19EE40197F1F700C000000E9496
S11313802D01EFE1FEE43197F1F700C000000E9467
S113139030018FE19EE40197F1F700C0000060E0A6
S11313A080E00E944101EFE1FEE43197F1F700C0D3
S11313B0000060E189EA92E00E9433018FE19EE43B
S11313C00197F1F700C0000061E080E00E94410154
S11313D0EFE1FEE43197F1F700C0000060E187E43B
S11313E092E00E9433018FE19EE40197F1F700C07F
S11313F00000212C03C080E390E0DFD18AEB92E06F
S1131400E4D1C553DF4F9881CB5CD040913021F4B7
S113141081E390E0D2D103C080E390E0CED180ECB0
S113142092E0D3D1832D90E0C8D183E290E0C5D17E
S1131430E9ECF0E08081806180832FEF89E698E118
S1131440215080409040E1F700C0000080818F7EF1
S11314508083E9E2F3E030802181C653DF4F2883A3
S1131460CA5CD0408281C753DF4F8883C95CD040B7
S11314702481233219F184E090E044E001C0432F39
S1131480EDEFFFEFEC0FFD1FE80FF91F208331E0B4
S1131490340F832F90E0FC01E75DFC4F2081233261
S11314A071F7EDEFFFEFEC0FFD1FE80FF91F10824E
S11314B04350C453DF4F4883CC5CD0408BA59CA5DC
S11314C08F35914008F46CC089A19AA1049708F063
S11314D06DC0C853DF4FF881C85CD040FF5FC8536C
S11314E0DF4FF883C85CD040F33008F464C00E9436
S11314F0FF008FE19EE40197F1F700C000000E9415
S11315002D01EFE1FEE43197F1F700C000000E94E5
S113151030018FE19EE40197F1F700C0000060E024
S113152080E00E944101EFE1FEE43197F1F700C051
S1131530000060E186EC92E00E9433018FE19EE4BA
S11315400197F1F700C0000061E080E00E944101D2
S1131550EFE1FEE43197F1F700C0000060E187E4B9
S113156092E00E9433018FE19EE40197F1F700C0FD
S1131570000048E0BE01635D7F4FCE0183549F4F5E
S11315800E948302212C94E0C853DF4F9883C85CE7
S1131590D040E1E0C553DF4FE883CB5CD0400BC0C3
S11315A0C853DF4F1882C85CD04005C0C853DF4F12
S11315B01882C85CD040F0E33F1259C00E94FF007B
S11315C08FE19EE40197F1F700C000000E942D0115
S11315D0EFE1FEE43197F1F700C000000E94300112
S11315E08FE19EE40197F1F700C0000060E080E025
S11315F00E944101EFE1FEE43197F1F700C00000E1
S113160060E187ED92E00E9433018FE19EE401974F
S1131610F1F700C0000061E080E00E944101EFE1C9
S1131620FEE43197F1F700C0000060E188EE92E03B
S11316300E9433018FE19EE40197F1F700C000009E
S113164048E0BE01635D7F4FCE0183549F4F0E94EB
S11316508302109200019FEFE1E1FAE79150E0402C
S1131660F040E1F700C00000149A212C43C921E3A3
S1131670321240C98091000181113CC90E94FF00CF
S11316808FE19EE40197F1F700C000000E942D0154
S1131690EFE1FEE43197F1F700C000000E94300151
S11316A08FE19EE40197F1F700C0000060E080E064
S11316B00E944101EFE1FEE43197F1F700C0000020
S11316C060E189EF92E00E9433018FE19EE401978B
S11316D0F1F700C0000061E080E00E944101EFE109
S11316E0FEE43197F1F700C0000060E18AE093E086
S11316F00E9433018FE19EE40197F1F700C00000DE
S113170014989FEFE1E1FAE79150E040F040E1F7EF
S113171000C0000048E0BE01635D7F4FCE018954E4
S11317209F4F0E94830281E080930001222423942E
S1131730E1C81F920F920FB60F9211240BB60F92AD
S11317408F93EF93FF9381E080931D03E1E8F0E032
S113175080818B7F8083FF91EF918F910F900BBEDF
S11317600F900FBE0F901F9018951092C50083E341
S11317708093C4001092C000E1ECF0E0108286E88F
S11317808093C20088E180830895E0ECF0E09081CA
S113179095FFFDCF8093C60008951092CD0083E39A
S11317A08093CC001092C800E9ECF0E0108286E847
S11317B08093CA0088E980830895E8ECF0E0908182
S11317C095FFFDCF8093CE000895CF93DF93EC0176
S11317D08881882329F02196F0DF89918111FCCF3B
S11317E0DF91CF9108955058BB27AA270ED01CC172
S11317F00DD130F012D120F031F49F3F11F41EF4DA
S113180002C10EF4E095E7FBF8C0E92F1ED180F386
S1131810BA17620773078407950718F071F49EF5E9
S113182036C10EF4E0950B2EBA2FA02D0B01B90191
S113183090010C01CA01A0011124FF27591B99F042
S1131840593F50F4503E68F11A16F040A22F232F4E
S1131850342F4427585FF3CF469537952795A7959E
S1131860F0405395C9F77EF41F16BA0B620B730B45
S1131870840BBAF09150A1F0FF0FBB1F661F771FB6
S1131880881FC2F70EC0BA0F621F731F841F48F46B
S1131890879577956795B795F7959E3F08F0B3CFF1
S11318A09395880F08F09927EE0F979587950895DB
S11318B00CD0BAC0B2D040F0A9D030F021F45F3FD0
S11318C019F09BC05111E4C09EC0BFD098F3992376
S11318D0C9F35523B1F3951B550BBB27AA276217F0
S11318E07307840738F09F5F5F4F220F331F441F35
S11318F0AA1FA9F333D00E2E3AF0E0E830D091506D
S11319005040E695001CCAF729D0FE2F27D0660F59
S1131910771F881FBB1F261737074807AB07B0E898
S113192009F0BB0B802DBF01FF2793585F4F2AF0AE
S11319309E3F510568F061C0ABC05F3FECF3983E39
S1131940DCF3869577956795B795F7959F5FC9F70B
S1131950880F911D9695879597F90895E1E0660F94
S1131960771F881FBB1F621773078407BA0720F00D
S1131970621B730B840BBA0BEE1F88F7E095089576
S1131980E89409C097FB3EF4909580957095619515
S11319907F4F8F4F9F4F9923A9F0F92F96E9BB27CB
S11319A09395F695879577956795B795F111F8CF47
S11319B0FAF4BB0F11F460FF1BC06F5F7F4F8F4FB2
S11319C09F4F16C0882311F096E911C0772321F0A8
S11319D09EE8872F762F05C0662371F096E8862F40
S11319E070E060E02AF09A95660F771F881FDAF797
S11319F0880F9695879597F9089597F99F6780E8DA
S1131A0070E060E008959FEF80EC089500240A944C
S1131A101616170618060906089500240A941216C5
S1131A201306140605060895092E0394000C11F4F8
S1131A30882352F0BB0F40F4BF2B11F460FF04C0A5
S1131A406F5F7F4F8F4F9F4F089557FD9058440FFE
S1131A50551F59F05F3F71F04795880F97FB991F09
S1131A6061F09F3F79F087950895121613061406C6
S1131A70551FF2CF4695F1DF08C016161706180653
S1131A80991FF1CF86957105610508940895E8942E
S1131A90BB2766277727CB0197F9089597FB072E75
S1131AA016F4009406D077FD08D00BD007FC05D0BF
S1131AB03EF4909581959F4F0895709561957F4F61
S1131AC00895AA1BBB1B51E107C0AA1FBB1FA61781
S1131AD0B70710F0A61BB70B881F991F5A95A9F7D3
S1131AE080959095BC01CD010895EF920F931F93BB
S1131AF0CF93DF93E80147FD02C034E001C034E135
S1131B00E42F440FFF0BF7FF03C0F195E195F109B2
S1131B10E32E022F2E2FAE0134D0CE01DF91CF91D0
S1131B201F910F91EF9008954532510518F44230FA
S1131B3008F004C0FB011082CB010895BB274A3092
S1131B4031F4992322F4BDE2909581959F4F01C011
S1131B50BB27FB015527AA27880F991FAA1FA41783
S1131B6010F0A41B83955051B9F7A05DAA3308F077
S1131B70A95DA193009779F7B111B1931192CB01AB
S1131B8065C24F925F926F927F929F92AF92BF9283
S1131B90CF92DF92EF92FF920F931F93CF93DF9335
S1131BA0CDB7DEB729970FB6F894DEBF0FBECDBF11
S1131BB06A01122FB02E2BE3201720F0FF24F39498
S1131BC0F00E02C0BCE3FB2E0F2D27E0AE014F5FE9
S1131BD05F4F64D1AC018981982F9970913031F0B5
S1131BE0E1FC06C0E0FE06C090E205C09DE203C031
S1131BF09BE201C090E0EE2DE07183FF3CC09111A7
S1131C0002C083E001C084E0811718F4212F281B4F
S1131C1001C020E0E1110BC0F601822F30E28823DD
S1131C2019F031938150FBCFC20ED11C20E09923CF
S1131C3029F0D6019C93F60131966F01C6010396F3
S1131C40E2FE0AC03EE4D6013C9341E411964C9373
S1131C50119712963C9306C03EE6F601308341E6A6
S1131C6041833283FC01322F40E2332309F442C022
S1131C7041933150FACF82FF44C0911102C083E0F6
S1131C8001C084E0811718F4212F281B01C020E033
S1131C90E1110BC0F601822F30E2882319F0319351
S1131CA08150FBCFC20ED11C20E0992329F0D6012C
S1131CB09C93F60131966F01C6010396E2FE0BC0B8
S1131CC039E4D6013C933EE411963C93119736E4F3
S1131CD012963C9307C039E6F60130833EE6318321
S1131CE036E63283FC01322F40E2332319F041936C
S1131CF03150FBCFFC01E20FF11D10828EEF9FEFFC
S1131D00B7C0F1E0911101C0F0E06F2F70E014163C
S1131D10150624F49A012F5F3F4F02C021E030E002
S1131D20260F371FBB2029F06B2D70E06F5F7F4FAC
S1131D3002C060E070E0260F371F612F70E02617A5
S1131D4037071CF4121B212F01C020E03E2D3871EF
S1131D5059F4D601322F60E2332319F06D933150D8
S1131D60FBCFC20ED11C20E0FF2331F0D6019C939F
S1131D70B6016F5F7F4F6B01E1110BC0F601922F2B
S1131D8030E3992319F031939150FBCFC20ED11C4B
S1131D9020E09F2D940F3A81782F7071A72E84FF35
S1131DA003C0313309F49150191624F4993018F012
S1131DB098E001C091E0E42F852F57FF02C0E0E0D6
S1131DC080E06E2F782FE0E0F0E0AEE29A2E3A0148
S1131DD0691A71082A01461A570A0B2D10E0119549
S1131DE0019511096F3F8FEF780729F4D6019C9272
S1131DF0C60101966C014617570784F066167706EC
S1131E006CF47F01E40CF51CA1E0B0E0AC0FBD1F45
S1131E10EA0EFB1ED7011196BC9002C090E3B92EC6
S1131E20615071093196C60101967C0160177107F2
S1131E3024F0D601BC926C01D5CF6417750741F428
S1131E40363320F4353321F4A11002C081E3B82ED7
S1131E50F601B082F701822F90E2882319F0919362
S1131E608150FBCFF701E20FF11D108280E090E07A
S1131E7029960FB6F894DEBF0FBECDBFDF91CF9188
S1131E801F910F91FF90EF90DF90CF90BF90AF9094
S1131E909F907F906F905F904F900895283008F046
S1131EA027E03327DA01990F311D87FD91600096F1
S1131EB06105710539F432602E5F3D9330E32A9554
S1131EC0E1F708959F3F30F080387105610509F00E
S1131ED03C5F3C5F3D93913008F08068911DDF9337
S1131EE0CF931F930F93FF92EF92192F987F96959C
S1131EF0E92F96959695E90FFF27EA51FF4F992709
S1131F003327EE24FF24A701E701059008940794E2
S1131F1028F4360FE71EF81E491F511D660F771F60
S1131F20881F991F0694A1F70590079428F4E70EDB
S1131F30F81E491F561FC11D770F881F991F661F62
S1131F400694A1F70590079428F4F80E491F561F2C
S1131F50C71FD11D880F991F661F771F0694A1F70D
S1131F600590079420F4490F561FC71FD81F990FD7
S1131F70661F771F881F0694A9F784911095177020
S1131F8041F0D695C79557954795F794E7941A95D8
S1131F90C1F7ECE8F0E068941590159135916591DE
S1131FA0959105907FE27395E118F10A430B560B66
S1131FB0C90BD009C0F7E10CF11E431F561FC91FFE
S1131FC0D01D7EF4703311F48A95E6CFE894015065
S1131FD030F0080F0AF40027021708F4202F239585
S1131FE0022F7A3328F079E37D932A95E9F710C01C
S1131FF07D932A9589F60694979567953795179555
S11320001794E118F10A430B560BC90BD00998F049
S113201023957E9173957A3308F070E37C932013B3
S1132020B8F77E9170617D9330F0839571E37D9371
S113203070E32A95E1F71124EF90FF900F911F911F
S1132040CF91DF91992787FD90950895DC01FC01DC
S1132050672F71917723E1F7329704C07C916D93D8
S113206070836291AE17BF07C8F30895F894FFCF49
S1132070010103006A00010103006600010103007D
S11320806900010103006700010103006C00010104
S1132090030130000101030131000101060000FFCA
S11320A0FF01060000FFF01F0E04040404040400F2
S11320B00000001010101000000404141414140183
S11320C001050515151515000000000000000000AD
S11320D000000000000000000000000000000000FC
S11320E000000000000000202065636F5A656E2028
S11320F0202020202020200020202020536F6C75D9
S113210074696F6E73202020004652455155454E28
S1132110435920202000444320564F4C5441474506
S1132120202020004F2F5020504F57455220202070
S1132130004F2F502043555252454E54202000202A
S1132140536561726368696E6720666F7220200050
S113215020202020204E6574776F726B2E2E2E2047
S113216000536561726368696E6720475052532E4D
S11321702E002020202047505253204F4B20202057
S11321802020004130313D00264130323D002641BF
S113219030333D00264130343D00264131393D0085
S11321A0264130353D002020204F5645524355529C
S11321B052454E5420200020504C45415345205256
S11321C04553544152542000264130363D002020CE
S11321D0204F564552564F4C544147452020002627
S11321E04130373D00202053484F52542043495238
S11321F0435549542000264131323D002020554E9C
S1132200444552564F4C5441474520200026413105
S1132210303D00264131333D00204D54522050487A
S1132220415345204C4F53532000264131353D0046
S1132230264131313D002020202020445259205293
S1132240554E202020200020202020205359535474
S1132250454D20202020200052454D4F54454C59D7
S113226020534855544F4646002020205359535478
S1132270454D202020202020200052454D4F54451C
S10F22804C592053544152544544000072
S9030000FC
